:100000000C9464000C945E080C9485080C948C008D
:100010000C948C000C948C000C948C000C948C0030
:100020000C948C000C948C000C948C000C947C052B
:100030000C948C000C948C000C948C000C948C0010
:100040000C94AC080C948C000C94A20B0C94D40B64
:100050000C948C000C948C000C948C000C948C00F0
:100060000C948C000C948C0000000008000201002D
:100070000003040700000000000000000102040863
:100080001020408001020408102001020408102002
:10009000040404040404040402020202020203032E
:1000A00003030303000000002300260029000000D2
:1000B0000000250028002B0000000000240027007D
:1000C0002A008E00D102040C11241FBECFEFD8E00D
:1000D000DEBFCDBF12E0A0E0B1E0E0E9FAE102C08E
:1000E00005900D92A83BB107D9F723E0A8EBB2E049
:1000F00001C01D92AD3DB207E1F710E0C8ECD0E0C1
:1001000004C02297FE010E94340DC23CD107C9F7FA
:100110000E94480C0C94460D0C94000026EF32E02F
:100120004AE068E088EB92E00C94E00540ED57E08F
:1001300060E070E080E093E00E94C30720E835E2D1
:1001400040E050E060E473E080E093E00E94D60776
:1001500080E093E00E94C00768E071E08091310385
:10016000909132030E94950C6AE070E080E090E08C
:100170000E94250941E060E080E093E00E94410890
:1001800026E040E855E260E070E080E493E00E9401
:10019000400B88EB92E00E943807811106C06AE1AB
:1001A00071E080E493E00E949B0C61E088EB92E0B8
:1001B0000E941B06811106C066E271E080E493E0B4
:1001C0000E949B0C43E050E061E070E088EB92E01D
:1001D0000E942206811106C068E371E080E493E08A
:1001E0000C949B0C0895CF93DF93CDB7DEB7E397C4
:1001F0000FB6F894DEBF0FBECDBF88EB92E00E9431
:10020000F5068823C9F18CE18BABAE014D5C5F4FE5
:10021000BE016F5F7F4F88EB92E00E94A6058823A6
:1002200029F165E471E080E493E00E94950CBE0141
:100230006F5F7F4F80E493E00E949B0C86E1ECE6C9
:10024000F1E0DE015D9601900D928A95E1F746E1BD
:10025000BE01635E7F4F88EB92E00E94AB0688EBA5
:1002600092E00E944B0663E571E002C060E671E037
:1002700080E493E00E949B0CE3960FB6F894DEBFF7
:100280000FBECDBFDF91CF910895CF93CFB7F89434
:100290008091F502811127C0EAE9F0E08491E6E857
:1002A000F0E09491E82FF0E0EE0FFF1FE854FF4FCD
:1002B000A591B4918C91892321F461E08AE00E9498
:1002C000FC0961E08AE00E94C3098CB580618CBDA5
:1002D0008CB580648CBD61E08DE00E94C30961E053
:1002E0008BE00E94C3098091F5028F5F8093F50235
:1002F000CFBFCF9108959FB7F8948091F5028823DE
:1003000019F081508093F5028091F502811105C0AA
:100310008CB58F7B8CBD1092F4029FBF089581E055
:100320000895FC0165830895FC0164830895FC0130
:1003300062870895FC0163870895FC01648708952E
:100340004095FC0125854223462B45870895FC01F5
:1003500086810895FC0187810895FC0180850895B8
:10036000FC018185089580E00895CF93DF93EC012F
:10037000E881F9810280F381E02DCE010995811198
:1003800003C00E945C08F4CFDF91CF910895CF9312
:10039000DF93EC018A819B81039719F40E945C082A
:1003A000F9CF81E0DF91CF9108958F929F92AF9224
:1003B000BF92CF92DF92EF92FF92CF93DF93EC0147
:1003C0006B010E94F6084B015C01E12CF12C0E94AC
:1003D000F608681979098A099B096C157D058E054F
:1003E0009F0560F4E881F9810280F381E02DCE0160
:1003F0000995811105C00E945C08E9CF80E001C029
:1004000081E0DF91CF91FF90EF90DF90CF90BF9090
:10041000AF909F908F9008958F929F92AF92BF92CE
:10042000CF92DF92EF92FF92CF93DF93EC016B01BB
:100430000E94F6084B015C01E12CF12C0E94F608A9
:10044000681979098A099B096C157D058E059F0538
:1004500038F48A819B81039729F40E945C08EECFCF
:1004600080E001C081E0DF91CF91FF90EF90DF90BD
:10047000CF90BF90AF909F908F900895FC0186E839
:1004800091E091838083138212828FEF848382872D
:10049000838714861586108A1786128A118A148A11
:1004A000138A089508950895FC017583648308955F
:1004B000FC01778366830895FC017383628308954A
:1004C000FC0182EB91E09183808373836283558387
:1004D00044833783268308956EBD00000DB407FE64
:1004E000FDCF8EB508958CB580688CBD08958CB510
:1004F0008F778CBD08950C947B012CB5982F937049
:100500002C7F922B9CBD9DB582FB882780F99E7F16
:10051000982B9DBD0895CF93FC012681378121152D
:10052000310579F02130310541F02230310539F0C3
:100530002330310531F49CE005C094E003C098E01D
:1005400001C090E08CB5837F892B8CBD848195811F
:10055000019719F48CB5806202C08CB58F7D8CBD7B
:100560008281938101978430910528F4FC01EE5338
:10057000FE4FC08101C0C1E08C2F0E947D020E940D
:1005800045018C2FCF910C947D02CF93DF93EC012A
:100590000E9460028AEC91E099838883DF91CF9179
:1005A000089520E030E040E050E060E070E086EF49
:1005B00092E00C94C502CF93DF93EC018D899E8964
:1005C000DC01ED91FC910680F781E02D099561E059
:1005D0008F890E94C30961E08F890E94FC0964E64B
:1005E00070E080E090E00E94250981E0DF91CF91EA
:1005F0000895EF92FF920F931F93CF93DF931F9273
:10060000CDB7DEB77C018A0169830E943E028EED80
:1006100091E0F70191838083168B058B6981678B4D
:100620000F90DF91CF911F910F91FF90EF90089560
:100630000F931F93CF93DF93EC01062F1FB7F8940E
:1006400060E08F890E94FC098D899E89DC01ED9113
:10065000FC910190F081E02D602F0995082F61E059
:100660008F890E94FC091FBF802FDF91CF911F91BE
:100670000F9108950F931F93CF93DF93EC01062FF3
:100680001FB7F89460E08F890E94FC098D899E89CC
:10069000DC01ED91FC910190F081E02D602F099536
:1006A0008D899E89DC01ED91FC910190F081E02D16
:1006B00060E00995082F61E08F890E94FC091FBF47
:1006C000802FDF91CF911F910F910895EF92FF92AC
:1006D0000F931F93CF93DF931F92CDB7DEB77C01AB
:1006E000162F0FB7F89460E0DC0157968C91498380
:1006F0000E94FC09F70185899689DC01ED91FC9146
:100700000190F081E02D612F0995182FF70185895F
:100710009689DC01ED91FC910190F081E02D4981F9
:10072000642F099561E0F70187890E94FC090FBFDA
:10073000812F0F90DF91CF911F910F91FF90EF903C
:100740000895AF92BF92DF92EF92FF920F931F93A3
:10075000CF93DF9300D0CDB7DEB78C01D62EF22E2B
:10076000EFB6F89460E0DC0157968C9149835A8388
:100770000E94FC09F80185899689DC01ED91FC91C4
:100780000190F081E02D6D2D0995D82E4981A42E80
:100790005A81B52EF40EFA1479F0F80185899689FC
:1007A000DC01ED91FC910190F081E02D60E0099574
:1007B000F50181935F01EFCF61E0D80157968C91ED
:1007C0000E94FC09EFBE8D2D0F900F90DF91CF910D
:1007D0001F910F91FF90EF90DF90BF90AF90089521
:1007E000AF92BF92DF92EF92FF920F931F93CF933E
:1007F000DF9300D0CDB7DEB78C01D62EF22EEFB648
:10080000F89460E0DC0157968C9149835A830E94EA
:10081000FC09F80185899689DC01ED91FC91019034
:10082000F081E02D6D2D0995D82E4981A42E5A8195
:10083000B52EF40EFA1471F0F80185899689D50168
:100840006D915D01DC01ED91FC910190F081E02D55
:100850000995F0CF61E0F80187890E94FC09EFBE9D
:100860008D2D0F900F90DF91CF911F910F91FF90E1
:10087000EF90DF90BF90AF900895CF93DF93EC019E
:100880008F890E94320A21E0892B09F420E08A8DA9
:100890008227DF91CF910895FC01808D0C94FC0993
:1008A000FC01238D6227818D0C94FC09CF93DF938B
:1008B000EC018A819B81029761F060E0CE010E9489
:1008C000500460E0CE010E944C0482E090E09B83E3
:1008D0008A83DF91CF910895862F869586958870BB
:1008E00098E0980F891749F0E82FF0E0EA5FFD4F94
:1008F0002081621719F08F5FF5CF80E008951F9374
:10090000CF93DF93EC010E943D04882319F09F8D63
:100910009F5F9F8F9E8D891771F098A1903518F475
:100920002BE030E002C02DE130E098A1290F311D0D
:1009300028A38E8F03C088A18C5E88A388A1803AEB
:1009400008F46EC08AA19BA1969587959BA38AA364
:100950008F8D853028F08AA19BA198609BA38AA3E4
:1009600088A1805A88A31F8E89A1882309F446C0D4
:100970008CA18F5F8CA38C3008F452C06AA17BA13C
:100980006F73CE010E946C04182F6AA17BA146E010
:10099000769567954A95E1F7CE010E946C0490E147
:1009A000199F90011124822BBE0167597F4FFB01D3
:1009B0009081DE01A859BF4F9923B1F0FB019081CE
:1009C00021E0290F2083AE01490F511DFA0185A3B3
:1009D000FB0190818C91981778F019A281E08C8F9F
:1009E000CE010E94560408C08C939C91973090F0E1
:1009F0009C91943478F4E2CF1CA212C08AA19BA1EE
:100A000088339B4069F481E089A31CA2C759DF4F5A
:100A1000188206C019A28F8598890196988B8F87B6
:100A2000DF91CF911F910895CF92DF92EF92FF92C5
:100A30000F931F93CF93DF93EC018C0104591F4F49
:100A4000F801808191E0980F9083811136C06E018A
:100A5000FAE6CF0ED11CF6018081EF56FF4F908150
:100A6000891748F0CE010E9456048B899C89019613
:100A70009C8B8B8B22C0FE01E80FF11DE359FF4FC9
:100A8000608170E07E01FBE6EF0EF11CF7018081D2
:100A900091E0980F908302C0759567958A95E2F76B
:100AA0006170CE010E944C04F7018081863028F0ED
:100AB0001082F60180818F5F8083F8018081883009
:100AC00008F01082DF91CF911F910F91FF90EF906E
:100AD000DF90CF900895FC012281338124303105CD
:100AE00011F40C947F04FC01228133812330310501
:100AF00011F40C94140508951F920F920FB60F92E3
:100B000011242F933F934F935F936F937F938F9312
:100B10009F93AF93BF93EF93FF938091FE029091C9
:100B2000FF020E946B05FF91EF91BF91AF919F91E2
:100B30008F917F916F915F914F913F912F910F9086
:100B40000FBE0F901F9018958CE10895DF92EF92E1
:100B5000FF920F931F93CF93DF93EC017B018A01E8
:100B6000E881F9810280F381E02D0995D82E882350
:100B7000F1F0E114F104C9F001151105B1F08A8D0D
:100B8000282F30E023503109F801408150E042170E
:100B9000530714F084508083F801408150E0BE0177
:100BA000615E7F4FC7010E943D0D1BAE1A8E8D2DD9
:100BB000DF91CF911F910F91FF90EF90DF900895FB
:100BC0001F93CF93DF93EC01162F642FA9010E948E
:100BD000F9028AE192E0998388831BAE8CE0888FCA
:100BE000198FDF91CF911F9108956F7160620C94FE
:100BF0006603CF93DF93EC018A819B81019771F0AB
:100C000040E060E0CE010E94F50560E0898D0E9421
:100C1000FC0981E090E09B838A8301C080E0DF9142
:100C2000CF9108956FEF0C94180361EE0C941803A4
:100C300062EE0C941803462F4F7765E00E94F5058D
:100C400081E00895440F551F46706230710511F41C
:100C5000406204C06130710509F44860416066E09B
:100C60000E94F50581E00895CF93DF93EC018A811E
:100C70009B81029769F0488D60E0CE010E94F505E6
:100C800060E0898D0E94FC0982E090E09B838A836A
:100C9000DF91CF9108951F93CF93DF93EC018A8169
:100CA0009B810397D1F4CE010E941206182F807306
:100CB00019F40E945C08F7CF14FF03C0CE010E9414
:100CC0001506CE010E94340640E367E0CE010E9483
:100CD000F50515FB882780F901C080E0DF91CF91F1
:100CE0001F910895CF93DF93EC018A819B81049734
:100CF00071F0488D436060E0CE010E94F50561E02F
:100D0000898D0E94FC0984E090E09B838A83DF91B7
:100D1000CF910895CF93DF93EC018A819B81039754
:100D2000B9F060E0898D0E94FC0940E367E0CE01E4
:100D30000E94F505488D426060E0CE010E94F505F5
:100D400061E0898D0E94FC0983E090E09B838A83A7
:100D5000DF91CF9108951F93CF93DF93EC01142F70
:100D60004D3100F58A858B8F8B858C8F8C858D8F8F
:100D70008D858E8F50E0CE014F960E943D0D24E070
:100D8000210FAE01455E5F4F60EBCE010E94F00384
:100D9000CE010E948A068B899C8901969C8B8B8B45
:100DA00081E001C080E0DF91CF911F910895FC01A7
:100DB000828D8430C8F0838D8683848D8783858D72
:100DC0008087868D81878581811107C09681848186
:100DD000981719F086818F3F39F48189928901969D
:100DE000928B818B81E083AF08950F931F93CF93F4
:100DF000DF93EC011BAD111134C02A813B812330FC
:100E0000310581F10E94720667E1CE010E943A032A
:100E100080FD28C060E6CE010E943A03082F81328F
:100E200048F0CE010E9418061BAE1A8ECE010E9419
:100E3000340618C040E467E0CE010E94F505202F7B
:100E4000AE01455E5F4F61E6CE010E94A1030A8FAD
:100E5000CE010E94D7068BAD882319F0CE010E94E7
:100E600034061BAD812FDF91CF911F910F91089513
:100E70001F93CF93DF93EC018D899E89DC01ED9167
:100E8000FC910684F785E02D60E070E00995CE01C5
:100E90000E94DB02182F811102C010E044C061E003
:100EA000898D0E94C30960E0898D0E94FC0940E79A
:100EB00067E0CE010E94F5054FE36CE1CE010E9490
:100EC000F50545E06DE1CE010E94F5056DE1CE012D
:100ED0000E943A038530A9F4CE010E943406CE0167
:100EE0000E941506CE010E94180662E0CE010E9403
:100EF0001B0643E050E061E070E0CE010E94220654
:100F000012C043E760E5CE010E94660345E06DE153
:100F1000CE010E94F5056DE1CE010E943A038530B5
:100F200009F0BBCFD9CF812FDF91CF911F910895C9
:100F30000F931F93CF93DF93EC01662359F00E9428
:100F4000F60869837A838B839C83DF91CF911F910D
:100F50000F9108950E94F60809811A812B813C8126
:100F6000601B710B820B930B623371058105910538
:100F700030F763E070E080E090E00E942509EACF5E
:100F800060E00C949807FC0113AA14AA15AA16AAEB
:100F90001182128213821482411551056105710577
:100FA00021F0CB01BA010C9425090895FB01BA0187
:100FB000A901DC01D296FC93EE93D19726E0CF01F4
:100FC0000C94400B1F93CF93DF93EC01162F62E438
:100FD00072E089A99AA90E94950C4AE050E0612F1D
:100FE00089A99AA90E94090D69E472E089A99AA9C0
:100FF0000E94950C62E370E080E090E0DF91CF9179
:101000001F910C9425091F93CF93DF93EC01162FAA
:101010008D81882389F189A99AA9DC01ED91FC9140
:101020000480F581E02D0995892BA9F307C02637A7
:10103000310519F12835310509F41D8289A99AA9CC
:10104000DC01ED91FC910480F581E02D09951816E5
:10105000190694F489A99AA9DC01ED91FC91068006
:10106000F781E02D09959C01332723363105F9F6E8
:10107000612FCE010E94E20783E6DF91CF911F919D
:1010800008950F931F93CF93DF931F92CDB7DEB7D1
:101090008C01662349F081E0F801858360E0C80196
:1010A00049830E9403084981F80145830F90DF912D
:1010B000CF911F910F910895089508951F920F9257
:1010C0000FB60F9211242F933F934F935F936F931B
:1010D0007F938F939F93AF93BF93EF93FF93E09191
:1010E0000401F09105010995FF91EF91BF91AF9136
:1010F0009F918F917F916F915F914F913F912F9130
:101100000F900FBE0F901F9018951F920F920FB661
:101110000F9211242F933F934F935F936F937F937D
:101120008F939F93AF93BF93EF93FF93E09106014B
:10113000F09107010995FF91EF91BF91AF919F91B8
:101140008F917F916F915F914F913F912F910F9070
:101150000FBE0F901F9018951F920F920FB60F920F
:1011600011242F933F938F939F93AF93BF938091BD
:10117000380390913903A0913A03B0913B03309129
:10118000370323E0230F2D3720F40196A11DB11D55
:1011900005C026E8230F0296A11DB11D2093370339
:1011A0008093380390933903A0933A03B0933B03A1
:1011B00080913C0390913D03A0913E03B0913F0389
:1011C0000196A11DB11D80933C0390933D03A09314
:1011D0003E03B0933F03BF91AF919F918F913F9199
:1011E0002F910F900FBE0F901F9018952FB7F89466
:1011F000609138037091390380913A0390913B03D9
:101200002FBF08953FB7F89480913C0390913D0320
:10121000A0913E03B0913F0326B5A89B05C02F3F88
:1012200019F00196A11DB11D3FBF6627782F892FA8
:101230009A2F620F711D811D911D42E0660F771F6D
:10124000881F991F4A95D1F708958F929F92AF9268
:10125000BF92CF92DF92EF92FF926B017C010E94CE
:1012600002094B015C01C114D104E104F104F1F065
:101270000E945C080E940209681979098A099B0981
:10128000683E73408105910570F321E0C21AD108D0
:10129000E108F10888EE880E83E0981EA11CB11CBD
:1012A000C114D104E104F10429F7DDCFFF90EF90E0
:1012B000DF90CF90BF90AF909F908F9008957894DB
:1012C00084B5826084BD84B5816084BD85B582604B
:1012D00085BD85B5816085BDEEE6F0E080818160E9
:1012E0008083E1E8F0E010828081826080838081E9
:1012F00081608083E0E8F0E0808181608083E1EBC1
:10130000F0E0808184608083E0EBF0E080818160A8
:101310008083EAE7F0E0808184608083808182605E
:101320008083808181608083808180688083109247
:10133000C1000895833081F028F4813099F0823023
:10134000A1F008958730A9F08830B9F08430D1F445
:10135000809180008F7D03C0809180008F77809383
:101360008000089584B58F7702C084B58F7D84BDD9
:1013700008958091B0008F7703C08091B0008F7D79
:101380008093B0000895CF93DF9390E0FC01E45880
:10139000FF4F2491FC01E057FF4F8491882349F1CE
:1013A00090E0880F991FFC01E854FF4FA591B4917C
:1013B00082559F4FFC01C591D4919FB7611108C020
:1013C000F8948C91209582238C93888182230AC083
:1013D000623051F4F8948C91322F309583238C93A2
:1013E0008881822B888304C0F8948C91822B8C9303
:1013F0009FBFDF91CF9108950F931F93CF93DF93FA
:101400001F92CDB7DEB7282F30E0F901E859FF4F22
:101410008491F901E458FF4F1491F901E057FF4F0F
:1014200004910023C9F0882321F069830E949A095E
:101430006981E02FF0E0EE0FFF1FE255FF4FA5910D
:10144000B4919FB7F8948C91611103C010958123DA
:1014500001C0812B8C939FBF0F90DF91CF911F9183
:101460000F910895CF93DF93282F30E0F901E859C9
:10147000FF4F8491F901E458FF4FD491F901E057EF
:10148000FF4FC491CC2391F081110E949A09EC2F57
:10149000F0E0EE0FFF1FEC55FF4FA591B4912C919A
:1014A0002D2381E090E021F480E002C080E090E014
:1014B000DF91CF9108950E94380DFC01818D228D1E
:1014C00090E0805C9F4F821B91098F73992708954C
:1014D000FC01918D828D981731F0828DE80FF11DFE
:1014E000858D90E008958FEF9FEF0895FC01918D19
:1014F000828D981761F0828DDF01A80FB11D5D9676
:101500008C91928D9F5F9F73928F90E008958FEFE3
:101510009FEF08958AEF9BE0892B49F080E090E0EF
:10152000892B29F00E94FA0B81110C940000089578
:10153000FC01848DDF01A80FB11DA35ABF4F2C9170
:10154000848D90E001968F739927848FA689B7893F
:101550002C93A089B1898C9180648C93938D848D18
:10156000981306C00288F389E02D80818F7D8083E7
:101570000895CF93DF93EC01888D8823C9F0EA8921
:10158000FB89808185FD05C0A889B9898C9186FD7C
:101590000FC00FB607FCF5CF808185FFF2CFA88979
:1015A000B9898C9185FFEDCFCE010E94980AE7CFD3
:1015B000DF91CF910895CF92DF92FF920F931F9307
:1015C000CF93DF931F92CDB7DEB76C0181E0D601D8
:1015D00058968C9358975B969C915B975C968C91F0
:1015E0005C97981307C05096ED91FC9151978081BC
:1015F00085FD2EC0F601038D10E00F5F1F4F0F73A6
:101600001127F02EF601848DF81211C00FB607FCD9
:10161000F9CFD6015096ED91FC915197808185FFCD
:10162000F1CFC60169830E94980A6981EBCF838D4F
:10163000E80FF11DE35AFF4F6083D6015B960C93D0
:101640005B975296ED91FC915397808180620CC01C
:10165000D6015696ED91FC91579760835096ED9187
:10166000FC91519780818064808381E090E00F90AD
:10167000DF91CF911F910F91FF90DF90CF90089550
:10168000BF92CF92DF92EF92FF92CF93DF93EC0164
:101690006A017B01B22EE889F98982E080834115D5
:1016A00081EE580761057105A1F060E079E08DE3F6
:1016B00090E0A70196010E94100D215031094109C7
:1016C00051095695479537952795211580E138079B
:1016D00098F0E889F989108260E874E88EE190E07A
:1016E000A70196010E94100D2150310941095109AD
:1016F0005695479537952795EC85FD853083EE8582
:10170000FF852083188EEC89FD89B082EA89FB89E8
:10171000808180618083EA89FB8980818860808301
:10172000EA89FB89808180688083EA89FB898081DE
:101730008F7D8083DF91CF91FF90EF90DF90CF90EE
:10174000BF9008951F920F920FB60F9211242F93FE
:101750008F939F93EF93FF93E0915003F091510388
:101760008081E0915603F091570382FD12C0908171
:10177000809159038F5F8F7320915A03821751F024
:10178000E0915903F0E0E05CFC4F958F80935903A2
:1017900001C08081FF91EF919F918F912F910F90C8
:1017A0000FBE0F901F9018951F920F920FB60F92B9
:1017B00011242F933F934F935F936F937F938F9356
:1017C0009F93AF93BF93EF93FF9380E493E00E94C6
:1017D000980AFF91EF91BF91AF919F918F917F9167
:1017E0006F915F914F913F912F910F900FBE0F908E
:1017F0001F90189580E493E00E945D0A21E0892BF8
:1018000009F420E0822F08951092430310924203BE
:1018100088EE93E0A0E0B0E080934403909345030A
:10182000A0934603B09347038EE992E0909341035F
:101830008093400385EC90E090934D0380934C039C
:1018400084EC90E090934F0380934E0380EC90E003
:10185000909351038093500381EC90E09093530355
:101860008093520382EC90E090935503809354034D
:1018700086EC90E09093570380935603109259039F
:1018800010925A0310925B0310925C03089508951E
:101890000E945F090E94470C0E949600CAE8DAE0A5
:1018A0000E94F3002097E1F30E948A0AF9CFCF92B9
:1018B000DF92EF92FF920F931F93CF93DF937C0100
:1018C0006A01EB0100E010E00C151D0571F0699153
:1018D000D701ED91FC910190F081E02DC7010995B0
:1018E000892B19F00F5F1F4FEFCFC801DF91CF9108
:1018F0001F910F91FF90EF90DF90CF9008956115A9
:10190000710581F0DB010D900020E9F7AD01415038
:101910005109461B570BDC01ED91FC910280F381CC
:10192000E02D099480E090E008950C947F0C6FE422
:1019300072E00C947F0C0F931F93CF93DF93EC0115
:101940000E947F0C8C01CE010E94970C800F911F8A
:10195000DF91CF911F910F9108958F929F92AF9237
:10196000BF92DF92EF92FF920F931F93CF93DF937B
:10197000CDB7DEB7A1970FB6F894DEBF0FBECDBFCF
:101980007C01F42FD52ECB0119A2223008F42AE0D5
:101990008E010F5D1F4F822E912CA12CB12C6F2F29
:1019A0007D2DA50194010E94100DF22FD32ECA01A6
:1019B000015011096A3014F4E0E301C0E7E3E60FD7
:1019C000D801EC93232B242B252B49F7B801C70111
:1019D0000E947F0CA1960FB6F894DEBF0FBECDBF5C
:1019E000DF91CF911F910F91FF90EF90DF90BF900B
:1019F000AF909F908F9008952115310541F4DC013F
:101A0000ED91FC910190F081E02D642F09940C94EC
:101A1000AD0C9A01462F50E060E070E00C94FC0C95
:101A2000A1E21A2EAA1BBB1BFD010DC0AA1FBB1FE2
:101A3000EE1FFF1FA217B307E407F50720F0A21B54
:101A4000B30BE40BF50B661F771F881F991F1A94C1
:101A500069F760957095809590959B01AC01BD01EB
:101A6000CF010895EE0FFF1F0590F491E02D09942A
:101A700081E090E0F8940C94460DFB01DC0102C07B
:101A800001900D9241505040D8F70895F894FFCF3F
:101A9000010000005D085D08564D4450565F317CE2
:101AA000315F564D4450560D0A00696E69742066C8
:101AB00061696C6564007365744368616E6E656C22
:101AC000206661696C6564007365745246206661C6
:101AD000696C656400676F742072657175657374F5
:101AE0003A200053656E742061207265706C790035
:101AF00072656376206661696C656400416E64207E
:101B000068656C6C6F206261636B20746F20796F05
:101B10007500000000008F015B0A5B0A5B0A5B0A2C
:101B2000B501C7010C02D501940197019A019D01ED
:101B3000A0019101A701AA01AD01B001B30100000C
:101B400000005B0A520253025B0A5B0A540258020D
:101B50005C0205000404000000006C0273027702BE
:101B60008B027B02540258025C0200000000DB0280
:101B70005B0A5B0A5B0A5B0AB501C7010C02D5016F
:101B8000940197019A019D01A0019101A701AA0169
:101B9000AD01B001B3010D0E131516191A1C232542
:101BA00026292A2C3234000000003807F506A60545
:101BB000AB06A405B5014B060C02D50194019701B3
:101BC0009A019D01A0019101A701AA01AD01B001F7
:101BD000F905564D4450435F005F564D4450430D48
:101BE0000A004572726F723A20417474656D7074A8
:101BF00020746F20736574206120726561642D6F9D
:101C00006E6C79207661726961626C65206F7220FA
:101C1000646174612074797065206E6F74207375CF
:101C200070706F727465640D0A0000000000DB0ABA
:101C3000570C5D0A760A680AB90A6E616E00696E11
:081C400066006F7666002E00BD
:00000001FF
