:100000000C94F4000C94E7190C940E1A0C941C0137
:100010000C941C010C941C010C941C010C941C01EC
:100020000C941C010C94A4170C941C010C946715DF
:100030000C941C010C941C010C941C010C941C01CC
:100040000C94351A0C941C010C94361D0C94681DEC
:100050000C941C010C941C010C941C010C941C01AC
:100060000C941C010C941C011A06210628062F066C
:1000700036064D063D064D064406BD06C106C506BC
:10008000C906CD06D106D506005EBCE2613FDD8320
:10009000C29C7E20A3FD1F419DC3217FFCA2401E68
:1000A0005F01E3BD3E6082DC237D9FC1421CFEA058
:1000B000E1BF5D0380DE3C62BEE0025CDF81633D48
:1000C0007C22C09E1D43A1FF4618FAA427799BC538
:1000D00084DA3866E5BB5907DB856739BAE4065828
:1000E0001947A5FB7826C49A653BD987045AB8E618
:1000F000A7F91B45C6987A24F8A6441A99C7257B08
:100100003A6486D85B05E7B98CD2306EEDB3510FF7
:100110004E10F2AC2F7193CD114FADF3702ECC92E7
:10012000D38D6F31B2EC0E50AFF1134DCE90722CD7
:100130006D33D18F0C52B0EE326C8ED0530DEFB1C7
:10014000F0AE4C1291CF2D73CA947628ABF51749B7
:100150000856B4EA6937D58B5709EBB536688AD4A7
:1001600095CB2977F4AA4816E9B7550B88D6346A97
:100170002B7597C94A14F6A8742AC896154BA9F787
:10018000B6E80A54D7896B35000000080002010068
:100190000003040700000000000000000102040842
:1001A00010204080010204081020010204081020E1
:1001B000040404040404040402020202020203030D
:1001C00003030303000000002300260029000000B1
:1001D0000000250028002B0000000000240027005C
:1001E0002A003F02BC12981D11241FBECFEFD8E099
:1001F000DEBFCDBF15E0A0E0B1E0E0EFF6E402C065
:1002000005900D92A436B107D9F727E0A4E6B5E032
:1002100001C01D92A531B207E1F711E0C8EED1E0AF
:1002200004C02297FE010E943623C23ED107C9F7BF
:100230000E94DC1D0C9476230C9400008091100128
:10024000882331F065E171E088E796E00E94361E70
:100250006AE570E089E695E00E949A188AE590E0E8
:10026000909309018093080164E670E080E090E0DB
:100270000C94AE1A80911001882331F06DE271E088
:1002800088E796E00E94361E6CE370E086E695E013
:100290000E949A188CE390E09093070180930601E6
:1002A00068EC70E080E090E00C94AE1A8091100150
:1002B000882331F069E471E088E796E00E94361EF9
:1002C00064EB70E086E695E00E949A1868EE73E0B1
:1002D00080E090E00E94AE1A60E070E086E695E073
:1002E0000E949A1868EE73E080E090E00C94AE1AD9
:1002F000CF93DF93EC0180911001882369F062E5D0
:1003000071E088E796E00E94291E4AE050E0BE01B5
:1003100088E796E00E94E91EBE0186E695E00E940D
:100320009A1864E670E080E090E0DF91CF910C9441
:10033000AE1ACF93DF93EC0180911001882369F00E
:1003400067E671E088E796E00E94291E4AE050E0E7
:10035000BE0188E796E00E94E91EBE0189E695E0AD
:100360000E949A1864E670E080E090E0DF91CF91FF
:100370000C94AE1A0E94560180E090E00E94990110
:1003800068EE73E080E090E00E94AE1A84EB90E0AB
:100390000E94780168EE73E080E090E00E94AE1A5F
:1003A0000E943A010C941E010F931F93CF93DF9389
:1003B000EC0168E871E088E796E00E94361E65E986
:1003C00071E088E796E00E94291ECE010E94BC0BD6
:1003D000AB01BC0122E030E088E796E00E940020FB
:1003E00004E610E063EA71E088E796E00E94291EC7
:1003F0004AE050E0B80188E796E00E94E91EB801A3
:10040000882777FD8095982F0E945D21AB01BC0164
:10041000CE010E94C20B40EA56E86FEF7FEFCE019B
:100420000E94390ACE010E949E08672B682B692B17
:1004300021F0CE010E94BE0AF5CF64EB71E088E79F
:1004400096E00E94361E68EE73E080E090E00E9425
:10045000AE1A0E5C1F4F043F81E0180719F668EDD5
:1004600071E088E796E00E94361E68EB7BE080E052
:1004700090E0DF91CF911F910F910C94AE1ACF9223
:10048000EF920F936EE08FEF95E00E94B3106FEF45
:1004900075E08CEE95E00E94D40C2FE036E04AE047
:1004A00068E080EB95E00E94CB15C12C87E0E82E38
:1004B00006E024E042E064E08CE695E00E94EB0A6E
:1004C00089E695E00E94481886E695E00F91EF9046
:1004D000CF900C94481840ED57E060E070E088E35E
:1004E00096E00E944C1920E835E240E050E068E7D1
:1004F00076E088E396E00E945F1988E396E00E9428
:10050000491964E072E08091690690916A060E9440
:10051000291E6AE070E080E090E00E94AE1A41E09F
:1005200060E088E396E00E94CA1926E040E855E2C0
:1005300060E070E088E796E00E94D41C66E172E01B
:1005400088E796E00E94361E66E372E088E796E050
:100550000E94361E62E672E088E796E00E94291E3D
:1005600080EB95E00E942317811103C067E772E0DA
:1005700002C063E872E088E796E00E94361E66E8F3
:1005800072E088E796E00E94291E61E080EB95E02A
:100590000E940616811103C060EA72E002C062EB9D
:1005A00072E088E796E00E94361E6CEB72E088E706
:1005B00096E00E94291E43E050E061E070E080EB8D
:1005C00095E00E940D16811103C067ED72E002C034
:1005D00064EE72E088E796E00E94361E60EF72E0FB
:1005E00088E796E00E94291E63E070E089E695E0C6
:1005F0000E94551889E695E00E941219811103C0E6
:1006000068E073E002C063E872E088E796E00E9469
:10061000361E65E070E086E695E00E94551860EFB2
:1006200072E088E796E00E94291E86E695E00E9427
:100630001219811103C06FE173E002C063E872E038
:1006400088E796E00E94361E8CEE95E00E94DD0D54
:1006500020E030E046E953E460910A0170910B011B
:1006600080910C0190910D010E941F22AB01BC01F1
:100670008CE695E00E94570B67E373E088E796E00D
:100680000E94361E8CE695E00E94BC0BAB01BC01BB
:1006900022E030E088E796E00E94002065E473E005
:1006A00088E796E00C94361ECF93DF93CDB7DEB784
:1006B000C454D1090FB6F894DEBF0FBECDBF88E792
:1006C00096E00E940A1C8433910509F4A8C07CF5C9
:1006D0008D32910509F44DC06CF48A32910509F40C
:1006E000FFC18B9709F013C280910401909105011D
:1006F000019647C08033910509F478C08233910593
:1007000009F4C8C08F9709F002C268EB73E088E76C
:1007100096E00E94361E80910E0190910F019195F6
:100720008195910990930F0180930E01F0C1883358
:10073000910509F490C03CF48633910509F47AC020
:100740000CF4CDC02DC08736910509F4F3C0823773
:10075000910509F4F2C0C99709F0D9C180916405E7
:10076000909165052091040130910501820F931F3E
:1007700038C08091040190910501019711F481E046
:1007800090E0909305018093040167E573E088E7AA
:1007900096E00E94291E60910401709105011AC023
:1007A00080916405909165052091040130910501C7
:1007B000821B930B97FF15C010926505109264057C
:1007C00062E673E088E796E00E94291E6091640566
:1007D000709165054AE050E088E796E00E94E91EC6
:1007E00096C19093650580936405EACF10926505E4
:1007F0001092640562E673E088E796E00E94291E85
:1008000060916405709165054AE050E088E796E0E4
:100810000E94E91E0E943A010E941E0178C1809147
:100820000601909107012091040130910501820F8A
:10083000931F0AC080910601909107012091040145
:1008400030910501821B930B909307018093060161
:100850000E9478015CC16FE673E088E796E00E9431
:10086000291E4AE050E060E070E088E796E00E94D0
:10087000E11E6CE773E088E796E00E94291E8091F4
:100880000801909109012091040130910501820F26
:10089000931F1EC06FE673E088E796E00E94291E52
:1008A0004AE050E060E070E088E796E00E94E11ED8
:1008B0006CE773E088E796E00E94291E80910801AA
:1008C000909109012091040130910501821B930B45
:1008D00090930901809308010E94990118C16FE764
:1008E00073E088E796E00E94361E8CE695E00E9451
:1008F000700C20E030E040E752E460910A01709112
:100900000B0180910C0190910D010E941F22AB01FF
:10091000BC018CE695E00E94E60B48EC50E060E0FC
:1009200070E08CE695E00E94390A8CE695E00E9422
:10093000650CEDC00E94BA01EAC083E194E09A839D
:10094000898380916E058B8380916F0590917005EE
:10095000A0917105B09172058C839D83AE83BF8396
:100960008091730590917405A0917505B0917605FD
:1009700088879987AA87BB878091770590917805AA
:10098000A0917905B0917A058C879D87AE87BF8746
:1009900080917B0590917C05A0917D05B0917E05AD
:1009A000888B998BAA8BBB8B80917F05909180055A
:1009B000A0918105B09182058C8B9D8BAE8BBF8BF6
:1009C0008091830590918405A0918505B09186055D
:1009D000888F998FAA8FBB8F80918705909188050A
:1009E000A0918905B0918A058C8F9D8FAE8FBF8FA6
:1009F00080918B0590918C05A0918D05B0918E050D
:100A000088A399A3AAA3BBA380918F059091900579
:100A1000A0919105B09192058CA39DA3AEA3BFA315
:100A20008091930590919405A0919505B0919605BC
:100A300088A799A7AAA7BBA7809197059091980529
:100A40009DA78CA7809199058EA780919A058FA765
:100A500080919B0590919C0599AB88AB80919D05F9
:100A600090919E059BAB8AAB80919F059091A005CC
:100A7000A091A105B091A2058CAB9DABAEABBFAB75
:100A80008091A3059091A405A091A505B091A6051C
:100A900088AF99AFAAAFBBAF8091A7059091A80589
:100AA000A091A905B091AA058CAF9DAFAEAFBFAF25
:100AB0008091AB059091AC05A091AD05B091AE05CC
:100AC00024968CAF9DAFAEAFBFAF24978091AF059A
:100AD00025968FAF2597CE0101960E94D40117C0AD
:100AE0008CEE95E00E94BA0E6AE973E088E796E022
:100AF0000E94291E60E08CEE95E00E944F0FAB0132
:100B0000BC0122E030E088E796E00E94002080915E
:100B10006405909165051816190634F520910E01AB
:100B200030910F01829FB001839F700D929F700DD5
:100B30001124882777FD8095982F0E945D212091B0
:100B40000A0130910B0140910C0150910D010E945E
:100B50001F22AB01BC018CE695E00E94E60B8CE6FF
:100B600095E00E94350804C08CE695E00E94E507F8
:100B7000CC5BDF4F0FB6F894DEBF0FBECDBFDF9169
:100B8000CF910895CF93CFB7F89480910E0681113D
:100B900027C0EAEBF1E08491E6EAF1E09491E82FD6
:100BA000F0E0EE0FFF1FE852FE4FA591B4918C913B
:100BB000892321F461E08AE00E94901B61E08AE0D1
:100BC0000E94571B8CB580618CBD8CB580648CBD38
:100BD00061E08DE00E94571B61E08BE00E94571B93
:100BE00080910E068F5F80930E06CFBFCF91089540
:100BF0009FB7F89480910E06882319F08150809356
:100C00000E0680910E06811105C08CB58F7B8CBDC0
:100C100010920D069FBF08950F931F93DC0112964B
:100C20000C9110E009301105C0F5F801EC5CFF4FA4
:100C30000C943423DC01ED91FC910084F185E02DCE
:100C400029C0DC01ED91FC910284F385E02D22C0E6
:100C5000DC01ED91FC910484F585E02D1BC0DC01E5
:100C6000ED91FC910684F785E02D14C0DC01ED9137
:100C7000FC910088F189E02D0DC0DC01ED91FC9123
:100C80000288F389E02D06C0DC01ED91FC91048817
:100C9000F589E02D1F910F9109941F910F910895EF
:100CA000CF93DF93EC01CB01BA0126E030E040E0C6
:100CB00050E00E941523623071058105910559F1BC
:100CC0008CF46115710581059105F1F061307105B4
:100CD00081059105C1F5E881F9810480F581E02D58
:100CE00065E02DC0643071058105910511F1D4F0E6
:100CF000653071058105910531F5E881F981048040
:100D0000F581E02D66E01BC0E881F9810480F58162
:100D1000E02D64E014C0E881F9810480F581E02DC4
:100D200061E00DC0E881F9810480F581E02D63E088
:100D300006C0E881F9810480F581E02D62E0CE01F2
:100D4000DF91CF910994DF91CF910895CF93DF93F5
:100D5000477055276627772741505109DC01CD910F
:100D6000DC914730510528F4435C5F4FFA010C9445
:100D70003423EC81FD8161E01BC0EC81FD8165E0E5
:100D800017C0EC81FD8164E013C0EC81FD8166E059
:100D90000FC0EC81FD8162E00BC0EC81FD816AE057
:100DA00007C0EC81FD8168E003C0EC81FD8169E052
:100DB000DF91CF910994AF92BF92DF92EF92FF92B1
:100DC0000F931F93CF93DF931F92CDB7DEB78C01A4
:100DD000FC018281843041F0883031F0833031F081
:100DE000863021F022E003C024E001C023E0A12CE2
:100DF000B12CE62EF12CDD24D394F801EA0DFB1D75
:100E0000C7010A2C02C0959587950A94E2F767817D
:100E100080FD6D25838129830E94901BFFEFAF1A0F
:100E2000BF0A2981A21648F30F90DF91CF911F913D
:100E30000F91FF90EF90DF90BF90AF9008950F93C8
:100E40001F93CF93DF93EC01E881F9810480F58152
:100E5000E02D8C010D5B1F4FD8018C91882311F080
:100E600062E001C060E0CE010995E881F98104806B
:100E7000F581E02DD8018C91882311F063E001C049
:100E800061E0CE0109958BA59CA50E94E81AE88136
:100E9000F9810480F581E02DD8018C91882311F02F
:100EA00062E001C060E0CE01DF91CF911F910F9110
:100EB0000994CF93DF93EC0120E030E0A9016B8926
:100EC0007C898D899E890E941B2218161CF4EFA52F
:100ED000F8A902C0E9A9FAA9DF91CF91099443705A
:100EE000552766277727DC01ED91FC910480F58179
:100EF000E02D423051056105710571F04330510517
:100F00006105710559F0413051056105710511F018
:100F100062E005C063E003C061E001C060E00994E5
:100F2000CF93DF93EC01CB01BA0123E030E040E046
:100F300050E00E941523613071058105910581F013
:100F4000623071058105910591F0672B682B692B43
:100F5000C1F4E881F9810480F581E02D64E00DC0E1
:100F6000E881F9810480F581E02D61E006C0E88127
:100F7000F9810480F581E02D62E0CE01DF91CF910F
:100F80000994DF91CF9108954370552766277727FD
:100F9000DC01ED91FC910480F581E02D423051059A
:100FA0006105710571F0433051056105710559F016
:100FB000413051056105710511F065E005C066E03D
:100FC00003C06AE001C069E00994CF93DF93EC01AC
:100FD0008A818823A1F0E881F9810480F581E02DE0
:100FE00060E0CE0109958EA58F3F49F061E00E9437
:100FF000571B6DA58EA5DF91CF910C94901BDF91AF
:10100000CF910895CF93DF93EC018A81882351F12A
:1010100061E08B810E94571B61E08C810E94571B0D
:101020008A81843011F0883039F461E08D810E942A
:10103000571B61E08E8106C0833011F0863021F4A9
:1010400061E08D810E94571B8EA58F3F59F061E0B2
:101050000E94571B6DA581E068278EA5DF91CF9177
:101060000C94901BDF91CF910895CF92DF92EF9275
:10107000FF920F931F93CF93DF93EC014BA15CA1E1
:101080006DA17EA1452B462B472B09F44DC00E9434
:101090008B1A6B017C010FA118A529A53AA54BA1BC
:1010A0005CA16DA17EA1400F511F621F731F4017ED
:1010B00051076207730730F0C416D506E606F70637
:1010C00058F405C0C416D506E606F70668F1C01642
:1010D000D106E206F30640F5FE01ED5BFF4F80818D
:1010E0004B855C856D857E85882329F04F5F5F4F3A
:1010F0006F4F7F4F04C041505109610971094B87FF
:101100005C876D877E87E881F9814B855C856D857D
:101110007E850680F781E02DCE010995CFA2D8A665
:10112000E9A6FAA681E001C080E0DF91CF911F918E
:101130000F91FF90EF90DF90CF9008950F931F9342
:10114000FC016785708981899289038514852585CD
:101150003685601B710B820B930B1F910F910895C5
:101160002F923F924F925F926F927F928F929F92B7
:10117000AF92BF92CF92DF92EF92FF920F931F93A5
:10118000CF93DF9300D000D0CDB7DEB71C01FC01B8
:1011900087849088A188B28883859485A585B68543
:1011A000881A990AAA0ABB0A63897489858996896B
:1011B0009B01AC010E941F226B017C01F101638D38
:1011C000748D858D968D9B01AC010E945A209B01E8
:1011D000AC01C701B6010E94C2200E942A218114DD
:1011E0009104A104B104A1F4623071058105910557
:1011F0000CF07CC0F10113A214A215A216A2138A4E
:10120000148A158A168A13AA14AA15AA16AA03C143
:10121000F10103A914A925A936A9ED5BFF4F181404
:1012200019041A041B04FCF4101611061206130606
:101230004CF4681579058A059B054CF52081211130
:1012400055C025C0011511052105310509F44EC011
:10125000681579058A059B050CF048C080818823B4
:1012600009F444C037C01016110612061306F4F430
:10127000002711279801081919092A093B09601745
:101280007107820793071CF42081222379F19B01C7
:10129000AC0188279927DC01821B930BA40BB50BAB
:1012A000F10183AB94ABA5ABB6AB20C00115110522
:1012B00021053105D9F0CC24DD247601C818D908E0
:1012C000EA08FB086C157D058E059F057CF480817E
:1012D00081110CC030952095109501951F4F2F4F0F
:1012E0003F4FF10103AB14AB25AB36ABF101C3A803
:1012F000D4A8E5A8F6A881010D5B1F4FC114D10445
:10130000E104F10491F487A990ADA1ADB2AD83AF32
:1013100094AFA5AFB6AF81E0181419041A041B04EA
:101320000CF080E0F801808340C0F10183AC94AC04
:10133000A5ACB6ACA5019401C501B4010E945A2028
:101340002B013C01C701B6010E945D2120E030E085
:1013500040E850E40E941F2220E030E040E85FE3D4
:101360000E945A209B01AC01C301B2010E94C2201D
:101370009B01AC01C501B4010E9459202B013C0125
:10138000F101FF9680809180A280B3809401A50135
:101390000E941B22181614F442015301C401D50106
:1013A000F10183AF94AFA5AFB6AFFFEFCF1ADF0A5D
:1013B000EF0AFF0AF101C3AAD4AAE5AAF6AA23AD4F
:1013C00034AD45AD56ADCA01B90129833A834B838B
:1013D0005C830E942F21F10163A374A385A396A3CC
:1013E00029813A814B815C8160E074E284E799E471
:1013F0000E94C220F101638B748B858B968BF80160
:101400002081211108C0DC01CB01B058F101838B90
:10141000948BA58BB68B0F900F900F900F90DF9150
:10142000CF911F910F91FF90EF90DF90CF90BF90E1
:10143000AF909F908F907F906F905F904F903F9074
:101440002F9008950F931F93FC0107851089218920
:101450003289041715072607370741F04787508B55
:10146000618B728B1F910F910C94B0081F910F919B
:1014700008950F931F93FC010385148525853685F8
:10148000400F511F621F731F1F910F910C94220A6E
:101490004F925F926F927F928F929F92AF92BF9284
:1014A000CF92DF92EF92FF92CF93DF93EC016A012C
:1014B0007B018B8C9C8CAD8CBE8C9A01AB01C501E1
:1014C000B4010E94BE20882309F449C06BA97CA9FD
:1014D0008DA99EA90E945D212B013C01A7019601C7
:1014E000C501B4010E94C2209B01AC01C301B2013D
:1014F0000E941F220E942A216BAB7CAB8DAB9EAB5E
:10150000A701960160E070E080E090E40E94C220B4
:101510000E94862226E53EE04DE25FE30E941F2204
:1015200020E034E244E759E40E941F226FAB78AF19
:1015300089AF9AAFCB8EDC8EED8EFE8ECE01DF9121
:10154000CF91FF90EF90DF90CF90BF90AF909F90A2
:101550008F907F906F905F904F900C94B008DF91C8
:10156000CF91FF90EF90DF90CF90BF90AF909F9082
:101570008F907F906F905F904F9008950F931F937F
:10158000CF93DF93EC010E943508882319F0CE0138
:101590000E94B00820E030E0A9016B897C898D8928
:1015A0009E890E94BE20811110C081E00F8518899C
:1015B00029893A894B855C856D857E8504171507D9
:1015C0002607370719F480E001C081E0DF91CF9151
:1015D0001F910F9108958F929F92AF92BF92CF92D9
:1015E000EF920F93CF93DF93EC0183E194E0998323
:1015F00088836A831B861C861D861E861F86188A22
:10160000198A1A8A1B8A1C8A1D8A1E8A812C912C8F
:1016100080E8A82E8FE3B82E8F8A988EA98EBA8E76
:101620001B8E1C8E1D8E1E8E8F8E98A2A9A2BAA212
:101630001BA21CA21DA21EA281E090E09CA78BA76A
:101640008FEF8EA71FA218A619A61AA64B832C836C
:101650000D83EE821BAA1CAA1DAA1EAA1FAA18AEE1
:1016600019AE1AAE1BAE1CAE1DAE1EAEFE01FF962D
:1016700080829182A282B382349610821F82188661
:1016800019861A86CC2019F0CE010E94020840E08B
:1016900050E060E87FE3CE01DF91CF910F91EF90B2
:1016A000CF90BF90AF909F908F900C94480ACF92AC
:1016B000DF92EF92FF920F931F93CF93DF93EC0192
:1016C0006A017B019A01AB016F89788D898D9A8DB2
:1016D0000E94BE20882309F446C0CF8AD88EE98EA6
:1016E000FA8E8E01015C1F4FA701960160E074E243
:1016F00084E799E40E94C220F801608371838283A9
:1017000093838BA99CA9ADA9BEA9181619061A0620
:101710001B064CF56B897C898D899E899B01AC01E8
:101720000E941F226B017C016B8D7C8D8D8D9E8DA7
:101730009B01AC010E945A209B01AC01C701B6017C
:101740000E94C2200E942A216BAB7CAB8DAB9EAB6A
:10175000CE01DF91CF911F910F91FF90EF90DF901D
:10176000CF900C94B008DF91CF911F910F91FF9013
:10177000EF90DF90CF900895FC016789708D818D87
:10178000928D0895CF92DF92EF92FF92CF93DF93E5
:10179000EC016A017B0120E030E0A901C701B6013C
:1017A0000E94BE20882359F0B701A601CE01DF9127
:1017B000CF91FF90EF90DF90CF900C94480ADF918B
:1017C000CF91FF90EF90DF90CF9008956F927F922E
:1017D0008F929F92AF92BF92CF92DF92EF92FF9241
:1017E0000F931F93CF93DF93EC013A018B012B8969
:1017F0003C894D895E89B301C8010E94BE208823BF
:1018000009F454C0CF88D88CE98CFA8C4601570172
:10181000B7FAB094B7F8B094A5019401B301C80128
:101820000E94BE2087FD0BC0A7019601B301C8012D
:101830000E941B2218162CF43601870102C03401C5
:10184000850120E030E0A901B301C8010E94BE205B
:10185000811105C01BA21CA21DA21EA221C09301C2
:10186000A80160E074E284E799E40E94C2209F77B7
:101870000E942F216BA37CA38DA39EA37E0183E4F2
:10188000E80EF11CDD24D39420E030E0A901B3017F
:10189000C8010E941B2218160CF0D12CF701D0822F
:1018A000C301D8018B8B9C8BAD8BBE8BDF91CF910D
:1018B0001F910F91FF90EF90DF90CF90BF90AF906E
:1018C0009F908F907F906F900895CF93DF93EC015E
:1018D000CE010E94BE0A8111FBCFDF91CF91089506
:1018E0008F929F92AF92BF92CF92DF92EF92FF9230
:1018F000CF93DF93EC018B889C88AD88BE8820E075
:1019000030E0A901C501B4010E94BE20882309F47A
:101910003FC0A5019401C501B4010E941F226B01C3
:101920007C016B8D7C8D8D8D9E8D9B01AC010E9409
:101930005A209B01AC01C701B6010E94C2200E943F
:101940002A216B017C018FEFC81AD80AE80AF80A2D
:1019500020E030E0A901C501B4010E941B22181645
:101960001CF4B701A60107C044275527BA014C193A
:101970005D096E097F09CE01DF91CF91FF90EF9055
:10198000DF90CF90BF90AF909F908F900C94390ACA
:10199000DF91CF91FF90EF90DF90CF90BF90AF900D
:1019A0009F908F9008950895FC0183ED9CE0928BA9
:1019B000818B768365831482108289E0818381E044
:1019C000828383830895CF93DF93EB0167E0CE0199
:1019D0000E946E1191E02F81821390E0892FDF9198
:1019E000CF910895EF92FF920F931F93CF93DF93C0
:1019F000EC018B01E42E8D819E810E94A110F12CBF
:101A0000B8018D819E810E94D610882359F0FE1066
:101A100006C0B801CE010E94E30C811104C0F3940A
:101A2000EF1470F780E0DF91CF911F910F91FF903D
:101A3000EF900895CF92DF92EF92FF920F931F9352
:101A4000CF93DF9300D0CDB7DEB76C01F42EE52E37
:101A5000FC018581968169837A830E947A0F69816E
:101A60007A81882311F1F601858196810E94751093
:101A700040E06EEBF601858196810E9417100F2DD4
:101A80001E2D89E0F82EF601858196810E9459105D
:101A9000F80181938F01FA94B1F7F601858196815F
:101AA0000E947A0F91E0813009F090E0892F0F9029
:101AB0000F90DF91CF911F910F91FF90EF90DF90EA
:101AC000CF900895CF93DF93EA010E941A0D8823E7
:101AD00051F068E0CE010E946E1191E028858213DA
:101AE00090E0892F01C080E0DF91CF910895EF92BF
:101AF000FF921F93CF93DF9300D0CDB7DEB77C0169
:101B0000FC018581968169837A830E947A0F6981BD
:101B10007A81F701858196810E94751040E064EB1F
:101B2000F701858196810E941710F70185819681C2
:101B30000E94EC0F182FF701858196810E947A0F81
:101B400081E0111180E00F900F90DF91CF911F91F4
:101B5000FF90EF900895CF93DF93CDB7DEB729972D
:101B60000FB6F894DEBF0FBECDBFFB012081203140
:101B7000D1F0AE014F5F5F4F0E94620D882379F074
:101B80008D818F3351F020F48F3149F489E00CC0FE
:101B90008F3539F08F3739F002C08AE005C080E018
:101BA00003C08BE001C08CE029960FB6F894DEBF2D
:101BB0000FBECDBFDF91CF910895EF92FF920F93AB
:101BC0001F93CF93DF93CDB7DEB728970FB6F89466
:101BD000DEBF0FBECDBF8C01FC01858196810E94C6
:101BE000A110F8011482FF24F394BE016F5F7F4FB0
:101BF000F801858196810E94D610882381F1BE016B
:101C00006F5F7F4FC8010E94E30C882371F3F801D6
:101C10008081811108C0BE016F5F7F4FC8010E94A3
:101C2000770D811119C0F801E180BE016F5F7F4F10
:101C3000C8010E94AB0D8E1518F4F801818106C011
:101C4000BE016F5F7F4FC8010E94AB0DF801818319
:101C500084818F5F8483C9CFF801F082E4CF289616
:101C60000FB6F894DEBF0FBECDBFDF91CF911F91AD
:101C70000F91FF90EF900895CF93DF93CDB7DEB72C
:101C800029970FB6F894DEBF0FBECDBFAE014F5FF0
:101C90005F4F0E941A0D81E09981911101C080E08F
:101CA00029960FB6F894DEBF0FBECDBFDF91CF915E
:101CB00008958F929F92AF92BF92CF92DF92EF9250
:101CC000FF920F931F93CF93DF93EC018A0169502A
:101CD000633048F4E62FF0E0EE0FFF1FE75DFB4FA7
:101CE0008080918004C09EEE892E92E0992E01158D
:101CF000110501F18B818823E9F0888181111AC0D7
:101D00000E947F1A6B017C01AA2497FCA094BA2C34
:101D1000B801CE010E943C0E81111FC00E947F1AA3
:101D2000681979098A099B096C157D058E059F053F
:101D3000A0F4EECFB401882777FD8095982FDF912E
:101D4000CF911F910F91FF90EF90DF90CF90BF90B8
:101D5000AF909F908F900C94AE1ADF91CF911F910E
:101D60000F91FF90EF90DF90CF90BF90AF909F903A
:101D70008F900895CF93DF93EC018D819E810E9417
:101D80007A0F8D819E810E949D10488164E48D812F
:101D90009E810E9417108A81882341F040E050E024
:101DA0006981CE01DF91CF910C94590EDF91CF91D3
:101DB0000895FA01208148E0249F90011124818137
:101DC00090E0982F8827990F990F990F282B392B7E
:101DD000DB018C918031C1F4678170E08681AB01B9
:101DE000481B5109CA019695982F88279795879582
:101DF0000E94DF2260517109207F53E0220F331FC0
:101E00005A95E1F7260F371FC9010895EF92FF9207
:101E10000F931F93CF93DF93CDB7DEB729970FB6FC
:101E2000F894DEBF0FBECDBF8C017B01AE014F5FCA
:101E30005F4F0E94620D882341F0AE014F5F5F4FFC
:101E4000B701C8010E94D90E02C080E894EE29961D
:101E50000FB6F894DEBF0FBECDBFDF91CF911F91BB
:101E60000F91FF90EF900895813824EE920774F05F
:101E7000BC01882777FD8095982F0E945D2120E086
:101E800030E040E05CE30E941F22089560E070E0D3
:101E90008EEF92EC08950E94060F0C94340F0F936E
:101EA0001F93CF93DF93CDB7DEB728970FB6F89483
:101EB000DEBF0FBECDBF8C01462FBE016F5F7F4FCF
:101EC0000E94F20C882339F0BE016F5F7F4FC8017A
:101ED0000E944B0F04C060E070E08EEF92EC2896F9
:101EE0000FB6F894DEBF0FBECDBFDF91CF911F912B
:101EF0000F910895FF920F931F93CF93DF93FC01EF
:101F00000081C181D281F8948981F02EF0948F21D3
:101F1000898378941DE7115029F182E090E00E94B6
:101F2000E81A88818023B9F3F8948A818F218A8303
:101F30008981802B8983789480EE91E00E94E81A51
:101F4000F89489818F21898386E490E00E94E81AC1
:101F50008881802311E009F010E078948AE991E00B
:101F60000E94E81A812FDF91CF911F910F91FF906E
:101F700008951F93CF93DF93FC011081C181D2811B
:101F8000912F909560FF12C0F8948A8189238A83EB
:101F90008981812B89838AE090E00E94E81A8A81F6
:101FA000812B8A83789487E390E011C0F8948A812A
:101FB00089238A838981812B898381E490E00E942F
:101FC000E81A8A81812B8A83789485E090E0DF91FA
:101FD000CF911F910C94E81A0F931F93CF93DF9327
:101FE000FC011081C181D281F8948981812B898380
:101FF0008A81012F009580238A8383E090E00E94EC
:10200000E81A8981802389838AE090E00E94E81A97
:10201000C881789485E390E00E94E81A1C2381E04F
:1020200009F480E0DF91CF911F910F910895CF9235
:10203000DF92EF92FF920F931F93CF93DF931F9244
:10204000CDB7DEB76C01E62E08E010E0FF24F39474
:1020500061E09F2D9E2109F460E0C60149830E9442
:10206000B90FFF0C0150110949810115110581F7C4
:10207000411115C0F894D6011196ED91FC9112977B
:1020800091818C918095892381831196ED91FC91AA
:10209000129792818C9180958923828378940F90F6
:1020A000DF91CF911F910F91FF90EF90DF90CF9034
:1020B0000895EF92FF920F931F93CF93DF938C01BC
:1020C000C8E0D0E0F12CEE24E394C8010E94EC0FAC
:1020D0008111FE28EE0C2197C1F78F2DDF91CF9152
:1020E0001F910F91FF90EF900895CF92DF92FF9292
:1020F0000F931F93CF93DF931F92CDB7DEB78C0161
:10210000F62E40E065E579830E941710CF2C798187
:10211000D72E88E0F82EF60161916F0140E0C801EA
:102120000E941710FA94B9F70F90DF91CF911F9189
:102130000F91FF90DF90CF90089540E06CEC0C94ED
:102140001710FC0113861586148627E030E0DF01A6
:10215000A20FB31F13961C922115310519F02150BF
:102160003109F5CF08951F93CF93DF93EC01162F1C
:1021700060E0812F0E94571B612F70E0FB01E45645
:10218000FE4FE491E883FB01E055FE4FE491F0E05F
:10219000EE0FFF1FEC53FE4F859194919A83898334
:1021A000CE01DF91CF911F910C94A110AF92BF92FD
:1021B000CF92DF92EF92FF920F931F93CF93DF9313
:1021C0001F92CDB7DEB75C01E62ED72EFC018585C8
:1021D00081115DC0C5010E947A0F811105C0F50112
:1021E0001386158614866EC040E060EFC5010E941C
:1021F000171001E0F12CC12C11E0C5010E94EC0F79
:10220000682FC50169830E94EC0F6981613019F460
:102210008130B9F433C02F2D30E068131BC0F501B5
:102220008385181730F4E20FF31F8381802349F46C
:1022300002C0181731F060E0193058F4F501148726
:1022400008C0F501EF0DF11D8381802B838361E0D0
:1022500009C0C12EF501E20FF31F8381902F9095E5
:1022600089238383C5010E94B90F1F5F000F11F4FA
:10227000F39401E0F7E0FF1508F0BFCF113438F018
:10228000F501C386C11018C081E0858715C0F5012E
:1022900013861586148680E0EE2DFD2D20E030E0BB
:1022A000D501A20FB31F13969C9191932F5F3F4FBF
:1022B00028303105A9F706C0F5018381882339F359
:1022C00081E0EACF0F90DF91CF911F910F91FF90A6
:1022D000EF90DF90CF90BF90AF900895DC0180E049
:1022E000615038F0ED91E827F0E0E857FF4F849116
:1022F000F7CF089581E00895FC0165830895FC01FE
:1023000064830895FC0162870895FC016387089542
:10231000FC01648708954095FC0125854223462BE6
:1023200045870895FC0186810895FC018781089501
:10233000FC0180850895FC018185089580E0089561
:10234000CF93DF93EC01E881F9810280F381E02DE6
:10235000CE010995811103C00E94E519F4CFDF91E8
:10236000CF910895CF93DF93EC018A819B810397EE
:1023700019F40E94E519F9CF81E0DF91CF9108951A
:102380008F929F92AF92BF92CF92DF92EF92FF9285
:10239000CF93DF93EC016B010E947F1A4B015C012C
:1023A000E12CF12C0E947F1A681979098A099B098E
:1023B0006C157D058E059F0560F4E881F98102802A
:1023C000F381E02DCE010995811105C00E94E51928
:1023D000E9CF80E001C081E0DF91CF91FF90EF90E5
:1023E000DF90CF90BF90AF909F908F9008958F9285
:1023F0009F92AF92BF92CF92DF92EF92FF92CF93D4
:10240000DF93EC016B010E947F1A4B015C01E12C10
:10241000F12C0E947F1A681979098A099B096C15A9
:102420007D058E059F0538F48A819B81039729F4E9
:102430000E94E519EECF80E001C081E0DF91CF91ED
:10244000FF90EF90DF90CF90BF90AF909F908F90D4
:102450000895FC0183E394E09183808313821282C8
:102460008FEF84838287838714861586108A178668
:10247000128A118A148A138A089508950895FC0116
:10248000758364830895FC01778366830895FC0156
:10249000738362830895FC018FE594E091838083C8
:1024A00073836283558344833783268308956EBD87
:1024B00000000DB407FEFDCF8EB508958CB5806881
:1024C0008CBD08958CB58F778CBD08950C94F8055C
:1024D0002CB5982F93702C7F922B9CBD9DB582FBC1
:1024E000882780F99E7F982B9DBD0895CF93FC018E
:1024F000268137812115310579F02130310541F0F0
:102500002230310539F02330310531F49CE005C02B
:1025100094E003C098E001C090E08CB5837F892BE4
:102520008CBD84819581019719F48CB5806202C0BD
:102530008CB58F7D8CBD828193810197843091050C
:1025400028F4FC01E159FB4FC08101C0C1E08C2F90
:102550000E9468120E94C2058C2FCF910C946812C1
:10256000CF93DF93EC010E944B1287E794E09983AD
:102570008883DF91CF91089520E030E040E050E083
:1025800060E070E08FE096E00C94B012CF93DF93A0
:10259000EC018D899E89DC01ED91FC910680F7812B
:1025A000E02D099561E08F890E94571B61E08F89BA
:1025B0000E94901B64E670E080E090E00E94AE1AFA
:1025C00081E0DF91CF910895EF92FF920F931F93D7
:1025D000CF93DF931F92CDB7DEB77C018A01698369
:1025E0000E9429128BE894E0F70191838083168B77
:1025F000058B6981678B0F90DF91CF911F910F91B0
:10260000FF90EF9008950F931F93CF93DF93EC010A
:10261000062F1FB7F89460E08F890E94901B8D8968
:102620009E89DC01ED91FC910190F081E02D602FFD
:102630000995082F61E08F890E94901B1FBF802F92
:10264000DF91CF911F910F9108950F931F93CF9317
:10265000DF93EC01062F1FB7F89460E08F890E948A
:10266000901B8D899E89DC01ED91FC910190F08198
:10267000E02D602F09958D899E89DC01ED91FC91FB
:102680000190F081E02D60E00995082F61E08F89CD
:102690000E94901B1FBF802FDF91CF911F910F9140
:1026A0000895EF92FF920F931F93CF93DF931F92A2
:1026B000CDB7DEB77C01162F0FB7F89460E0DC01D0
:1026C00057968C9149830E94901BF70185899689C2
:1026D000DC01ED91FC910190F081E02D612F0995D5
:1026E000182FF70185899689DC01ED91FC91019005
:1026F000F081E02D4981642F099561E0F701878918
:102700000E94901B0FBF812F0F90DF91CF911F91DF
:102710000F91FF90EF900895AF92BF92DF92EF92EA
:10272000FF920F931F93CF93DF9300D0CDB7DEB707
:102730008C01D62EF22EEFB6F89460E0DC015796AD
:102740008C9149835A830E94901BF8018589968950
:10275000DC01ED91FC910190F081E02D6D2D09954A
:10276000D82E4981A42E5A81B52EF40EFA1479F090
:10277000F80185899689DC01ED91FC910190F08149
:10278000E02D60E00995F50181935F01EFCF61E0F5
:10279000D80157968C910E94901BEFBE8D2D0F9003
:1027A0000F90DF91CF911F910F91FF90EF90DF90ED
:1027B000BF90AF900895AF92BF92DF92EF92FF92D9
:1027C0000F931F93CF93DF9300D0CDB7DEB78C016B
:1027D000D62EF22EEFB6F89460E0DC0157968C917D
:1027E00049835A830E94901BF80185899689DC01F0
:1027F000ED91FC910190F081E02D6D2D0995D82E81
:102800004981A42E5A81B52EF40EFA1471F0F80104
:1028100085899689D5016D915D01DC01ED91FC9171
:102820000190F081E02D0995F0CF61E0F8018789F2
:102830000E94901BEFBE8D2D0F900F90DF91CF91D6
:102840001F910F91FF90EF90DF90BF90AF90089590
:10285000CF93DF93EC018F890E94C61B21E0892B67
:1028600009F420E08A8D8227DF91CF910895FC0141
:10287000808D0C94901BFC01238D6227818D0C941C
:10288000901BCF93DF93EC018A819B81029761F0CB
:1028900060E0CE010E943B1460E0CE010E9437143C
:1028A00082E090E09B838A83DF91CF910895862F09
:1028B00086958695887098E0980F891749F0E82FDB
:1028C000F0E0ED54FB4F2081621719F08F5FF5CFD8
:1028D00080E008951F93CF93DF93EC010E942814AA
:1028E000882319F09F8D9F5F9F8F9E8D891771F0B0
:1028F00098A1903518F42BE030E002C02DE130E0D3
:1029000098A1290F311D28A38E8F03C088A18C5E4A
:1029100088A388A1803A08F46EC08AA19BA19695ED
:1029200087959BA38AA38F8D853028F08AA19BA1D0
:1029300098609BA38AA388A1805A88A31F8E89A12F
:10294000882309F446C08CA18F5F8CA38C3008F4D7
:1029500052C06AA17BA16F73CE010E945714182F39
:102960006AA17BA146E0769567954A95E1F7CE018D
:102970000E94571490E1199F90011124822BBE01EF
:1029800067597F4FFB019081DE01A859BF4F992302
:10299000B1F0FB01908121E0290F2083AE01490FA6
:1029A000511DFA0185A3FB0190818C91981778F055
:1029B00019A281E08C8FCE010E94411408C08C9333
:1029C0009C91973090F09C91943478F4E2CF1CA2C3
:1029D00012C08AA19BA188339B4069F481E089A33E
:1029E0001CA2C759DF4F188206C019A28F8598898B
:1029F0000196988B8F87DF91CF911F910895CF9289
:102A0000DF92EF92FF920F931F93CF93DF93EC012E
:102A10008C0104591F4FF801808191E0980F908339
:102A2000811136C06E01FAE6CF0ED11CF60180810D
:102A3000EF56FF4F9081891748F0CE010E94411454
:102A40008B899C8901969C8B8B8B22C0FE01E80FA1
:102A5000F11DE359FF4F608170E07E01FBE6EF0E50
:102A6000F11CF701808191E0980F908302C0759569
:102A700067958A95E2F76170CE010E943714F701DD
:102A80008081863028F01082F60180818F5F8083FC
:102A9000F8018081883008F01082DF91CF911F917A
:102AA0000F91FF90EF90DF90CF900895FC0122816D
:102AB00033812430310511F40C946A14FC01228115
:102AC00033812330310511F40C94FF1408951F92C3
:102AD0000F920FB60F9211242F933F934F935F9352
:102AE0006F937F938F939F93AF93BF93EF93FF93D6
:102AF00080911706909118060E945615FF91EF914C
:102B0000BF91AF919F918F917F916F915F914F9105
:102B10003F912F910F900FBE0F901F9018958CE151
:102B20000895DF92EF92FF920F931F93CF93DF935D
:102B3000EC017B018A01E881F9810280F381E02DBB
:102B40000995D82E8823F1F0E114F104C9F001159C
:102B50001105B1F08A8D282F30E023503109F8019A
:102B6000408150E04217530714F084508083F801ED
:102B7000408150E0BE01615E7F4FC7010E946D231E
:102B80001BAE1A8E8D2DDF91CF911F910F91FF906B
:102B9000EF90DF9008951F93CF93DF93EC01162FF2
:102BA000642FA9010E94E41287EC94E09983888342
:102BB0001BAE8CE0888F198FDF91CF911F91089504
:102BC0006F7160620C945113CF93DF93EC018A8193
:102BD0009B81019771F040E060E0CE010E94E0151A
:102BE00060E0898D0E94901B81E090E09B838A8346
:102BF00001C080E0DF91CF9108956FEF0C94031333
:102C000061EE0C94031362EE0C940313462F4F777E
:102C100065E00E94E01581E00895440F551F46705D
:102C20006230710511F4406204C06130710509F42D
:102C30004860416066E00E94E01581E00895CF930E
:102C4000DF93EC018A819B81029769F0488D60E0F7
:102C5000CE010E94E01560E0898D0E94901B82E009
:102C600090E09B838A83DF91CF9108951F93CF9348
:102C7000DF93EC018A819B810397D1F4CE010E94FE
:102C8000FD15182F807319F40E94E519F7CF14FF72
:102C900003C0CE010E940016CE010E941F1640E321
:102CA00067E0CE010E94E01515FB882780F901C07E
:102CB00080E0DF91CF911F910895CF93DF93EC01D6
:102CC0008A819B81049771F0488D436060E0CE015A
:102CD0000E94E01561E0898D0E94901B84E090E0E5
:102CE0009B838A83DF91CF910895CF93DF93EC018B
:102CF0008A819B810397B9F060E0898D0E94901BC7
:102D000040E367E0CE010E94E015488D426060E03C
:102D1000CE010E94E01561E0898D0E94901B83E046
:102D200090E09B838A83DF91CF9108951F93CF9387
:102D3000DF93EC01142F4D3100F58A858B8F8B8545
:102D40008C8F8C858D8F8D858E8F50E0CE014F9628
:102D50000E946D2324E0210FAE01455E5F4F60EBC2
:102D6000CE010E94DB13CE010E9475168B899C89CF
:102D700001969C8B8B8B81E001C080E0DF91CF912D
:102D80001F910895FC01828D8430C8F0838D868365
:102D9000848D8783858D8087868D8187858181114C
:102DA00007C096818481981719F086818F3F39F486
:102DB000818992890196928B818B81E083AF0895FE
:102DC0000F931F93CF93DF93EC011BAD111134C010
:102DD0002A813B812330310581F10E945D1667E134
:102DE000CE010E94251380FD28C060E6CE010E941E
:102DF0002513082F813248F0CE010E9403161BAE26
:102E00001A8ECE010E941F1618C040E467E0CE0162
:102E10000E94E015202FAE01455E5F4F61E6CE01B6
:102E20000E948C130A8FCE010E94C2168BAD88239C
:102E300019F0CE010E941F161BAD812FDF91CF919B
:102E40001F910F9108951F93CF93DF93EC018D890C
:102E50009E89DC01ED91FC910684F785E02D60E010
:102E600070E00995CE010E94C612182F811102C090
:102E700010E044C061E0898D0E94571B60E0898D9D
:102E80000E94901B40E767E0CE010E94E0154FE3EF
:102E90006CE1CE010E94E01545E06DE1CE010E949B
:102EA000E0156DE1CE010E9425138530A9F4CE0115
:102EB0000E941F16CE010E940016CE010E9403162A
:102EC00062E0CE010E94061643E050E061E070E04F
:102ED000CE010E940D1612C043E760E5CE010E94AC
:102EE000511345E06DE1CE010E94E0156DE1CE0188
:102EF0000E942513853009F0BBCFD9CF812FDF91F8
:102F0000CF911F910895603292E079073CF06136CD
:102F100099E079072CF060E679E002C060E272E0A7
:102F20006850710990E09B01220F232F221F330B61
:102F3000FC01EE0FFF1FE80FF91FE35EF94F21833D
:102F4000660F6095628308951F920F920FB60F92DD
:102F500011242F933F934F935F936F937F938F939E
:102F60009F93AF93BF93EF93FF9380911B068F5F67
:102F700080931B0620911B0680911C0690E0FC01AB
:102F8000EE0FFF1FE80FF91FE35EF94F8181281351
:102F90000EC080911C0690E0FC01EE0FFF1FE80FB1
:102FA000F91FE35EF94F82818093B20060C02091E7
:102FB0001B0680911C0690E0FC01EE0FFF1FE80F3E
:102FC000F91FE35EF94F8181821708F050C08091AC
:102FD0001C0690E0FC01EE0FFF1FE80FF91FE35EF7
:102FE000F94F808185FF0FC080911C0690E0FC01A5
:102FF000EE0FFF1FE80FF91FE35EF94F808160E0DD
:103000008F710E94901B80911C068F5F80931C061D
:1030100010921B061092B20080911C06882309F1C1
:1030200080911C068930E8F480911C0690E0FC0138
:10303000EE0FFF1FE80FF91FE35EF94F808185FF58
:1030400016C080911C0690E0FC01EE0FFF1FE80FF8
:10305000F91FE35EF94F808161E08F710E94901B40
:1030600006C080911C06893010F010921C06FF915A
:10307000EF91BF91AF919F918F917F916F915F91F0
:103080004F913F912F910F900FBE0F901F90189569
:1030900020911A06283030F42F5F20931A06FC0185
:1030A00020830895FC01108208950F931F93CF93FE
:1030B000DF93EC01062F8091190681111FC011E0EA
:1030C0006CED75E0812F0E9483171F5F1930C1F7E7
:1030D0008EE380931E0610921C0610921B0610921F
:1030E00070001092B00082E08093B1001092B200A4
:1030F00091E097BB90937000909319068881882384
:1031000099F061E0802F0E94571B288130E0F9017F
:10311000EE0FFF1FE20FF31FE35EF94F0F71908177
:10312000907E902B906290838881DF91CF911F9148
:103130000F9108954F925F926F927F92AF92BF92DC
:10314000CF92DF92EF92FF920F931F93CF93DF9373
:10315000EC01603282E078070CF040C077FD06C0D9
:10316000653B71052CF064EB70E002C060E070E03C
:10317000898128E830E0281B310987FD3395220F2B
:10318000331F220F331F5901CC24B7FCC094DC2C11
:10319000882777FD8095982F2A8148E552E0421BC9
:1031A000510927FD5395440F551F440F551F2A0100
:1031B000662457FC6094762C7F926F925F924F92B8
:1031C00014EBE12EF12C00E010E020E030E0A9014A
:1031D0000E9412200F900F900F900F9088819FEF08
:1031E000980F983080F4DF91CF911F910F91FF904D
:1031F000EF90DF90CF90BF90AF907F906F905F90F7
:103200004F900C948317DF91CF911F910F91FF90F6
:10321000EF90DF90CF90BF90AF907F906F905F90D6
:103220004F900895FC01808190E0FC01EE0FFF1F9C
:10323000E80FF91FE35EF94F808185FB882780F94D
:1032400008950F931F93CF93DF93EC01662359F0FA
:103250000E947F1A69837A838B839C83DF91CF914D
:103260001F910F9108950E947F1A09811A812B8165
:103270003C81601B710B820B930B623371058105DE
:10328000910530F763E070E080E090E00E94AE1AB4
:10329000EACF60E00C942119FC0113AA14AA15AA24
:1032A00016AA1182128213821482411551056105FA
:1032B000710521F0CB01BA010C94AE1A0895FB01FF
:1032C000BA01A901DC01D296FC93EE93D19726E0D6
:1032D000CF010C94D41C1F93CF93DF93EC01162FD6
:1032E0006FEE74E089A99AA90E94291E4AE050E075
:1032F000612F89A99AA90E940E1F66EF74E089A91F
:103300009AA90E94291E62E370E080E090E0DF91BC
:10331000CF911F910C94AE1A1F93CF93DF93EC01C2
:10332000162F8D81882389F189A99AA9DC01ED9155
:10333000FC910480F581E02D0995892BA9F307C044
:103340002637310519F12835310509F41D8289A97F
:103350009AA9DC01ED91FC910480F581E02D09959D
:103360001816190694F489A99AA9DC01ED91FC912B
:103370000680F781E02D09959C013327233631051E
:10338000F9F6612FCE010E946B1983E6DF91CF9190
:103390001F9108950F931F93CF93DF931F92CDB783
:1033A000DEB78C01662349F081E0F801858360E097
:1033B000C80149830E948C194981F80145830F9007
:1033C000DF91CF911F910F910895089508951F9255
:1033D0000F920FB60F9211242F933F934F935F9349
:1033E0006F937F938F939F93AF93BF93EF93FF93CD
:1033F000E0911101F09112010995FF91EF91BF91B8
:10340000AF919F918F917F916F915F914F913F917C
:103410002F910F900FBE0F901F9018951F920F9233
:103420000FB60F9211242F933F934F935F936F9397
:103430007F938F939F93AF93BF93EF93FF93E0910D
:103440001301F09114010995FF91EF91BF91AF9194
:103450009F918F917F916F915F914F913F912F91AC
:103460000F900FBE0F901F9018951F920F920FB6DE
:103470000F9211242F933F938F939F93AF93BF93FA
:103480008091700690917106A0917206B0917306BA
:1034900030916F0623E0230F2D3720F40196A11DF4
:1034A000B11D05C026E8230F0296A11DB11D209372
:1034B0006F068093700690937106A0937206B09386
:1034C00073068091740690917506A0917606B0916E
:1034D00077060196A11DB11D809374069093750621
:1034E000A0937606B0937706BF91AF919F918F918D
:1034F0003F912F910F900FBE0F901F9018952FB7EF
:10350000F8946091700670917106809172069091A6
:1035100073062FBF08953FB7F89480917406909179
:103520007506A0917606B091770626B5A89B05C0D2
:103530002F3F19F00196A11DB11D3FBF6627782FBF
:10354000892F9A2F620F711D811D911D42E0660F18
:10355000771F881F991F4A95D1F708958F929F92E0
:10356000AF92BF92CF92DF92EF92FF926B017C01FC
:103570000E948B1A4B015C01C114D104E104F104D7
:10358000F1F00E94E5190E948B1A681979098A09DD
:103590009B09683E73408105910570F321E0C21AD2
:1035A000D108E108F10888EE880E83E0981EA11C7E
:1035B000B11CC114D104E104F10429F7DDCFFF905F
:1035C000EF90DF90CF90BF90AF909F908F90089535
:1035D0008230910538F0880F991F880F991F059741
:1035E0000197F1F70895789484B5826084BD84B51D
:1035F000816084BD85B5826085BD85B5816085BDEE
:10360000EEE6F0E0808181608083E1E8F0E0108206
:10361000808182608083808181608083E0E8F0E047
:10362000808181608083E1EBF0E080818460808331
:10363000E0EBF0E0808181608083EAE7F0E0808168
:1036400084608083808182608083808181608083C8
:103650008081806880831092C1000895833081F05A
:1036600028F4813099F08230A1F008958730A9F0D4
:103670008830B9F08430D1F4809180008F7D03C010
:10368000809180008F7780938000089584B58F7734
:1036900002C084B58F7D84BD08958091B0008F777E
:1036A00003C08091B0008F7D8093B0000895CF93C8
:1036B000DF9390E0FC01E456FE4F2491FC01E055BD
:1036C000FE4F8491882349F190E0880F991FFC01F7
:1036D000E852FE4FA591B49182539E4FFC01C591D3
:1036E000D4919FB7611108C0F8948C9120958223E2
:1036F0008C93888182230AC0623051F4F8948C91B3
:10370000322F309583238C938881822B888304C049
:10371000F8948C91822B8C939FBFDF91CF91089569
:103720000F931F93CF93DF931F92CDB7DEB7282F50
:1037300030E0F901E857FE4F8491F901E456FE4F5D
:103740001491F901E055FE4F04910023C9F088233C
:1037500021F069830E942E1B6981E02FF0E0EE0FBB
:10376000FF1FE253FE4FA591B4919FB7F8948C913F
:10377000611103C01095812301C0812B8C939FBFE1
:103780000F90DF91CF911F910F910895CF93DF9309
:10379000282F30E0F901E857FE4F8491F901E456F3
:1037A000FE4FD491F901E055FE4FC491CC2391F026
:1037B00081110E942E1BEC2FF0E0EE0FFF1FEC5347
:1037C000FE4FA591B4912C912D2381E090E021F43E
:1037D00080E002C080E090E0DF91CF9108950E94E8
:1037E0006823FC01818D228D90E0805C9F4F821BBD
:1037F00091098F7399270895FC01918D828D9817F7
:1038000031F0828DE80FF11D858D90E008958FEFE6
:103810009FEF0895FC01918D828D981761F0828D44
:10382000DF01A80FB11D5D968C91928D9F5F9F73F4
:10383000928F90E008958FEF9FEF08958EE89DE1BD
:10384000892B49F080E090E0892B29F00E948E1DA1
:1038500081110C9400000895FC01848DDF01A80FF4
:10386000B11DA35ABF4F2C91848D90E001968F73A8
:103870009927848FA689B7892C93A089B1898C91C7
:1038800080648C93938D848D981306C00288F3898D
:10389000E02D80818F7D80830895CF93DF93EC01AD
:1038A000888D8823C9F0EA89FB89808185FD05C060
:1038B000A889B9898C9186FD0FC00FB607FCF5CF9A
:1038C000808185FFF2CFA889B9898C9185FFEDCFE2
:1038D000CE010E942C1CE7CFDF91CF910895CF92AB
:1038E000DF92FF920F931F93CF93DF931F92CDB779
:1038F000DEB76C0181E0D60158968C9358975B96A1
:103900009C915B975C968C915C97981307C050963E
:10391000ED91FC915197808185FD2EC0F601038DBC
:1039200010E00F5F1F4F0F731127F02EF601848DEB
:10393000F81211C00FB607FCF9CFD6015096ED91E1
:10394000FC915197808185FFF1CFC60169830E9468
:103950002C1C6981EBCF838DE80FF11DE35AFF4FDB
:103960006083D6015B960C935B975296ED91FC9128
:103970005397808180620CC0D6015696ED91FC91E0
:10398000579760835096ED91FC91519780818064A8
:10399000808381E090E00F90DF91CF911F910F9194
:1039A000FF90DF90CF900895BF92CF92DF92EF9279
:1039B000FF92CF93DF93EC016A017B01B22EE8897D
:1039C000F98982E08083411581EE58076105710510
:1039D000A1F060E079E08DE390E0A70196010E94FC
:1039E000F3222150310941095109569547953795E0
:1039F0002795211580E1380798F0E889F989108228
:103A000060E874E88EE190E0A70196010E94F3223D
:103A10002150310941095109569547953795279508
:103A2000EC85FD853083EE85FF852083188EEC893B
:103A3000FD89B082EA89FB89808180618083EA897F
:103A4000FB89808188608083EA89FB898081806826
:103A50008083EA89FB8980818F7D8083DF91CF918C
:103A6000FF90EF90DF90CF90BF9008951F920F923C
:103A70000FB60F9211242F938F939F93EF93FF9381
:103A8000E0918806F09189068081E0918E06F091A0
:103A90008F0682FD12C09081809191068F5F8F7397
:103AA00020919206821751F0E0919106F0E0E858DB
:103AB000F94F958F8093910601C08081FF91EF911E
:103AC0009F918F912F910F900FBE0F901F9018957F
:103AD0001F920F920FB60F9211242F933F934F9383
:103AE0005F936F937F938F939F93AF93BF93EF9366
:103AF000FF9388E796E00E942C1CFF91EF91BF9105
:103B0000AF919F918F917F916F915F914F913F9175
:103B10002F910F900FBE0F901F90189588E796E099
:103B20000E94F11B21E0892B09F420E0822F0895E7
:103B300010927B0610927A0688EE93E0A0E0B0E047
:103B400080937C0690937D06A0937E06B0937F06BB
:103B50008BE495E0909379068093780685EC90E06D
:103B6000909385068093840684EC90E0909387067A
:103B70008093860680EC90E0909389068093880677
:103B800081EC90E090938B0680938A0682EC90E023
:103B900090938D0680938C0686EC90E090938F0630
:103BA00080938E06109291061092920610929306C0
:103BB00010929406089508950E94F31A0E94DB1D46
:103BC0000E946B02CEE1DCE10E9454032097E1F3F6
:103BD0000E941E1CF9CFCF92DF92EF92FF920F93BB
:103BE0001F93CF93DF937C016A01EB0100E010E0AB
:103BF0000C151D0571F06991D701ED91FC910190B3
:103C0000F081E02DC7010995892B19F00F5F1F4F37
:103C1000EFCFC801DF91CF911F910F91FF90EF90EF
:103C2000DF90CF9008956115710581F0DB010D9053
:103C30000020E9F7AD0141505109461B570BDC014B
:103C4000ED91FC910280F381E02D099480E090E0F9
:103C500008950C94131EDC01ED91FC910190F0810C
:103C6000E02D09946CEF74E00C94131E0F931F93D6
:103C7000CF93DF93EC010E94131E8C01CE010E94B2
:103C8000321E800F911FDF91CF911F910F910895E8
:103C90008F929F92AF92BF92DF92EF92FF920F931B
:103CA0001F93CF93DF93CDB7DEB7A1970FB6F894EC
:103CB000DEBF0FBECDBF7C01F42FD52ECB0119A2E4
:103CC000223008F42AE08E010F5D1F4F822E912CC6
:103CD000A12CB12C6F2F7D2DA50194010E94F32200
:103CE000F22FD32ECA01015011096A3014F4E0E317
:103CF00001C0E7E3E60FD801EC93232B242B252BFF
:103D000049F7B801C7010E94131EA1960FB6F89497
:103D1000DEBF0FBECDBFDF91CF911F910F91FF90FE
:103D2000EF90DF90BF90AF909F908F900895CF92CB
:103D3000DF92EF92FF920F931F93CF93DF93EC01EB
:103D40006A017B012115310579F4E881F98101903F
:103D5000F081E02D642FDF91CF911F910F91FF90A3
:103D6000EF90DF90CF9009942A303105E9F477FF86
:103D70001AC06DE20E942B1E8C0144275527BA0100
:103D80004C195D096E097F092AE0CE010E94481E88
:103D9000800F911FDF91CF911F910F91FF90EF90B6
:103DA000DF90CF9008952AE0B701A601CE01DF9100
:103DB000CF911F910F91FF90EF90DF90CF900C94D7
:103DC000481E9A01AB01662757FD6095762F0C942B
:103DD000971E0F931F93CF93DF93EC019A01AB01D2
:103DE000662757FD6095762F0E94971E8C01CE01A5
:103DF0000E94321E800F911FDF91CF911F910F9172
:103E000008952115310541F4DC01ED91FC910190FB
:103E1000F081E02D642F09940C94481E9A01462FDE
:103E200050E060E070E00C94011F4F925F926F923F
:103E30007F928F929F92AF92BF92CF92DF92EF923A
:103E4000FF920F931F93CF93DF93EC016A017B01E5
:103E5000B22E9A01AB01C701B6010E94C422882389
:103E600019F067E575E027C026013701E89477F877
:103E70002FEF3FEF4FE75FE7C301B2010E94C4227B
:103E800081110DC02FEF3FEF4FE75FE7C301B20194
:103E90000E94BE2018161CF46BE575E00CC02FEFD5
:103EA0003FEF4FE75FE4C701B6010E941B221816DF
:103EB000ACF46FE575E0CE01DF91CF911F910F91CA
:103EC000FF90EF90DF90CF90BF90AF909F908F903A
:103ED0007F906F905F904F900C94131E2FEF3FEFE9
:103EE0004FE75FECC701B6010E94BE2087FDE1CF1E
:103EF00020E030E0A901C701B6010E94BE2087FF83
:103F00000AC06DE2CE010E942B1E8C01F7FAF094DC
:103F1000F7F8F09402C000E010E0A12C60E070E03F
:103F200080E09FE3AB1441F020E030E040E251E458
:103F30000E94C220A394F6CF9B01AC01C701B60139
:103F40000E945A206B017C010E942F212B013C0111
:103F50000E945B219B01AC01C701B6010E94592060
:103F60006B017C012AE0B301A201CE010E94481E30
:103F7000080F191FBB2039F060E672E0CE010E94E5
:103F8000131E080F191F7B2C772041F120E030E031
:103F900040E251E4C701B6010E941F226B017C017F
:103FA0000E942A214B01AA2497FCA094BA2C2AE053
:103FB00030E0B501A401CE010E94971E080F191F21
:103FC000C501B4010E945D219B01AC01C701B6018E
:103FD0000E9459206B017C017A94D6CFC801DF91F1
:103FE000CF911F910F91FF90EF90DF90CF90BF90F6
:103FF000AF909F908F907F906F905F904F900895BB
:104000000F931F93CF93DF93EC010E94151F8C0138
:10401000CE010E94321E800F911FDF91CF911F9120
:104020000F9108954F925F926F927F92AF92BF92DD
:10403000CF92DF92EF92FF920F931F93CF93DF9374
:10404000CDB7DEB729013A01621B730B840B950BC8
:1040500029893A894B895C892A193B094C095D09F0
:10406000298B3A8B4B8B5C8B9B01AC0169897A89DC
:104070008B899C890E94CF22E418F508060917094C
:10408000A80197010E9415232A0D3B1D4C1D5D1DA3
:10409000CA01B901DF91CF911F910F91FF90EF906D
:1040A000DF90CF90BF90AF907F906F905F904F90D8
:1040B00008955058BB27AA270ED083C174D130F081
:1040C00079D120F031F49F3F11F41EF469C10EF450
:1040D000E095E7FB51C1E92F85D180F3BA1762075C
:1040E00073078407950718F071F49EF59DC10EF4CF
:1040F000E0950B2EBA2FA02D0B01B90190010C01F8
:10410000CA01A0011124FF27591B99F0593F50F40F
:10411000503E68F11A16F040A22F232F342F442767
:10412000585FF3CF469537952795A795F04053955F
:10413000C9F77EF41F16BA0B620B730B840BBAF02F
:104140009150A1F0FF0FBB1F661F771F881FC2F79A
:104150000EC0BA0F621F731F841F48F487957795AE
:104160006795B795F7959E3F08F0B3CF9395880F65
:1041700008F09927EE0F979587950895D9D008F400
:1041800081E008950CD01DC115D140F00CD130F064
:1041900021F45F3F19F0F0C0511147C101C122D194
:1041A00098F39923C9F35523B1F3951B550BBB27FE
:1041B000AA2762177307840738F09F5F5F4F220FAB
:1041C000331F441FAA1FA9F333D00E2E3AF0E0E8A4
:1041D00030D091505040E695001CCAF729D0FE2FF0
:1041E00027D0660F771F881FBB1F26173707480782
:1041F000AB07B0E809F0BB0B802DBF01FF27935838
:104200005F4F2AF09E3F510568F0B6C00EC15F3F78
:10421000ECF3983EDCF3869577956795B795F7951F
:104220009F5FC9F7880F911D9695879597F9089517
:10423000E1E0660F771F881FBB1F621773078407B3
:10424000BA0720F0621B730B840BBA0BEE1F88F7C2
:10425000E095089504D06894B111E7C00895CAD0DC
:1042600088F09F5790F0B92F9927B751A0F0D1F05F
:10427000660F771F881F991F1AF0BA95C9F712C0E9
:10428000B13081F0D1D0B1E00895CEC0672F782F42
:104290008827B85F39F0B93FCCF386957795679555
:1042A000B395D9F73EF490958095709561957F4FC1
:1042B0008F4F9F4F0895E89409C097FB3EF4909567
:1042C0008095709561957F4F8F4F9F4F9923A9F0EF
:1042D000F92F96E9BB279395F6958795779567957E
:1042E000B795F111F8CFFAF4BB0F11F460FF1BC0C2
:1042F0006F5F7F4F8F4F9F4F16C0882311F096E955
:1043000011C0772321F09EE8872F762F05C0662302
:1043100071F096E8862F70E060E02AF09A95660FBB
:10432000771F881FDAF7880F9695879597F9089574
:10433000990F0008550FAA0BE0E8FEEF16161706B6
:10434000E807F907C0F012161306E407F50798F01E
:10435000621B730B840B950B39F40A2661F0232B37
:10436000242B252B21F408950A2609F4A140A695B3
:104370008FEF811D811D089597F99F6780E870E098
:1043800060E008959F3F31F0915020F48795779534
:104390006795B795880F911D9695879597F908951C
:1043A0009FEF80EC089500240A941616170618064D
:1043B0000906089500240A94121613061406050629
:1043C0000895092E0394000C11F4882352F0BB0FBA
:1043D00040F4BF2B11F460FF04C06F5F7F4F8F4F1D
:1043E0009F4F089557FD9058440F551F59F05F3F58
:1043F00071F04795880F97FB991F61F09F3F79F007
:1044000087950895121613061406551FF2CF469588
:10441000F1DF08C0161617061806991FF1CF86950A
:104420007105610508940895E894BB2766277727EE
:10443000CB0197F908957CDF08F48FEF08950BD036
:10444000C0CFB1DF28F0B6DF18F0952309F094CF84
:10445000A7CF1124EACFC6DFA0F3959FD1F3950F24
:1044600050E0551F629FF001729FBB27F00DB11DF8
:10447000639FAA27F00DB11DAA1F649F6627B00D88
:10448000A11D661F829F2227B00DA11D621F739F71
:10449000B00DA11D621F839FA00D611D221F749F7F
:1044A0003327A00D611D231F849F600D211D822FC6
:1044B000762F6A2F11249F5750408AF0E1F088230D
:1044C0004AF0EE0FFF1FBB1F661F771F881F91501A
:1044D0005040A9F79E3F510570F04ECFA6CF5F3FE9
:1044E000ECF3983EDCF3869577956795B795F7954D
:1044F000E7959F5FC1F7FE2B880F911D96958795D5
:1045000097F9089511F40EF44BCF3CCF73DFD0F33D
:104510009923D9F3CEF39F57550B87FF39D0002449
:10452000A0E640EA900180585695979528F4805C63
:10453000660F771F881F20F026173707480730F4CB
:10454000621B730B840B202931294A2BA6951794E3
:104550000794202531254A2758F7660F771F881FB3
:1045600020F026173707480730F4620B730B840BD3
:10457000200D311D411DA09581F7B901842F91585F
:10458000880F969587950895D3DE880B990B08952B
:1045900091505040660F771F881FD2F70895DB01B6
:1045A0008F939F930E943A23BF91AF91A29F800D5A
:1045B000911DA39F900DB29F900D1124089597FB1C
:1045C000072E16F4009407D077FD09D00E944523EA
:1045D00007FC05D03EF4909581959F4F0895709506
:1045E00061957F4F0895A1E21A2EAA1BBB1BFD0106
:1045F0000DC0AA1FBB1FEE1FFF1FA217B307E407C2
:10460000F50720F0A21BB30BE40BF50B661F771F19
:10461000881F991F1A9469F76095709580959095F9
:104620009B01AC01BD01CF010895052E97FB1EF43F
:1046300000940E942C2357FD07D00E94F32207FC10
:1046400003D04EF40C942C23509540953095219531
:104650003F4F4F4F5F4F08959095809570956195AE
:104660007F4F8F4F9F4F0895EE0FFF1F0590F491DE
:10467000E02D09940E945923A59F900DB49F900DA1
:10468000A49F800D911D11240895AA1BBB1B51E10D
:1046900007C0AA1FBB1FA617B70710F0A61BB70BB2
:1046A000881F991F5A95A9F780959095BC01CD0157
:1046B0000895A29FB001B39FC001A39F700D811DFB
:1046C0001124911DB29F700D811D1124911D08951B
:1046D00081E090E0F8940C947623FB01DC0102C0A9
:1046E00001900D9241505040D8F70895F894FFCFB3
:1046F0000100000005003C005A00555555400100DE
:1047000001E619E61941726D20746F206E657574AB
:1047100072616C20706F736974696F6E00477261AB
:104720006262657220746F206E65757472616C20B0
:10473000706F736974696F6E004772616262696E4F
:1047400067004772616262657220746F20706F73D8
:104750006974696F6E200041726D20746F20706FF4
:10476000736974696F6E2000526573657474696E45
:104770006720736572766F0054657374696E672085
:1047800052504D3A00202D4D61782073706565645C
:104790003A2000202D416363656C65726174696F16
:1047A0006E3A20005374617274696E67206E65788A
:1047B0007420697465726174696F6E20696E20314E
:1047C000207365636F6E64004E6F70652E2E2E2E03
:1047D00054657374206973206F7665722E2052655C
:1047E00073756D696E6720696E2033207365636F22
:1047F0006E647300564D4450565F317C315F564DA8
:104800004450560D0A00426F6F74696E6720417202
:1048100069656C3A20436F6D6D656E63696E6720E4
:10482000736574757000202D5374617274696E67BE
:1048300020417269656C0A53657269616C20706F02
:104840007274206973206F70656E20403936303085
:104850002E00202D496E6974696174696E6720723B
:104860006164696F3A0900696E6974206661696CF8
:104870006564004F4B00202D53657474696E67208A
:10488000726164696F206368616E6E656C3A0900DD
:104890007365744368616E6E656C206661696C65F2
:1048A00064004368616E6E656C203100202D536595
:1048B0007474696E6720726164696F2073657474C3
:1048C000696E67733A0900736574524620666169C0
:1048D0006C656400324D6270732C203064426D0050
:1048E000202D417474616368696E672041726D2088
:1048F000536572766F3A0900736572766F41726D17
:1049000020617474616368206661696C656400731A
:104910006572766F477261622061747461636820AA
:104920006661696C656400202D4D61782073706547
:1049300065643A0900417269656C2068617320738F
:10494000746172746564005374657073697A653A52
:1049500020004D6F746F7273706565643A2000615A
:10496000726D206F66667365743A200020200074B3
:1049700075726E696E67206F6E6520726F756E64FA
:104980002040363052504D3A200054656D706572AB
:10499000617475726520666F72204465766963651F
:1049A00020312069733A2000537769746863696E17
:1049B00067206D6F746F7220646972656374696FCC
:1049C0006E0053656E64696E6720746F206E726648
:1049D00032345F73657276657200676F742072653A
:1049E000706C793A200072656376206661696C6547
:1049F000640048656C6C6F20576F726C6421000016
:104A0000000000E5070208DB060C0659071F076FC8
:104A1000079007C4075006A6065E00BC0077010099
:104A20000000007A11EF1BEF1BEF1BEF1BA011B270
:104A300011F711C0117F118211851188118B117C22
:104A4000119211951198119B119E1100000000EF19
:104A50001B3D123E12EF1BEF1B3F12431247120584
:104A60000004040000000057125E12621276126603
:104A7000123F124312471200000000C612EF1BEF54
:104A80001BEF1BEF1BA011B211F711C0117F118298
:104A900011851188118B117C119211951198119B20
:104AA000119E110D0E131516191A1C232526292ADD
:104AB0002C3234000000002317E016911596168F53
:104AC00015A0113616F711C0117F118211851188BA
:104AD000118B117C119211951198119B11E41556AF
:104AE0004D4450435F005F564D4450430D0A00450E
:104AF00072726F723A20417474656D707420746FB5
:104B000020736574206120726561642D6F6E6C790D
:104B1000207661726961626C65206F7220646174D5
:104B2000612074797065206E6F7420737570706F7A
:104B3000727465640D0A00000000006F1CEB1DF12B
:104B40001B0A1CFC1B4D1C6E616E00696E66006FBB
:044B50007666000085
:00000001FF
