:100000000C94EE000C9486120C94AD120C94160114
:100010000C9416010C9416010C9416010C94160104
:100020000C9416010C9452100C9416010C94150E9D
:100030000C9416010C9416010C9416010C941601E4
:100040000C94D4120C9416010C94D5150C9407162C
:100050000C9416010C9416010C9416010C941601C4
:100060000C9416010C9416013F0445044F045D04E2
:100070005F0465046F047D048F049104005EBCE29C
:10008000613FDD83C29C7E20A3FD1F419DC3217F74
:10009000FCA2401E5F01E3BD3E6082DC237D9FC168
:1000A000421CFEA0E1BF5D0380DE3C62BEE0025C5C
:1000B000DF81633D7C22C09E1D43A1FF4618FAA448
:1000C00027799BC584DA3866E5BB5907DB85673934
:1000D000BAE406581947A5FB7826C49A653BD98728
:1000E000045AB8E6A7F91B45C6987A24F8A6441A1C
:1000F00099C7257B3A6486D85B05E7B98CD2306E08
:10010000EDB3510F4E10F2AC2F7193CD114FADF3F3
:10011000702ECC92D38D6F31B2EC0E50AFF1134DE7
:10012000CE90722C6D33D18F0C52B0EE326C8ED0DB
:10013000530DEFB1F0AE4C1291CF2D73CA947628C7
:10014000ABF517490856B4EA6937D58B5709EBB5B3
:1001500036688AD495CB2977F4AA4816E9B7550BA7
:1001600088D6346A2B7597C94A14F6A8742AC8969B
:10017000154BA9F7B6E80A54D7896B35000000087B
:10018000000201000003040700000000000000005E
:10019000010204081020408001020408102001021E
:1001A00004081020040404040404040402020202EB
:1001B00002020303030303030000000023002600E0
:1001C000290000000000250028002B00000000008E
:1001D000240027002A0092016A0B371611241FBE43
:1001E000CFEFD8E0DEBFCDBF13E0A0E0B1E0E0E8A4
:1001F000F7E302C005900D92A239B107D9F725E0C7
:10020000A2E9B3E001C01D92A931B207E1F711E004
:10021000CCEDD1E004C02297FE010E947E1BC63DBA
:10022000D107C9F70E947B160C94BE1B0C940000EA
:1002300080910C01882331F061E171E08CE794E05A
:100240000E94D5166AE570E08DEE93E00E94481199
:100250008AE590E0909309018093080164E670E0DC
:1002600080E090E00C944D1380910C01882331F0D4
:1002700069E271E08CE794E00E94D5166CE370E0CF
:100280008AEE93E00E9448118CE390E0909307017E
:100290008093060168EC70E080E090E00C944D13D0
:1002A000CF93DF93EC0180910C01882369F06EE419
:1002B00071E08CE794E00E94C8164AE050E0BE016D
:1002C0008CE794E00E948817BE018AEE93E00E94BA
:1002D000481164E670E080E090E0DF91CF910C94EB
:1002E0004D13CF93DF93EC0180910C01882369F0CB
:1002F00063E671E08CE794E00E94C8164AE050E0A3
:10030000BE018CE794E00E948817BE018DEE93E059
:100310000E94481164E670E080E090E0DF91CF91A8
:100320000C944D13EF92FF920F931F936EE083E0B6
:1003300094E00E94610963E074E080EF93E00E9422
:1003400082058DEE93E00E94F6108AEE93E00E9403
:10035000F61023E134E04AE068E08EEA93E00E9480
:10036000790E87E0E82EF12C06E010E024E030E082
:1003700042E050E068EC70E084E993E00E94710391
:100380001F910F91FF90EF90089540ED57E060E0CE
:1003900070E08CE394E00E94EB1120E835E240E04D
:1003A00050E06CE774E08CE394E00E94FE118CE373
:1003B00094E00E94E81164E771E080916D049091EF
:1003C0006E040E94C8166AE070E080E090E00E942F
:1003D0004D1341E060E08CE394E00E94691226E056
:1003E00040E855E260E070E08CE794E00E9473150D
:1003F0008EEA93E00E94D10F811106C066E871E099
:100400008CE794E00E94D51661E08EEA93E00E94AA
:10041000B40E811106C062E971E08CE794E00E949D
:10042000D51643E050E061E070E08EEA93E00E9470
:10043000BB0E811106C064EA71E08CE794E00E9473
:10044000D51663E070E08DEE93E00E94031165E045
:1004500070E08AEE93E00E94031180EF93E00C9429
:100460008B068CE794E00E94A9148433910509F46B
:10047000BCC0C4F58D32910509F457C06CF48A32C2
:10048000910509F4FDC08B9709F011C18091040119
:1004900090910501019651C08033910509F48CC0FB
:1004A000C29709F004C169EC71E08CE794E00E9406
:1004B000C8164AE050E060E070E08CE794E00E94EB
:1004C000801766ED71E08CE794E00E94C816809179
:1004D0000801909109012091040130910501821BCE
:1004E000930BB2C087339105B9F194F4853391052C
:1004F00009F4B1C0C69709F0DAC080910601909165
:1005000007012091040130910501821B930B77C0F4
:100510008933910509F441C00CF478C08237910504
:1005200009F0C5C06DEE71E098C080910401909112
:100530000501019711F481E090E09093050180930B
:10054000040161EB71E08CE794E00E94C8166091B1
:100550000401709105011AC0809192039091930358
:100560002091040130910501821B930B97FF1FC05E
:1005700010929303109292036CEB71E08CE794E07D
:100580000E94C81660919203709193034AE050E074
:100590008CE794E00E9488178AC080919203909122
:1005A00093032091040130910501820F931F9093D2
:1005B000930380939203E0CF1092930310929203DF
:1005C0006CEB71E08CE794E00E94C8166091920396
:1005D000709193034AE050E08CE794E00E94881702
:1005E0000E9434010E94180162C08091060190911E
:1005F00007012091040130910501820F931F909310
:100600000701809306010E94500151C069EC71E01E
:100610008CE794E00E94C8164AE050E060E070E089
:100620008CE794E00E94801766ED71E08CE794E01F
:100630000E94C8168091080190910901209104013F
:1006400030910501820F931F909309018093080157
:100650000E9471012CC069ED71E08CE794E00E946A
:10066000D5164CE350E060E070E084E993E00E942E
:10067000A70368EC70E084E993E00E94AE0417C021
:1006800080EF93E00E9468076BEF71E08CE794E0E5
:100690000E94C81660E080EF93E00E94FD07AB0166
:1006A000BC0122E030E08CE794E00E949F1840916A
:1006B0009203509193031416150694F4662757FD80
:1006C0006095762F84E993E00E94A70360910A0168
:1006D00070910B01660F771F84E993E00C94AE04D0
:1006E0000895EF92FF920F931F93CF93DF93EC0146
:1006F000842F1B861A86198218821E8A1F8A188EDA
:10070000198E7F836E834C875D873F872E87198B79
:10071000088BFB8AEA8A61E00E94F61361E08E850D
:100720000E94F61361E088890E94F61361E08A89CD
:100730000E94F6131D8A1C8A84E090E099878887BE
:10074000DF91CF911F910F91FF90EF900895CF927D
:10075000DF92EF92FF92CF93DF93EC016A017B016E
:100760002E813F81442737FD4095542F60E077E884
:1007700083E993E00E945D1BCA01B901A7019601BC
:100780000E945D1B2A833B834C835D83DF91CF9165
:10079000FF90EF90DF90CF9008950F931F93CF932A
:1007A000DF93EC018B01888599850297F9F461301C
:1007B000710571F02CF461157105C1F460E009C098
:1007C0006230710559F06330710581F460E007C053
:1007D00061E08C850E942F1461E005C061E08C858A
:1007E0000E942F1460E08E850E942F1488859985C1
:1007F0000497B9F501301105B1F04CF4011511055C
:1008000081F561E08C850E942F1460E011C00230F8
:100810001105B9F00330110521F561E08C850E94C6
:100820002F1460E013C060E08C850E942F1461E0FB
:100830008E850E942F1461E088890E942F1460E049
:100840000DC060E08C850E942F1461E08E850E94AF
:100850002F1460E088890E942F1461E08A890E9429
:100860002F1488859985059709F073C00A30110502
:1008700008F06FC0F801EC5CFF4F0C947C1B60E04B
:100880008C850E942F1461E051C060E08C850E942D
:100890002F1461E08E850E942F1460E04BC060E051
:1008A0008C850E942F1461E08E850E942F1460E0D9
:1008B00088890E942F1461E041C060E001C061E0BE
:1008C0008C850E942F1461E005C061E08C850E9438
:1008D0002F1460E08E850E942F1460E009C061E053
:1008E0008C850E942F1460E08E850E942F1461E099
:1008F00088890E942F1461E00DC061E08C850E9400
:100900002F1460E08E850E942F1461E088890E9478
:100910002F1460E08A890E942F1460E013C061E008
:1009200001C060E08C850E942F1460E08E850E94DB
:100930002F1461E088890E942F1460E08A890E9448
:100940002F1461E08C89DF91CF911F910F910C944E
:100950002F14DF91CF911F910F9108954F925F92C5
:100960006F927F928F929F92AF92BF92CF92DF92BF
:10097000EF92FF920F931F93CF93DF93EC01CB0184
:1009800077FF04C088279927861B970B6C011616E2
:1009900017062CF481E090E09983888304C0672BCC
:1009A00011F01982188204E010E08AE0E82EF12CA0
:1009B000C114D10409F44AC00E942A138E889F886A
:1009C000A88CB98C2B013C01481859086A087B088F
:1009D0008A809B80AC80BD80481459046A047B04E3
:1009E00058F36E8B7F8B888F998F288139818A8508
:1009F0009B852130310559F401969B878A872E818A
:100A00003F818217930771F41B861A860BC0892BCE
:100A100021F48E819F819B878A878A859B85019798
:100A20009B878A8781E0C81AD108288539858A85FD
:100A30009B852530310511F4B70101C0B8010E9432
:100A4000271BBC01CE010E94CD03B2CFDF91CF9115
:100A50001F910F91FF90EF90DF90CF90BF90AF90DC
:100A60009F908F907F906F905F904F900895CF935D
:100A7000CFB7F89480911204811127C0EEEAF1E01B
:100A80008491EAE9F1E09491E82FF0E0EE0FFF1F86
:100A9000E453FE4FA591B4918C91892321F461E038
:100AA0008AE00E942F1461E08AE00E94F6138CB560
:100AB00080618CBD8CB580648CBD61E08DE00E944E
:100AC000F61361E08BE00E94F613809112048F5FB1
:100AD00080931204CFBFCF9108959FB7F89480916F
:100AE0001204882319F0815080931204809112041B
:100AF000811105C08CB58F7B8CBD109211049FBFF6
:100B000008950895FC0181E895E0928B818B7683AE
:100B100065831482108289E0818381E082838383EC
:100B20000895CF93DF93EB0167E0CE010E941C0A8A
:100B300091E02F81821390E0892FDF91CF9108956A
:100B4000EF92FF920F931F93CF93DF93EC018B01F2
:100B5000E42E8D819E810E944F09F12CB8018D8178
:100B60009E810E948409882359F0FE1006C0B801B6
:100B7000CE010E949105811104C0F394EF1470F727
:100B800080E0DF91CF911F910F91FF90EF9008953A
:100B9000CF92DF92EF92FF920F931F93CF93DF9349
:100BA00000D0CDB7DEB76C01F42EE52EFC018581B7
:100BB000968169837A830E94280869817A818823D3
:100BC00011F1F601858196810E94230940E06EEBC8
:100BD000F601858196810E94C5080F2D1E2D89E0A2
:100BE000F82EF601858196810E940709F80181930C
:100BF0008F01FA94B1F7F601858196810E94280849
:100C000091E0813009F090E0892F0F900F90DF91F3
:100C1000CF911F910F91FF90EF90DF90CF900895AB
:100C2000CF93DF93EA010E94C805882351F068E062
:100C3000CE010E941C0A91E02885821390E0892F42
:100C400001C080E0DF91CF910895EF92FF921F9352
:100C5000CF93DF9300D0CDB7DEB77C01FC01858157
:100C6000968169837A830E94280869817A81F701D5
:100C7000858196810E94230940E064EBF70185811C
:100C800096810E94C508F701858196810E949A0885
:100C9000182FF701858196810E94280881E01111A3
:100CA00080E00F900F90DF91CF911F91FF90EF9018
:100CB0000895CF93DF93CDB7DEB729970FB6F89499
:100CC000DEBF0FBECDBFFB0120812031D1F0AE01D0
:100CD0004F5F5F4F0E941006882379F08D818F331C
:100CE00051F020F48F3149F489E00CC08F3539F090
:100CF0008F3739F002C08AE005C080E003C08BE086
:100D000001C08CE029960FB6F894DEBF0FBECDBFB0
:100D1000DF91CF910895EF92FF920F931F93CF939E
:100D2000DF93CDB7DEB728970FB6F894DEBF0FBEBE
:100D3000CDBF8C01FC01858196810E944F09F8018D
:100D40001482FF24F394BE016F5F7F4FF801858109
:100D500096810E948409882381F1BE016F5F7F4FD5
:100D6000C8010E949105882371F3F80180818111E7
:100D700008C0BE016F5F7F4FC8010E942506811128
:100D800019C0F801E180BE016F5F7F4FC8010E946A
:100D900059068E1518F4F801818106C0BE016F5FF7
:100DA0007F4FC8010E945906F801818384818F5FBB
:100DB0008483C9CFF801F082E4CF28960FB6F89467
:100DC000DEBF0FBECDBFDF91CF911F910F91FF907E
:100DD000EF900895CF93DF93CDB7DEB729970FB685
:100DE000F894DEBF0FBECDBFAE014F5F5F4F0E94D4
:100DF000C80581E09981911101C080E029960FB664
:100E0000F894DEBF0FBECDBFDF91CF9108958F92D2
:100E10009F92AF92BF92CF92DF92EF92FF920F9389
:100E20001F93CF93DF93EC018A016950633048F43C
:100E3000E62FF0E0EE0FFF1FEA5AFD4F8080918011
:100E400004C09EEE892E92E0992E0115110501F144
:100E50008B818823E9F0888181111AC00E941E13BA
:100E60006B017C01AA2497FCA094BA2CB801CE0196
:100E70000E94EA0681111FC00E941E136819790999
:100E80008A099B096C157D058E059F05A0F4EECFA0
:100E9000B401882777FD8095982FDF91CF911F911E
:100EA0000F91FF90EF90DF90CF90BF90AF909F9009
:100EB0008F900C944D13DF91CF911F910F91FF9064
:100EC000EF90DF90CF90BF90AF909F908F9008955C
:100ED000CF93DF93EC018D819E810E9428088D8144
:100EE0009E810E944B09488164E48D819E810E940D
:100EF000C5088A81882341F040E050E06981CE0135
:100F0000DF91CF910C940707DF91CF910895FA01FB
:100F1000208148E0249F90011124818190E0982F46
:100F20008827990F990F990F282B392BDB018C916A
:100F30008031C1F4678170E08681AB01481B5109A3
:100F4000CA019695982F8827979587950E94271B09
:100F500060517109207F53E0220F331F5A95E1F74A
:100F6000260F371FC9010895EF92FF920F931F9329
:100F7000CF93DF93CDB7DEB729970FB6F894DEBFD6
:100F80000FBECDBF8C017B01AE014F5F5F4F0E9452
:100F90001006882341F0AE014F5F5F4FB701C801D3
:100FA0000E94870702C080E894EE29960FB6F89455
:100FB000DEBF0FBECDBFDF91CF911F910F91FF908C
:100FC000EF900895813824EE920774F0BC018827D1
:100FD00077FD8095982F0E94FC1920E030E040E0DA
:100FE0005CE30E94B01A089560E070E08EEF92EC2E
:100FF00008950E94B4070C94E2070F931F93CF93B8
:10100000DF93CDB7DEB728970FB6F894DEBF0FBEDB
:10101000CDBF8C01462FBE016F5F7F4F0E94A005A0
:10102000882339F0BE016F5F7F4FC8010E94F90726
:1010300004C060E070E08EEF92EC28960FB6F89452
:10104000DEBF0FBECDBFDF91CF911F910F910895ED
:10105000FF920F931F93CF93DF93FC010081C18117
:10106000D281F8948981F02EF0948F21898378942D
:101070001DE7115029F182E090E00E9487138881DA
:101080008023B9F3F8948A818F218A838981802B08
:101090008983789480EE91E00E948713F894898187
:1010A0008F21898386E490E00E94871388818023C2
:1010B00011E009F010E078948AE991E00E9487132A
:1010C000812FDF91CF911F910F91FF9008951F9372
:1010D000CF93DF93FC011081C181D281912F909534
:1010E00060FF12C0F8948A8189238A838981812BC9
:1010F00089838AE090E00E9487138A81812B8A830A
:10110000789487E390E011C0F8948A8189238A83D8
:101110008981812B898381E490E00E9487138A81F1
:10112000812B8A83789485E090E0DF91CF911F91A5
:101130000C9487130F931F93CF93DF93FC011081BF
:10114000C181D281F8948981812B89838A81012F81
:10115000009580238A8383E090E00E948713898131
:10116000802389838AE090E00E948713C881789465
:1011700085E390E00E9487131C2381E009F480E05E
:10118000DF91CF911F910F910895CF92DF92EF924F
:10119000FF920F931F93CF93DF931F92CDB7DEB7CC
:1011A0006C01E62E08E010E0FF24F39461E09F2D2F
:1011B0009E2109F460E0C60149830E946708FF0C84
:1011C0000150110949810115110581F7411115C01F
:1011D000F894D6011196ED91FC91129791818C9122
:1011E0008095892381831196ED91FC9112979281CC
:1011F0008C9180958923828378940F90DF91CF9191
:101200001F910F91FF90EF90DF90CF900895EF9294
:10121000FF920F931F93CF93DF938C01C8E0D0E030
:10122000F12CEE24E394C8010E949A088111FE2853
:10123000EE0C2197C1F78F2DDF91CF911F910F9168
:10124000FF90EF900895CF92DF92FF920F931F933C
:10125000CF93DF931F92CDB7DEB78C01F62E40E01F
:1012600065E579830E94C508CF2C7981D72E88E067
:10127000F82EF60161916F0140E0C8010E94C50897
:10128000FA94B9F70F90DF91CF911F910F91FF90D2
:10129000DF90CF90089540E06CEC0C94C508FC0101
:1012A00013861586148627E030E0DF01A20FB31FF6
:1012B00013961C922115310519F021503109F5CFF3
:1012C00008951F93CF93DF93EC01162F60E0812FD9
:1012D0000E94F613612F70E0FB01E057FE4FE4918E
:1012E000E883FB01EC55FE4FE491F0E0EE0FFF1FA9
:1012F000E854FE4F859194919A838983CE01DF91C2
:10130000CF911F910C944F09AF92BF92CF92DF9271
:10131000EF92FF920F931F93CF93DF931F92CDB75E
:10132000DEB75C01E62ED72EFC01858581115DC0FC
:10133000C5010E942808811105C0F5011386158694
:1013400014866EC040E060EFC5010E94C50801E050
:10135000F12CC12C11E0C5010E949A08682FC5012B
:1013600069830E949A086981613019F48130B9F467
:1013700033C02F2D30E068131BC0F501838518178B
:1013800030F4E20FF31F8381802349F402C0181761
:1013900031F060E0193058F4F501148708C0F50108
:1013A000EF0DF11D8381802B838361E009C0C12E85
:1013B000F501E20FF31F8381902F9095892383839A
:1013C000C5010E9467081F5F000F11F4F39401E04C
:1013D000F7E0FF1508F0BFCF113438F0F501C386F0
:1013E000C11018C081E0858715C0F50113861586E8
:1013F000148680E0EE2DFD2D20E030E0D501A20F17
:10140000B31F13969C9191932F5F3F4F2830310566
:10141000A9F706C0F5018381882339F381E0EACF7B
:101420000F90DF91CF911F910F91FF90EF90DF9080
:10143000CF90BF90AF900895DC0180E0615038F00C
:10144000ED91E827F0E0E458FF4F8491F7CF08953D
:1014500081E00895FC0165830895FC01648308958B
:10146000FC0162870895FC0163870895FC0164878D
:1014700008954095FC0125854223462B4587089514
:10148000FC0186810895FC0187810895FC01808517
:101490000895FC018185089580E00895CF93DF933E
:1014A000EC01E881F9810280F381E02DCE010995FC
:1014B000811103C00E948412F4CFDF91CF9108956F
:1014C000CF93DF93EC018A819B81039719F40E94EB
:1014D0008412F9CF81E0DF91CF9108958F929F928E
:1014E000AF92BF92CF92DF92EF92FF92CF93DF93B2
:1014F000EC016B010E941E134B015C01E12CF12CED
:101500000E941E13681979098A099B096C157D05CB
:101510008E059F0560F4E881F9810280F381E02D5A
:10152000CE010995811105C00E948412E9CF80E0A7
:1015300001C081E0DF91CF91FF90EF90DF90CF90DD
:10154000BF90AF909F908F9008958F929F92AF928F
:10155000BF92CF92DF92EF92FF92CF93DF93EC0195
:101560006B010E941E134B015C01E12CF12C0E94C7
:101570001E13681979098A099B096C157D058E056A
:101580009F0538F48A819B81039729F40E94841275
:10159000EECF80E001C081E0DF91CF91FF90EF902E
:1015A000DF90CF90BF90AF909F908F900895FC01F7
:1015B00080E692E091838083138212828FEF84838E
:1015C0008287838714861586108A1786128A118A65
:1015D000148A138A089508950895FC01758364831D
:1015E0000895FC01778366830895FC017383628309
:1015F0000895FC018CE892E0918380837383628379
:10160000558344833783268308956EBD00000DB44F
:1016100007FEFDCF8EB508958CB580688CBD08950A
:101620008CB58F778CBD08950C946D052CB5982FD3
:1016300093702C7F922B9CBD9DB582FB882780F9EF
:101640009E7F982B9DBD0895CF93FC012681378105
:101650002115310579F02130310541F02230310575
:1016600039F02330310531F49CE005C094E003C02B
:1016700098E001C090E08CB5837F892B8CBD84817C
:101680009581019719F48CB5806202C08CB58F7D6D
:101690008CBD8281938101978430910528F4FC01EF
:1016A000E456FD4FC08101C0C1E08C2F0E94160B93
:1016B0000E9437058C2FCF910C94160BCF93DF939C
:1016C000EC010E94F90A84EA92E099838883DF9111
:1016D000CF91089520E030E040E050E060E070E01D
:1016E00083E194E00C945E0BCF93DF93EC018D8942
:1016F0009E89DC01ED91FC910680F781E02D099532
:1017000061E08F890E94F61361E08F890E942F1497
:1017100064E670E080E090E00E944D1381E0DF918C
:10172000CF910895EF92FF920F931F93CF93DF9382
:101730001F92CDB7DEB77C018A0169830E94D70A68
:1017400088EB92E0F70191838083168B058B69818A
:10175000678B0F90DF91CF911F910F91FF90EF90CA
:1017600008950F931F93CF93DF93EC01062F1FB7BC
:10177000F89460E08F890E942F148D899E89DC0186
:10178000ED91FC910190F081E02D602F0995082FDB
:1017900061E08F890E942F141FBF802FDF91CF91AE
:1017A0001F910F9108950F931F93CF93DF93EC0137
:1017B000062F1FB7F89460E08F890E942F148D893F
:1017C0009E89DC01ED91FC910190F081E02D602F6C
:1017D00009958D899E89DC01ED91FC910190F08144
:1017E000E02D60E00995082F61E08F890E942F1499
:1017F0001FBF802FDF91CF911F910F910895EF921E
:10180000FF920F931F93CF93DF931F92CDB7DEB755
:101810007C01162F0FB7F89460E0DC0157968C918D
:1018200049830E942F14F70185899689DC01ED9187
:10183000FC910190F081E02D612F0995182FF7019F
:1018400085899689DC01ED91FC910190F081E02D74
:101850004981642F099561E0F70187890E942F145F
:101860000FBF812F0F90DF91CF911F910F91FF90AC
:10187000EF900895AF92BF92DF92EF92FF920F9395
:101880001F93CF93DF9300D0CDB7DEB78C01D62E58
:10189000F22EEFB6F89460E0DC0157968C91498304
:1018A0005A830E942F14F80185899689DC01ED91F5
:1018B000FC910190F081E02D6D2D0995D82E498184
:1018C000A42E5A81B52EF40EFA1479F0F801858908
:1018D0009689DC01ED91FC910190F081E02D60E0B2
:1018E0000995F50181935F01EFCF61E0D80157962B
:1018F0008C910E942F14EFBE8D2D0F900F90DF91D1
:10190000CF911F910F91FF90EF90DF90BF90AF901C
:101910000895AF92BF92DF92EF92FF920F931F93C1
:10192000CF93DF9300D0CDB7DEB78C01D62EF22E49
:10193000EFB6F89460E0DC0157968C9149835A83A6
:101940000E942F14F80185899689DC01ED91FC91A4
:101950000190F081E02D6D2D0995D82E4981A42E9E
:101960005A81B52EF40EFA1471F0F8018589968922
:10197000D5016D915D01DC01ED91FC910190F0814B
:10198000E02D0995F0CF61E0F80187890E942F14BE
:10199000EFBE8D2D0F900F90DF91CF911F910F9182
:1019A000FF90EF90DF90BF90AF900895CF93DF93BB
:1019B000EC018F890E94651421E0892B09F420E055
:1019C0008A8D8227DF91CF910895FC01808D0C9440
:1019D0002F14FC01238D6227818D0C942F14CF933B
:1019E000DF93EC018A819B81029761F060E0CE0178
:1019F0000E94E90C60E0CE010E94E50C82E090E0DC
:101A00009B838A83DF91CF910895862F8695869553
:101A1000887098E0980F891749F0E82FF0E0E052BD
:101A2000FD4F2081621719F08F5FF5CF80E0089598
:101A30001F93CF93DF93EC010E94D60C882319F0FB
:101A40009F8D9F5F9F8F9E8D891771F098A1903514
:101A500018F42BE030E002C02DE130E098A1290F0E
:101A6000311D28A38E8F03C088A18C5E88A388A116
:101A7000803A08F46EC08AA19BA1969587959BA396
:101A80008AA38F8D853028F08AA19BA198609BA3A3
:101A90008AA388A1805A88A31F8E89A1882309F46C
:101AA00046C08CA18F5F8CA38C3008F452C06AA111
:101AB0007BA16F73CE010E94050D182F6AA17BA137
:101AC00046E0769567954A95E1F7CE010E94050DAF
:101AD00090E1199F90011124822BBE0167597F4F1D
:101AE000FB019081DE01A859BF4F9923B1F0FB01A2
:101AF000908121E0290F2083AE01490F511DFA0189
:101B000085A3FB0190818C91981778F019A281E050
:101B10008C8FCE010E94EF0C08C08C939C91973063
:101B200090F09C91943478F4E2CF1CA212C08AA168
:101B30009BA188339B4069F481E089A31CA2C7590B
:101B4000DF4F188206C019A28F8598890196988B5D
:101B50008F87DF91CF911F910895CF92DF92EF92FF
:101B6000FF920F931F93CF93DF93EC018C010459E5
:101B70001F4FF801808191E0980F9083811136C04A
:101B80006E01FAE6CF0ED11CF6018081EF56FF4FB1
:101B90009081891748F0CE010E94EF0C8B899C89B7
:101BA00001969C8B8B8B22C0FE01E80FF11DE3593F
:101BB000FF4F608170E07E01FBE6EF0EF11CF70144
:101BC000808191E0980F908302C0759567958A9502
:101BD000E2F76170CE010E94E50CF701808186304A
:101BE00028F01082F60180818F5F8083F801808168
:101BF000883008F01082DF91CF911F910F91FF90F4
:101C0000EF90DF90CF900895FC0122813381243042
:101C1000310511F40C94180DFC012281338123301D
:101C2000310511F40C94AD0D08951F920F920FB66B
:101C30000F9211242F933F934F935F936F937F9352
:101C40008F939F93AF93BF93EF93FF9380911B0468
:101C500090911C040E94040EFF91EF91BF91AF91EF
:101C60009F918F917F916F915F914F913F912F91B4
:101C70000F900FBE0F901F9018958CE10895DF9282
:101C8000EF92FF920F931F93CF93DF93EC017B01B1
:101C90008A01E881F9810280F381E02D0995D82E2F
:101CA0008823F1F0E114F104C9F001151105B1F038
:101CB0008A8D282F30E023503109F801408150E00F
:101CC0004217530714F084508083F801408150E09C
:101CD000BE01615E7F4FC7010E94B51B1BAE1A8E0D
:101CE0008D2DDF91CF911F910F91FF90EF90DF909D
:101CF00008951F93CF93DF93EC01162F642FA90152
:101D00000E94920B84EF92E0998388831BAE8CE053
:101D1000888F198FDF91CF911F9108956F71606245
:101D20000C94FF0BCF93DF93EC018A819B81019789
:101D300071F040E060E0CE010E948E0E60E0898D7F
:101D40000E942F1481E090E09B838A8301C080E091
:101D5000DF91CF9108956FEF0C94B10B61EE0C946D
:101D6000B10B62EE0C94B10B462F4F7765E00E94E9
:101D70008E0E81E00895440F551F46706230710544
:101D800011F4406204C06130710509F4486041609B
:101D900066E00E948E0E81E00895CF93DF93EC0100
:101DA0008A819B81029769F0488D60E0CE010E9494
:101DB0008E0E60E0898D0E942F1482E090E09B835C
:101DC0008A83DF91CF9108951F93CF93DF93EC0126
:101DD0008A819B810397D1F4CE010E94AB0E182F0C
:101DE000807319F40E948412F7CF14FF03C0CE0150
:101DF0000E94AE0ECE010E94CD0E40E367E0CE0100
:101E00000E948E0E15FB882780F901C080E0DF91CB
:101E1000CF911F910895CF93DF93EC018A819B812D
:101E2000049771F0488D436060E0CE010E948E0EF1
:101E300061E0898D0E942F1484E090E09B838A8367
:101E4000DF91CF910895CF93DF93EC018A819B813D
:101E50000397B9F060E0898D0E942F1440E367E09A
:101E6000CE010E948E0E488D426060E0CE010E943D
:101E70008E0E61E0898D0E942F1483E090E09B8399
:101E80008A83DF91CF9108951F93CF93DF93EC0165
:101E9000142F4D3100F58A858B8F8B858C8F8C8527
:101EA0008D8F8D858E8F50E0CE014F960E94B51B91
:101EB00024E0210FAE01455E5F4F60EBCE010E9432
:101EC000890CCE010E94230F8B899C8901969C8BE3
:101ED0008B8B81E001C080E0DF91CF911F9108954D
:101EE000FC01828D8430C8F0838D8683848D878346
:101EF000858D8087868D81878581811107C0968138
:101F00008481981719F086818F3F39F481899289ED
:101F10000196928B818B81E083AF08950F931F937D
:101F2000CF93DF93EC011BAD111134C02A813B81AB
:101F30002330310581F10E940B0F67E1CE010E9431
:101F4000D30B80FD28C060E6CE010E94D30B082F82
:101F5000813248F0CE010E94B10E1BAE1A8ECE0126
:101F60000E94CD0E18C040E467E0CE010E948E0EA4
:101F7000202FAE01455E5F4F61E6CE010E943A0C14
:101F80000A8FCE010E94700F8BAD882319F0CE010D
:101F90000E94CD0E1BAD812FDF91CF911F910F912C
:101FA00008951F93CF93DF93EC018D899E89DC0107
:101FB000ED91FC910684F785E02D60E070E00995D5
:101FC000CE010E94740B182F811102C010E044C092
:101FD00061E0898D0E94F61360E0898D0E942F14C4
:101FE00040E767E0CE010E948E0E4FE36CE1CE0128
:101FF0000E948E0E45E06DE1CE010E948E0E6DE1D5
:10200000CE010E94D30B8530A9F4CE010E94CD0EE3
:10201000CE010E94AE0ECE010E94B10E62E0CE0152
:102020000E94B40E43E050E061E070E0CE010E94F7
:10203000BB0E12C043E760E5CE010E94FF0B45E0F6
:102040006DE1CE010E948E0E6DE1CE010E94D30B98
:10205000853009F0BBCFD9CF812FDF91CF911F9170
:102060000895603292E079073CF0613699E0790793
:102070002CF060E679E002C060E272E0685071091D
:1020800090E09B01220F232F221F330BFC01EE0F48
:10209000FF1FE80FF91FEF5DFB4F2183660F60956F
:1020A000628308951F920F920FB60F9211242F93FF
:1020B0003F934F935F936F937F938F939F93AF93D0
:1020C000BF93EF93FF9380911F048F5F80931F0452
:1020D00020911F048091200490E0FC01EE0FFF1F6F
:1020E000E80FF91FEF5DFB4F818128130EC080912F
:1020F000200490E0FC01EE0FFF1FE80FF91FEF5DD9
:10210000FB4F82818093B20060C020911F048091B8
:10211000200490E0FC01EE0FFF1FE80FF91FEF5DB8
:10212000FB4F8181821708F050C08091200490E01D
:10213000FC01EE0FFF1FE80FF91FEF5DFB4F8081E1
:1021400085FF0FC08091200490E0FC01EE0FFF1F7F
:10215000E80FF91FEF5DFB4F808160E08F710E94F7
:102160002F14809120048F5F8093200410921F040D
:102170001092B20080912004882309F180912004FC
:102180008930E8F48091200490E0FC01EE0FFF1FFD
:10219000E80FF91FEF5DFB4F808185FF16C080912E
:1021A000200490E0FC01EE0FFF1FE80FF91FEF5D28
:1021B000FB4F808161E08F710E942F1406C08091D7
:1021C0002004893010F010922004FF91EF91BF910C
:1021D000AF919F918F917F916F915F914F913F91BF
:1021E0002F910F900FBE0F901F90189520911E04F5
:1021F000283030F42F5F20931E04FC0120830895C3
:10220000FC01108208950F931F93CF93DF93EC018D
:10221000062F80911D0481111FC011E06CED75E047
:10222000812F0E9431101F5F1930C1F78EE3809318
:1022300022041092200410921F0410927000109239
:10224000B00082E08093B1001092B20091E097BBA1
:102250009093700090931D048881882399F061E029
:10226000802F0E94F613288130E0F901EE0FFF1F46
:10227000E20FF31FEF5DFB4F0F719081907E902B6B
:10228000906290838881DF91CF911F910F91089583
:102290004F925F926F927F92AF92BF92CF92DF92F6
:1022A000EF92FF920F931F93CF93DF93EC01603275
:1022B00082E078070CF040C077FD06C0653B7105F1
:1022C0002CF064EB70E002C060E070E0898128E8E7
:1022D00030E0281B310987FD3395220F331F220F71
:1022E000331F5901CC24B7FCC094DC2C882777FD20
:1022F0008095982F2A8148E552E0421B510927FD1D
:102300005395440F551F440F551F2A01662457FC4F
:102310006094762C7F926F925F924F9214EBE12E35
:10232000F12C00E010E020E030E0A9010E94B1189B
:102330000F900F900F900F9088819FEF980F98301B
:1023400080F4DF91CF911F910F91FF90EF90DF907C
:10235000CF90BF90AF907F906F905F904F900C9414
:102360003110DF91CF911F910F91FF90EF90DF908F
:10237000CF90BF90AF907F906F905F904F900895F7
:102380000F931F93CF93DF93EC01662359F00E94C4
:102390001E1369837A838B839C83DF91CF911F9176
:1023A0000F9108950E941E1309811A812B813C818F
:1023B000601B710B820B930B6233710581059105D4
:1023C00030F763E070E080E090E00E944D13EACFC8
:1023D00060E00C94C011FC0113AA14AA15AA16AA55
:1023E0001182128213821482411551056105710513
:1023F00021F0CB01BA010C944D130895FB01BA01F1
:10240000A901DC01D296FC93EE93D19726E0CF018F
:102410000C9473151F93CF93DF93EC01162F6CE18F
:1024200073E089A99AA90E94C8164AE050E0612F7A
:1024300089A99AA90E94AD1763E273E089A99AA9B4
:102440000E94C81662E370E080E090E0DF91CF91D7
:102450001F910C944D131F93CF93DF93EC01162F14
:102460008D81882389F189A99AA9DC01ED91FC91DC
:102470000480F581E02D0995892BA9F307C0263743
:10248000310519F12835310509F41D8289A99AA968
:10249000DC01ED91FC910480F581E02D0995181681
:1024A000190694F489A99AA9DC01ED91FC910680A2
:1024B000F781E02D09959C01332723363105F9F684
:1024C000612FCE010E940A1283E6DF91CF911F9106
:1024D00008950F931F93CF93DF931F92CDB7DEB76D
:1024E0008C01662349F081E0F801858360E0C80132
:1024F00049830E942B124981F80145830F90DF9197
:10250000CF911F910F910895089508951F920F92F2
:102510000FB60F9211242F933F934F935F936F93B6
:102520007F938F939F93AF93BF93EF93FF93E0912C
:102530000D01F0910E010995FF91EF91BF91AF91BF
:102540009F918F917F916F915F914F913F912F91CB
:102550000F900FBE0F901F9018951F920F920FB6FD
:102560000F9211242F933F934F935F936F937F9319
:102570008F939F93AF93BF93EF93FF93E0910F01DE
:10258000F09110010995FF91EF91BF91AF919F914B
:102590008F917F916F915F914F913F912F910F900C
:1025A0000FBE0F901F9018951F920F920FB60F92AB
:1025B00011242F933F938F939F93AF93BF93809159
:1025C000740490917504A0917604B09177043091D1
:1025D000730423E0230F2D3720F40196A11DB11DB4
:1025E00005C026E8230F0296A11DB11D2093730498
:1025F0008093740490937504A0937604B093770449
:102600008091780490917904A0917A04B0917B0430
:102610000196A11DB11D8093780490937904A09335
:102620007A04B0937B04BF91AF919F918F913F91BA
:102630002F910F900FBE0F901F9018952FB7F89401
:102640006091740470917504809176049091770480
:102650002FBF08953FB7F894809178049091790442
:10266000A0917A04B0917B0426B5A89B05C02F3FAA
:1026700019F00196A11DB11D3FBF6627782F892F44
:102680009A2F620F711D811D911D42E0660F771F09
:10269000881F991F4A95D1F708958F929F92AF9204
:1026A000BF92CF92DF92EF92FF926B017C010E946A
:1026B0002A134B015C01C114D104E104F104F1F0CF
:1026C0000E9484120E942A13681979098A099B09B9
:1026D000683E73408105910570F321E0C21AD1086C
:1026E000E108F10888EE880E83E0981EA11CB11C59
:1026F000C114D104E104F10429F7DDCFFF90EF907C
:10270000DF90CF90BF90AF909F908F9008958230D0
:10271000910538F0880F991F880F991F0597019729
:10272000F1F70895789484B5826084BD84B58160A2
:1027300084BD85B5826085BD85B5816085BDEEE6C9
:10274000F0E0808181608083E1E8F0E010828081A8
:1027500082608083808181608083E0E8F0E0808116
:1027600081608083E1EBF0E0808184608083E0EB36
:10277000F0E0808181608083EAE7F0E0808184601E
:10278000808380818260808380818160808380817A
:10279000806880831092C1000895833081F028F40E
:1027A000813099F08230A1F008958730A9F0883007
:1027B000B9F08430D1F4809180008F7D03C0809186
:1027C00080008F7780938000089584B58F7702C052
:1027D00084B58F7D84BD08958091B0008F7703C04C
:1027E0008091B0008F7D8093B0000895CF93DF93E8
:1027F00090E0FC01E057FE4F2491FC01EC55FE4FA8
:102800008491882349F190E0880F991FFC01E453DB
:10281000FE4FA591B4918E539E4FFC01C591D4916A
:102820009FB7611108C0F8948C91209582238C93F6
:10283000888182230AC0623051F4F8948C91322F3F
:10284000309583238C938881822B888304C0F894ED
:102850008C91822B8C939FBFDF91CF9108950F9322
:102860001F93CF93DF931F92CDB7DEB7282F30E0B1
:10287000F901E458FE4F8491F901E057FE4F14919D
:10288000F901EC55FE4F04910023C9F0882321F093
:1028900069830E94CD136981E02FF0E0EE0FFF1FE6
:1028A000EE53FE4FA591B4919FB7F8948C916111AE
:1028B00003C01095812301C0812B8C939FBF0F9083
:1028C000DF91CF911F910F910895CF93DF93282F20
:1028D00030E0F901E458FE4F8491F901E057FE4FD2
:1028E000D491F901EC55FE4FC491CC2391F08111A4
:1028F0000E94CD13EC2FF0E0EE0FFF1FE854FE4FC7
:10290000A591B4912C912D2381E090E021F480E0F9
:1029100002C080E090E0DF91CF9108950E94B01B4B
:10292000FC01818D228D90E0805C9F4F821B91097C
:102930008F7399270895FC01918D828D981731F03E
:10294000828DE80FF11D858D90E008958FEF9FEF48
:102950000895FC01918D828D981761F0828DDF01C1
:10296000A80FB11D5D968C91928D9F5F9F73928F82
:1029700090E008958FEF9FEF08958DE296E1892B07
:1029800049F080E090E0892B29F00E942D168111FA
:102990000C9400000895FC01848DDF01A80FB11D87
:1029A000A35ABF4F2C91848D90E001968F73992785
:1029B000848FA689B7892C93A089B1898C91806472
:1029C0008C93938D848D981306C00288F389E02D33
:1029D00080818F7D80830895CF93DF93EC01888D74
:1029E0008823C9F0EA89FB89808185FD05C0A88913
:1029F000B9898C9186FD0FC00FB607FCF5CF808199
:102A000085FFF2CFA889B9898C9185FFEDCFCE01E2
:102A10000E94CB14E7CFDF91CF910895CF92DF9240
:102A2000FF920F931F93CF93DF931F92CDB7DEB723
:102A30006C0181E0D60158968C9358975B969C91D7
:102A40005B975C968C915C97981307C05096ED91BC
:102A5000FC915197808185FD2EC0F601038D10E019
:102A60000F5F1F4F0F731127F02EF601848DF812A0
:102A700011C00FB607FCF9CFD6015096ED91FC912D
:102A80005197808185FFF1CFC60169830E94CB14E5
:102A90006981EBCF838DE80FF11DE35AFF4F60830F
:102AA000D6015B960C935B975296ED91FC915397F0
:102AB000808180620CC0D6015696ED91FC915797AB
:102AC00060835096ED91FC91519780818064808362
:102AD00081E090E00F90DF91CF911F910F91FF90D7
:102AE000DF90CF900895BF92CF92DF92EF92FF9246
:102AF000CF93DF93EC016A017B01B22EE889F9895B
:102B000082E08083411581EE580761057105A1F0CF
:102B100060E079E08DE390E0A70196010E943B1B05
:102B20002150310941095109569547953795279507
:102B3000211580E1380798F0E889F989108260E86A
:102B400074E88EE190E0A70196010E943B1B2150A2
:102B50003109410951095695479537952795EC85D7
:102B6000FD853083EE85FF852083188EEC89FD89F5
:102B7000B082EA89FB89808180618083EA89FB8950
:102B8000808188608083EA89FB8980818068808376
:102B9000EA89FB8980818F7D8083DF91CF91FF90CF
:102BA000EF90DF90CF90BF9008951F920F920FB6D5
:102BB0000F9211242F938F939F93EF93FF93E091A4
:102BC0008C04F0918D048081E0919204F091930443
:102BD00082FD12C09081809195048F5F8F73209148
:102BE0009604821751F0E0919504F0E0E458FB4F11
:102BF000958F8093950401C08081FF91EF919F9103
:102C00008F912F910F900FBE0F901F9018951F92CC
:102C10000F920FB60F9211242F933F934F935F9310
:102C20006F937F938F939F93AF93BF93EF93FF9394
:102C30008CE794E00E94CB14FF91EF91BF91AF918C
:102C40009F918F917F916F915F914F913F912F91C4
:102C50000F900FBE0F901F9018958CE794E00E9484
:102C6000901421E0892B09F420E0822F089510921E
:102C70007F0410927E0488EE93E0A0E0B0E08093A1
:102C8000800490938104A0938204B093830488E726
:102C900093E090937D0480937C0485EC90E0909386
:102CA00089048093880484EC90E090938B04809353
:102CB0008A0480EC90E090938D0480938C0481ECE6
:102CC00090E090938F0480938E0482EC90E0909338
:102CD00091048093900486EC90E090939304809309
:102CE00092041092950410929604109297041092F8
:102CF0009804089508950E9492130E947A160E94E3
:102D0000C501CDEBD4E10E9431022097E1F30E948E
:102D1000BD14F9CFCF92DF92EF92FF920F931F93E2
:102D2000CF93DF937C016A01EB0100E010E00C150A
:102D30001D0571F06991D701ED91FC910190F08131
:102D4000E02DC7010995892B19F00F5F1F4FEFCFB9
:102D5000C801DF91CF911F910F91FF90EF90DF900D
:102D6000CF9008956115710581F0DB010D90002071
:102D7000E9F7AD0141505109461B570BDC01ED91BC
:102D8000FC910280F381E02D099480E090E00895A9
:102D90000C94B216DC01ED91FC910190F081E02DD4
:102DA000099469E273E00C94B2160F931F93CF93CA
:102DB000DF93EC010E94B2168C01CE010E94D11665
:102DC000800F911FDF91CF911F910F9108958F92E6
:102DD0009F92AF92BF92DF92EF92FF920F931F9359
:102DE000CF93DF93CDB7DEB7A1970FB6F894DEBFD0
:102DF0000FBECDBF7C01F42FD52ECB0119A22230FE
:102E000008F42AE08E010F5D1F4F822E912CA12C19
:102E1000B12C6F2F7D2DA50194010E943B1BF22F39
:102E2000D32ECA01015011096A3014F4E0E301C045
:102E3000E7E3E60FD801EC93232B242B252B49F74E
:102E4000B801C7010E94B216A1960FB6F894DEBF72
:102E50000FBECDBFDF91CF911F910F91FF90EF90EB
:102E6000DF90BF90AF909F908F900895CF92DF92A8
:102E7000EF92FF920F931F93CF93DF93EC016A01C0
:102E80007B012115310579F4E881F9810190F08108
:102E9000E02D642FDF91CF911F910F91FF90EF9064
:102EA000DF90CF9009942A303105E9F477FF1AC0FA
:102EB0006DE20E94CA168C0144275527BA014C19AD
:102EC0005D096E097F092AE0CE010E94E716800F96
:102ED000911FDF91CF911F910F91FF90EF90DF90A5
:102EE000CF9008952AE0B701A601CE01DF91CF91DE
:102EF0001F910F91FF90EF90DF90CF900C94E71609
:102F00009A01AB01662757FD6095762F0C94361712
:102F10000F931F93CF93DF93EC019A01AB016627C8
:102F200057FD6095762F0E9436178C01CE010E94C6
:102F3000D116800F911FDF91CF911F910F910895AE
:102F40002115310541F4DC01ED91FC910190F081F6
:102F5000E02D642F09940C94E7169A01462F50E057
:102F600060E070E00C94A0174F925F926F927F9296
:102F70008F929F92AF92BF92CF92DF92EF92FF9289
:102F80000F931F93CF93DF93EC016A017B01B22E65
:102F90009A01AB01C701B6010E94131B882319F0E7
:102FA00064E873E027C026013701E89477F82FEF33
:102FB0003FEF4FE75FE7C301B2010E94131B81118E
:102FC0000DC02FEF3FEF4FE75FE7C301B2010E9453
:102FD0005D1918161CF468E873E00CC02FEF3FEF82
:102FE0004FE75FE4C701B6010E94AC1A1816ACF4B3
:102FF0006CE873E0CE01DF91CF911F910F91FF90AC
:10300000EF90DF90CF90BF90AF909F908F907F9088
:103010006F905F904F900C94B2162FEF3FEF4FE7F9
:103020005FECC701B6010E945D1987FDE1CF20E08A
:1030300030E0A901C701B6010E945D1987FF0AC0EF
:103040006DE2CE010E94CA168C01F7FAF094F7F8EF
:10305000F09402C000E010E0A12C60E070E080E09D
:103060009FE3AB1441F020E030E040E251E40E94E5
:103070006119A394F6CF9B01AC01C701B6010E9470
:10308000F9186B017C010E94CE192B013C010E94B2
:10309000FA199B01AC01C701B6010E94F8186B0137
:1030A0007C012AE0B301A201CE010E94E716080FBD
:1030B000191FBB2039F060E973E0CE010E94B216FF
:1030C000080F191F7B2C772041F120E030E040E20F
:1030D00051E4C701B6010E94B01A6B017C010E9445
:1030E000C9194B01AA2497FCA094BA2C2AE030E01D
:1030F000B501A401CE010E943617080F191FC501A2
:10310000B4010E94FC199B01AC01C701B6010E94E9
:10311000F8186B017C017A94D6CFC801DF91CF916A
:103120001F910F91FF90EF90DF90CF90BF90AF90E5
:103130009F908F907F906F905F904F9008950F9326
:103140001F93CF93DF93EC010E94B4178C01CE0143
:103150000E94D116800F911FDF91CF911F910F9187
:1031600008954F925F926F927F92AF92BF92CF92EB
:10317000DF92EF92FF920F931F93CF93DF93CDB720
:10318000DEB729013A01621B730B840B950B298969
:103190003A894B895C892A193B094C095D09298BBD
:1031A0003A8B4B8B5C8B9B01AC0169897A898B894B
:1031B0009C890E94171BE418F50806091709A80145
:1031C00097010E945D1B2A0D3B1D4C1D5D1DCA0110
:1031D000B901DF91CF911F910F91FF90EF90DF9098
:1031E000CF90BF90AF907F906F905F904F90089579
:1031F0005058BB27AA270ED075C166D130F06BD1CD
:1032000020F031F49F3F11F41EF45BC10EF4E09501
:10321000E7FB51C1E92F77D180F3BA176207730733
:103220008407950718F071F49EF58FC10EF4E095B0
:103230000B2EBA2FA02D0B01B90190010C01CA0170
:10324000A0011124FF27591B99F0593F50F4503E1B
:1032500068F11A16F040A22F232F342F4427585F0D
:10326000F3CF469537952795A795F0405395C9F725
:103270007EF41F16BA0B620B730B840BBAF09150DD
:10328000A1F0FF0FBB1F661F771F881FC2F70EC07C
:10329000BA0F621F731F841F48F48795779567954F
:1032A000B795F7959E3F08F0B3CF9395880F08F038
:1032B0009927EE0F979587950895D9D008F481E066
:1032C00008950CD00FC107D140F0FED030F021F4AA
:1032D0005F3F19F0F0C0511139C1F3C014D198F318
:1032E0009923C9F35523B1F3951B550BBB27AA2787
:1032F00062177307840738F09F5F5F4F220F331FF9
:10330000441FAA1FA9F333D00E2E3AF0E0E830D0C4
:1033100091505040E695001CCAF729D0FE2F27D0C7
:10332000660F771F881FBB1F261737074807AB0795
:10333000B0E809F0BB0B802DBF01FF2793585F4F0A
:103340002AF09E3F510568F0B6C000C15F3FECF324
:10335000983EDCF3869577956795B795F7959F5FCF
:10336000C9F7880F911D9695879597F90895E1E023
:10337000660F771F881FBB1F621773078407BA0782
:1033800020F0621B730B840BBA0BEE1F88F7E095DD
:10339000089504D06894B111D9C00895BCD088F0C4
:1033A0009F5790F0B92F9927B751A0F0D1F0660F31
:1033B000771F881F991F1AF0BA95C9F712C0B1304C
:1033C00081F0C3D0B1E00895C0C0672F782F88275F
:1033D000B85F39F0B93FCCF3869577956795B3958B
:1033E000D9F73EF490958095709561957F4F8F4FFA
:1033F0009F4F0895E89409C097FB3EF490958095FF
:10340000709561957F4F8F4F9F4F9923A9F0F92FAA
:1034100096E9BB279395F695879577956795B79528
:10342000F111F8CFFAF4BB0F11F460FF1BC06F5F0E
:103430007F4F8F4F9F4F16C0882311F096E911C020
:10344000772321F09EE8872F762F05C0662371F041
:1034500096E8862F70E060E02AF09A95660F771F55
:10346000881FDAF7880F9695879597F90895990F31
:103470000008550FAA0BE0E8FEEF16161706E8073E
:10348000F907C0F012161306E407F50798F0621B5F
:10349000730B840B950B39F40A2661F0232B242B34
:1034A000252B21F408950A2609F4A140A6958FEF53
:1034B000811D811D089597F99F6780E870E060E0A5
:1034C00008959FEF80EC089500240A9416161706BD
:1034D00018060906089500240A9412161306140605
:1034E00005060895092E0394000C11F4882352F068
:1034F000BB0F40F4BF2B11F460FF04C06F5F7F4F20
:103500008F4F9F4F089557FD9058440F551F59F006
:103510005F3F71F04795880F97FB991F61F09F3FC0
:1035200079F087950895121613061406551FF2CFE9
:103530004695F1DF08C0161617061806991FF1CF39
:1035400086957105610508940895E894BB27662760
:103550007727CB0197F908958ADF08F48FEF089554
:103560000BD0C0CFB1DF28F0B6DF18F0952309F0FB
:10357000A2CFA7CF1124EACFC6DFA0F3959FD1F346
:10358000950F50E0551F629FF001729FBB27F00D11
:10359000B11D639FAA27F00DB11DAA1F649F662766
:1035A000B00DA11D661F829F2227B00DA11D621FB5
:1035B000739FB00DA11D621F839FA00D611D221F6F
:1035C000749F3327A00D611D231F849F600D211D53
:1035D000822F762F6A2F11249F5750408AF0E1F0F6
:1035E00088234AF0EE0FFF1FBB1F661F771F881F3F
:1035F00091505040A9F79E3F510570F05CCFA6CF87
:103600005F3FECF3983EDCF3869577956795B79529
:10361000F795E7959F5FC1F7FE2B880F911D969553
:10362000879597F9089523DF880B990B0895DB019F
:103630008F939F930E94821BBF91AF91A29F800D99
:10364000911DA39F900DB29F900D1124089597FB9B
:10365000072E16F4009407D077FD09D00E948D1B29
:1036600007FC05D03EF4909581959F4F0895709585
:1036700061957F4F0895A1E21A2EAA1BBB1BFD0185
:103680000DC0AA1FBB1FEE1FFF1FA217B307E40741
:10369000F50720F0A21BB30BE40BF50B661F771F99
:1036A000881F991F1A9469F7609570958095909579
:1036B0009B01AC01BD01CF010895052E97FB1EF4BF
:1036C00000940E94741B57FD07D00E943B1B07FC0F
:1036D00003D04EF40C94741B509540953095219571
:1036E0003F4F4F4F5F4F089590958095709561952E
:1036F0007F4F8F4F9F4F0895EE0FFF1F0590F4915E
:10370000E02D09940E94A11BA59F900DB49F900DE0
:10371000A49F800D911D11240895AA1BBB1B51E18C
:1037200007C0AA1FBB1FA617B70710F0A61BB70B31
:10373000881F991F5A95A9F780959095BC01CD01D6
:103740000895A29FB001B39FC001A39F700D811D7A
:103750001124911DB29F700D811D1124911D08959A
:1037600081E090E0F8940C94BE1BFB01DC0102C0E8
:1037700001900D9241505040D8F70895F894FFCF32
:103780000100000005003C005A000100018512857F
:103790001241726D20746F206E65757472616C20B9
:1037A000706F736974696F6E0047726162626572EF
:1037B00020746F206E65757472616C20706F736910
:1037C00074696F6E004772616262696E670047726A
:1037D000616262657220746F20706F736974696FC3
:1037E0006E200041726D20746F20706F7369746970
:1037F0006F6E2000564D4450565F317C315F564D00
:103800004450560D0A00696E6974206661696C65E2
:1038100064007365744368616E6E656C20666169EF
:103820006C6564007365745246206661696C6564FA
:10383000005374657073697A653A20004D6F746F38
:103840007273706565643A200061726D206F666600
:103850007365743A20002020007475726E696E677B
:10386000206F6E6520726F756E643A200074657308
:1038700074696E672052504D3A200054656D706532
:1038800072617475726520666F7220446576696333
:103890006520312069733A200053656E64696E6754
:1038A00020746F206E726632345F73657276657253
:1038B00000676F74207265706C793A2000726563DE
:1038C00076206661696C65640048656C6C6F205792
:1038D0006F726C6421005E00BC0077010000000084
:1038E000280A8E148E148E148E144E0A600AA50AAD
:1038F0006E0A2D0A300A330A360A390A2A0A400AA1
:10390000430A460A490A4C0A000000008E14EB0ADA
:10391000EC0A8E148E14ED0AF10AF50A050004046F
:1039200000000000050B0C0B100B240B140BED0A10
:10393000F10AF50A00000000740B8E148E148E1428
:103940008E144E0A600AA50A6E0A2D0A300A330A3E
:10395000360A390A2A0A400A430A460A490A4C0A20
:103960000D0E131516191A1C232526292A2C32345C
:1039700000000000D10F8E0F3F0E440F3D0E4E0A87
:10398000E40EA50A6E0A2D0A300A330A360A390AED
:103990002A0A400A430A460A490A920E564D4450E2
:1039A000435F005F564D4450430D0A004572726FED
:1039B000723A20417474656D707420746F20736561
:1039C00074206120726561642D6F6E6C7920766160
:1039D000726961626C65206F722064617461207429
:1039E000797065206E6F7420737570706F72746576
:1039F000640D0A00000000000E158A169014A91428
:103A00009B14EC146E616E00696E66006F76660042
:023A10002E0086
:00000001FF
