:100000000C94E4000C94620E0C94890E0C940C0178
:100010000C940C010C940C010C940C010C940C012C
:100020000C940C010C94A60C0C940C010C94690A11
:100030000C940C010C940C010C940C010C940C010C
:100040000C94B00E0C940C010C94B1110C94E311AF
:100050000C940C010C940C010C940C010C940C01EC
:100060000C940C010C940C01005EBCE2613FDD833A
:10007000C29C7E20A3FD1F419DC3217FFCA2401E88
:100080005F01E3BD3E6082DC237D9FC1421CFEA078
:10009000E1BF5D0380DE3C62BEE0025CDF81633D68
:1000A0007C22C09E1D43A1FF4618FAA427799BC558
:1000B00084DA3866E5BB5907DB856739BAE4065848
:1000C0001947A5FB7826C49A653BD987045AB8E638
:1000D000A7F91B45C6987A24F8A6441A99C7257B28
:1000E0003A6486D85B05E7B98CD2306EEDB3510F18
:1000F0004E10F2AC2F7193CD114FADF3702ECC9208
:10010000D38D6F31B2EC0E50AFF1134DCE90722CF7
:100110006D33D18F0C52B0EE326C8ED0530DEFB1E7
:10012000F0AE4C1291CF2D73CA947628ABF51749D7
:100130000856B4EA6937D58B5709EBB536688AD4C7
:1001400095CB2977F4AA4816E9B7550B88D6346AB7
:100150002B7597C94A14F6A8742AC896154BA9F7A7
:10016000B6E80A54D7896B35000000080002010088
:100170000003040700000000000000000102040862
:100180001020408001020408102001020408102001
:10019000040404040404040402020202020203032D
:1001A00003030303000000002300260029000000D1
:1001B0000000250028002B0000000000240027007C
:1001C0002A001D01BE07131211241FBECFEFD8E075
:1001D000DEBFCDBF14E0A0E0B1E0E0E8F7E202C08E
:1001E00005900D92AE30B107D9F725E0AEE0B4E04E
:1001F00001C01D92A339B207E1F711E0C8ECD1E0CC
:1002000004C02297FE010E94AC13C23CD107C9F77B
:100210000E9457120C94BE130C940000282FDB018F
:10022000FC018E2F821B841730F491918D919817C9
:10023000C1F380E0089581E00895EF92FF920F935B
:100240001F936EE08DE794E00E94B5056DE774E0C2
:100250008AE694E00E94400387E694E00E944A0DFB
:1002600084E694E00E944A0D87E0E82EF12C06E037
:1002700010E024E030E042E050E068EC70E08AE416
:1002800094E00E94BF022DE834E04AE068E08EE08E
:1002900094E01F910F91FF90EF900C94CD0A8EE0A7
:1002A00094E00E94250C811106C063ED71E086EF99
:1002B00094E00E94B11261E08EE094E00E94080B8D
:1002C000811106C06FED71E086EF94E00E94B112DB
:1002D00043E050E061E070E08EE094E00E940F0B9C
:1002E000811106C061EF71E086EF94E00E94B112C7
:1002F000089540ED57E060E070E086EB94E00E94E6
:10030000C70D20E835E240E050E066EF74E086EB90
:1003100094E00E94DA0D86EB94E00E94C40D6EEF2B
:1003200071E08091E7049091E8040E94A4126AE0D1
:1003300070E080E090E00E94290F41E060E086EBF1
:1003400094E00E94450E26E040E855E260E070E04F
:1003500086EF94E00E944F110E944F0163E070E02D
:1003600087E694E00E94570D65E070E084E694E033
:100370000E94570D8AE694E00C9421044F925F92FC
:100380006F927F929F92AF92BF92CF92DF92EF9245
:10039000FF920F931F93CF93DF931F92CDB7DEB7DA
:1003A0008C015B010E94FA0E6B017C0160E172E03E
:1003B00086EF94E00E94B112E0910E04F0910F04D8
:1003C0000088F189E02D68E873E18EE094E00995FA
:1003D000882309F456C0A501B8018EE094E00E947C
:1003E000930A882309F44DC064E272E086EF94E03A
:1003F0000E94B11266E372E086EF94E00E94A412BC
:100400004AE050E0B50186EF94E00E945C1360E49E
:1004100072E086EF94E00E94A412B80186EF94E0A7
:100420000E94B1122601370188E8480E83E1581E68
:10043000611C711C6BE472E086EF94E00E94B112C3
:10044000F5014081B8018EE094E00E94980B64E6CB
:1004500070E080E090E00E94290F0E94FA0E46169C
:1004600057066806790678F40E94FA0E6C157D0529
:100470008E059F0540F066E772E086EF94E00E94EB
:10048000B112912C3FC0E0910E04F0910F0400884E
:10049000F189E02D64E670E08EE094E00995882310
:1004A00049F2AE014F5F5F4F60E070E08EE094E094
:1004B0000E94930A882309F4BDCF8981873009F00F
:1004C000B9CF47E065E672E080E090E00E940E015F
:1004D000982E882309F4AECF60E172E086EF94E0B5
:1004E0000E94B11214E14AE06CE672E08EE094E002
:1004F0000E94980B64E670E080E090E00E94290F73
:10050000115089F7892D0F90DF91CF911F910F9195
:10051000FF90EF90DF90CF90BF90AF909F907F9033
:100520006F905F904F900895CF93DF93CDB7DEB774
:10053000C150D1400FB6F894DEBF0FBECDBFBE0193
:100540006F5F7E4FCE0101960E94BE018823B9F3F2
:10055000BE016F5F7F4F86EF94E00E94B11268EE9C
:1005600073E080E090E00E94290FCF5FDE4F0FB66E
:10057000F894DEBF0FBECDBFDF91CF910895EF920B
:10058000FF920F931F93CF93DF93EC01842F1B8671
:100590001A86198218821E8A1F8A188E198E7F83E6
:1005A0006E834C875D873F872E87198B088BFB8A6C
:1005B000EA8A61E00E94D20F61E08E850E94D20F2C
:1005C00061E088890E94D20F61E08A890E94D20F7F
:1005D0001D8A1C8A84E090E099878887DF91CF91FB
:1005E0001F910F91FF90EF900895CF93CFB7F8949C
:1005F00080918C04811127C0EAE9F1E08491E6E85A
:10060000F1E09491E82FF0E0EE0FFF1FE854FE4F69
:10061000A591B4918C91892321F461E08AE00E9434
:100620000B1061E08AE00E94D20F8CB580618CBD16
:100630008CB580648CBD61E08DE00E94D20F61E0DA
:100640008BE00E94D20F80918C048F5F80938C048A
:10065000CFBFCF9108959FB7F89480918C048823E1
:1006600019F0815080938C0480918C04811105C015
:100670008CB58F7B8CBD10928B049FBF089508951D
:10068000FC018FE393E0928B818B768365831482E8
:10069000108289E0818381E0828383830895CF93F0
:1006A000DF93EB0167E0CE010E94700691E02F819D
:1006B000821390E0892FDF91CF910895CF92DF923E
:1006C000EF92FF920F931F93CF93DF9300D0CDB79C
:1006D000DEB76C01F42EE52EFC01858196816983DD
:1006E0007A830E94800469817A81882311F1F6015E
:1006F000858196810E947B0540E06EEBF601858145
:1007000096810E941D050F2D1E2D89E0F82EF60101
:10071000858196810E945F05F80181938F01FA948B
:10072000B1F7F601858196810E94800491E08130C5
:1007300009F090E0892F0F900F90DF91CF911F91DA
:100740000F91FF90EF90DF90CF900895CF93DF93BC
:10075000EA010E945E03882351F068E0CE010E9406
:10076000700691E02885821390E0892F01C080E017
:10077000DF91CF910895EF92FF921F93CF93DF9374
:1007800000D0CDB7DEB77C01FC01858196816983FD
:100790007A830E94800469817A81F701858196813C
:1007A0000E947B0540E064EBF701858196810E9401
:1007B0001D05F701858196810E94F204182FF7012B
:1007C000858196810E94800481E0111180E00F9064
:1007D0000F90DF91CF911F91FF90EF900895CF93ED
:1007E000DF93CDB7DEB729970FB6F894DEBF0FBE03
:1007F000CDBFFB0120812031D1F0AE014F5F5F4FB3
:100800000E94A603882379F08D818F3351F020F464
:100810008F3149F489E00CC08F3539F08F3739F0CA
:1008200002C08AE005C080E003C08BE001C08CE01C
:1008300029960FB6F894DEBF0FBECDBFDF91CF91E2
:100840000895EF92FF920F931F93CF93DF93CDB74D
:10085000DEB728970FB6F894DEBF0FBECDBF8C0170
:10086000FC01858196810E94A305F8011482FF2472
:10087000F394BE016F5F7F4FF801858196810E94DE
:10088000D805882381F1BE016F5F7F4FC8010E94A8
:100890004F03882371F3F8018081811108C0BE01E4
:1008A0006F5F7F4FC8010E94BB03811119C0F8011F
:1008B000E180BE016F5F7F4FC8010E94EF038E157C
:1008C00018F4F801818106C0BE016F5F7F4FC80137
:1008D0000E94EF03F801818384818F5F8483C9CFF5
:1008E000F801F082E4CF28960FB6F894DEBF0FBE71
:1008F000CDBFDF91CF911F910F91FF90EF900895A1
:10090000FF920F931F93CF93DF93FC010081C1816E
:10091000D281F8948981F02EF0948F218983789484
:100920001DE7115029F182E090E00E94630F888159
:100930008023B9F3F8948A818F218A838981802B5F
:100940008983789480EE91E00E94630FF894898106
:100950008F21898386E490E00E94630F8881802341
:1009600011E009F010E078948AE991E00E94630FA9
:10097000812FDF91CF911F910F91FF9008951F93C9
:10098000CF93DF93FC011081C181D281912F90958B
:1009900060FF12C0F8948A8189238A838981812B20
:1009A00089838AE090E00E94630F8A81812B8A8389
:1009B000789487E390E011C0F8948A8189238A8330
:1009C0008981812B898381E490E00E94630F8A8171
:1009D000812B8A83789485E090E0DF91CF911F91FD
:1009E0000C94630F0F931F93CF93DF93FC0110813F
:1009F000C181D281F8948981812B89838A81012FD9
:100A0000009580238A8383E090E00E94630F8981B0
:100A1000802389838AE090E00E94630FC8817894E4
:100A200085E390E00E94630F1C2381E009F480E0DD
:100A3000DF91CF911F910F910895CF92DF92EF92A6
:100A4000FF920F931F93CF93DF931F92CDB7DEB723
:100A50006C01E62E08E010E0FF24F39461E09F2D86
:100A60009E2109F460E0C60149830E94BF04FF0C87
:100A70000150110949810115110581F7411115C076
:100A8000F894D6011196ED91FC91129791818C9179
:100A90008095892381831196ED91FC911297928123
:100AA0008C9180958923828378940F90DF91CF91E8
:100AB0001F910F91FF90EF90DF90CF900895EF92EC
:100AC000FF920F931F93CF93DF938C01C8E0D0E088
:100AD000F12CEE24E394C8010E94F2048111FE2857
:100AE000EE0C2197C1F78F2DDF91CF911F910F91C0
:100AF000FF90EF900895CF92DF92FF920F931F9394
:100B0000CF93DF931F92CDB7DEB78C01F62E40E076
:100B100065E579830E941D05CF2C7981D72E88E069
:100B2000F82EF60161916F0140E0C8010E941D0599
:100B3000FA94B9F70F90DF91CF911F910F91FF9029
:100B4000DF90CF900895FC0113861586148627E068
:100B500030E0DF01A20FB31F13961C92211531055F
:100B600019F021503109F5CF08951F93CF93DF93EA
:100B7000EC01162F60E0812F0E94D20F612F70E0F0
:100B8000FB01E458FE4FE491E883FB01E057FE4F80
:100B9000E491F0E0EE0FFF1FEC55FE4F859194912C
:100BA0009A838983CE01DF91CF911F910C94A30585
:100BB000AF92BF92CF92DF92EF92FF920F931F936B
:100BC000CF93DF931F92CDB7DEB75C01E62ED72E11
:100BD000FC01858581115DC0C5010E9480048111E1
:100BE00005C0F5011386158614866EC040E060EFDF
:100BF000C5010E941D0501E0F12CC12C11E0C501C9
:100C00000E94F204682FC50169830E94F204698181
:100C1000613019F48130B9F433C02F2D30E06813FE
:100C20001BC0F5018385181730F4E20FF31F838191
:100C3000802349F402C0181731F060E0193058F4ED
:100C4000F501148708C0F501EF0DF11D8381802B9C
:100C5000838361E009C0C12EF501E20FF31F838198
:100C6000902F909589238383C5010E94BF041F5F45
:100C7000000F11F4F39401E0F7E0FF1508F0BFCF87
:100C8000113438F0F501C386C11018C081E08587A2
:100C900015C0F50113861586148680E0EE2DFD2D16
:100CA00020E030E0D501A20FB31F13969C919193E1
:100CB0002F5F3F4F28303105A9F706C0F50183812A
:100CC000882339F381E0EACF0F90DF91CF911F9114
:100CD0000F91FF90EF90DF90CF90BF90AF9008956D
:100CE000DC0180E0615038F0ED91E827F0E0E85950
:100CF000FF4F8491F7CF089581E00895FC0165834B
:100D00000895FC0164830895FC0162870895FC0145
:100D100063870895FC01648708954095FC0125854B
:100D20004223462B45870895FC0186810895FC01E6
:100D300087810895FC0180850895FC0181850895CF
:100D400080E00895CF93DF93EC01E881F981028080
:100D5000F381E02DCE010995811103C00E94600E40
:100D6000F4CFDF91CF910895CF93DF93EC018A8187
:100D70009B81039719F40E94600EF9CF81E0DF9107
:100D8000CF9108958F929F92AF92BF92CF92DF92B0
:100D9000EF92FF92CF93DF93EC016B010E94FA0E6A
:100DA0004B015C01E12CF12C0E94FA0E68197909C3
:100DB0008A099B096C157D058E059F0560F4E88105
:100DC000F9810280F381E02DCE010995811105C0E2
:100DD0000E94600EE9CF80E001C081E0DF91CF91F9
:100DE000FF90EF90DF90CF90BF90AF909F908F904B
:100DF00008958F929F92AF92BF92CF92DF92EF921F
:100E0000FF92CF93DF93EC016B010E94FA0E4B012E
:100E10005C01E12CF12C0E94FA0E681979098A090B
:100E20009B096C157D058E059F0538F48A819B8191
:100E3000039729F40E94600EEECF80E001C081E0AC
:100E4000DF91CF91FF90EF90DF90CF90BF90AF9068
:100E50009F908F900895FC018EED92E091838083A6
:100E6000138212828FEF848382878387148615868C
:100E7000108A1786128A118A148A138A089508958F
:100E80000895FC01758364830895FC01778366836C
:100E90000895FC01738362830895FC018AE093E066
:100EA000918380837383628355834483378326834E
:100EB00008956EBD00000DB407FEFDCF8EB50895F8
:100EC0008CB580688CBD08958CB58F778CBD0895E6
:100ED0000C942B032CB5982F93702C7F922B9CBDD8
:100EE0009DB582FB882780F99E7F982B9DBD089534
:100EF000CF93FC01268137812115310579F021300E
:100F0000310541F02230310539F02330310531F41B
:100F10009CE005C094E003C098E001C090E08CB56F
:100F2000837F892B8CBD84819581019719F48CB5C1
:100F3000806202C08CB58F7D8CBD828193810197C8
:100F40008430910528F4FC01E65EFC4FC08101C0AD
:100F5000C1E08C2F0E946A070E94F5028C2FCF916E
:100F60000C946A07CF93DF93EC010E944D0782E255
:100F700093E099838883DF91CF91089520E030E05A
:100F800040E050E060E070E08DE894E00C94B2073F
:100F9000CF93DF93EC018D899E89DC01ED91FC916B
:100FA0000680F781E02D099561E08F890E94D20FBC
:100FB00061E08F890E940B1064E670E080E090E0B1
:100FC0000E94290F81E0DF91CF910895EF92FF9267
:100FD0000F931F93CF93DF931F92CDB7DEB77C01A2
:100FE0008A0169830E942B0786E393E0F7019183CE
:100FF0008083168B058B6981678B0F90DF91CF9172
:101000001F910F91FF90EF9008950F931F93CF932F
:10101000DF93EC01062F1FB7F89460E08F890E94E0
:101020000B108D899E89DC01ED91FC910190F0817E
:10103000E02D602F0995082F61E08F890E940B1029
:101040001FBF802FDF91CF911F910F9108950F93B4
:101050001F93CF93DF93EC01062F1FB7F89460E046
:101060008F890E940B108D899E89DC01ED91FC9186
:101070000190F081E02D602F09958D899E89DC011A
:10108000ED91FC910190F081E02D60E00995082F31
:1010900061E08F890E940B101FBF802FDF91CF91DD
:1010A0001F910F910895EF92FF920F931F93CF938B
:1010B000DF931F92CDB7DEB77C01162F0FB7F894E0
:1010C00060E0DC0157968C9149830E940B10F70178
:1010D00085899689DC01ED91FC910190F081E02DEC
:1010E000612F0995182FF70185899689DC01ED910B
:1010F000FC910190F081E02D4981642F099561E018
:10110000F70187890E940B100FBF812F0F90DF918D
:10111000CF911F910F91FF90EF900895AF92BF92E2
:10112000DF92EF92FF920F931F93CF93DF9300D044
:10113000CDB7DEB78C01D62EF22EEFB6F89460E074
:10114000DC0157968C9149835A830E940B10F80159
:1011500085899689DC01ED91FC910190F081E02D6B
:101160006D2D0995D82E4981A42E5A81B52EF40EE5
:10117000FA1479F0F80185899689DC01ED91FC91EA
:101180000190F081E02D60E00995F50181935F0108
:10119000EFCF61E0D80157968C910E940B10EFBE03
:1011A0008D2D0F900F90DF91CF911F910F91FF9098
:1011B000EF90DF90BF90AF900895AF92BF92DF9213
:1011C000EF92FF920F931F93CF93DF9300D0CDB791
:1011D000DEB78C01D62EF22EEFB6F89460E0DC017B
:1011E00057968C9149835A830E940B10F801858988
:1011F0009689DC01ED91FC910190F081E02D6D2D3F
:101200000995D82E4981A42E5A81B52EF40EFA14D0
:1012100071F0F80185899689D5016D915D01DC0138
:10122000ED91FC910190F081E02D0995F0CF61E006
:10123000F80187890E940B10EFBE8D2D0F900F9043
:10124000DF91CF911F910F91FF90EF90DF90BF90B2
:10125000AF900895CF93DF93EC018F890E944110E6
:1012600021E0892B09F420E08A8D8227DF91CF913C
:101270000895FC01808D0C940B10FC01238D6227D6
:10128000818D0C940B10CF93DF93EC018A819B81AD
:10129000029761F060E0CE010E943D0960E0CE015E
:1012A0000E94390982E090E09B838A83DF91CF918D
:1012B0000895862F86958695887098E0980F8917EF
:1012C00049F0E82FF0E0E25AFC4F2081621719F054
:1012D0008F5FF5CF80E008951F93CF93DF93EC01EC
:1012E0000E942A09882319F09F8D9F5F9F8F9E8DF2
:1012F000891771F098A1903518F42BE030E002C006
:101300002DE130E098A1290F311D28A38E8F03C055
:1013100088A18C5E88A388A1803A08F46EC08AA157
:101320009BA1969587959BA38AA38F8D853028F0E6
:101330008AA19BA198609BA38AA388A1805A88A3B5
:101340001F8E89A1882309F446C08CA18F5F8CA3CE
:101350008C3008F452C06AA17BA16F73CE010E9449
:101360005909182F6AA17BA146E0769567954A95A1
:10137000E1F7CE010E94590990E1199F90011124D3
:10138000822BBE0167597F4FFB019081DE01A85976
:10139000BF4F9923B1F0FB01908121E0290F2083F9
:1013A000AE01490F511DFA0185A3FB0190818C917B
:1013B000981778F019A281E08C8FCE010E94430922
:1013C00008C08C939C91973090F09C91943478F461
:1013D000E2CF1CA212C08AA19BA188339B4069F472
:1013E00081E089A31CA2C759DF4F188206C019A249
:1013F0008F8598890196988B8F87DF91CF911F9168
:101400000895CF92DF92EF92FF920F931F93CF93A5
:10141000DF93EC018C0104591F4FF801808191E0AA
:10142000980F9083811136C06E01FAE6CF0ED11C61
:10143000F6018081EF56FF4F9081891748F0CE0169
:101440000E9443098B899C8901969C8B8B8B22C0BF
:10145000FE01E80FF11DE359FF4F608170E07E014E
:10146000FBE6EF0EF11CF701808191E0980F90836D
:1014700002C0759567958A95E2F76170CE010E946A
:101480003909F7018081863028F01082F6018081C9
:101490008F5F8083F8018081883008F01082DF91AF
:1014A000CF911F910F91FF90EF90DF90CF90089513
:1014B000FC01228133812430310511F40C946C0934
:1014C000FC01228133812330310511F40C94010A8F
:1014D00008951F920F920FB60F9211242F933F93EE
:1014E0004F935F936F937F938F939F93AF93BF932C
:1014F000EF93FF9380919504909196040E94580A6F
:10150000FF91EF91BF91AF919F918F917F916F91DB
:101510005F914F913F912F910F900FBE0F901F90B1
:1015200018958CE10895DF92EF92FF920F931F932D
:10153000CF93DF93EC017B018A01E881F98102807E
:10154000F381E02D0995D82E8823F1F0E114F10400
:10155000C9F001151105B1F08A8D282F30E0235014
:101560003109F801408150E04217530714F08450CC
:101570008083F801408150E0BE01615E7F4FC7016A
:101580000E94B5131BAE1A8E8D2DDF91CF911F9146
:101590000F91FF90EF90DF9008951F93CF93DF930B
:1015A000EC01162F642FA9010E94E60782E793E061
:1015B000998388831BAE8CE0888F198FDF91CF9140
:1015C0001F9108956F7160620C945308CF93DF935D
:1015D000EC018A819B81019771F040E060E0CE01CF
:1015E0000E94E20A60E0898D0E940B1081E090E089
:1015F0009B838A8301C080E0DF91CF9108956FEFD4
:101600000C94050861EE0C94050862EE0C94050834
:10161000462F4F7765E00E94E20A81E00895440F6B
:10162000551F46706230710511F4406204C061308C
:10163000710509F44860416066E00E94E20A81E0B9
:101640000895CF93DF93EC018A819B81029769F023
:10165000488D60E0CE010E94E20A60E0898D0E9420
:101660000B1082E090E09B838A83DF91CF910895F5
:101670001F93CF93DF93EC018A819B810397D1F471
:10168000CE010E94FF0A182F807319F40E94600E89
:10169000F7CF14FF03C0CE010E94020BCE010E94BF
:1016A000210B40E367E0CE010E94E20A15FB882788
:1016B00080F901C080E0DF91CF911F910895CF9311
:1016C000DF93EC018A819B81049771F0488D436020
:1016D00060E0CE010E94E20A61E0898D0E940B1059
:1016E00084E090E09B838A83DF91CF910895CF932C
:1016F000DF93EC018A819B810397B9F060E0898DCB
:101700000E940B1040E367E0CE010E94E20A488D80
:10171000426060E0CE010E94E20A61E0898D0E9491
:101720000B1083E090E09B838A83DF91CF91089533
:101730001F93CF93DF93EC01142F4D3100F58A8571
:101740008B8F8B858C8F8C858D8F8D858E8F50E0C8
:10175000CE014F960E94B51324E0210FAE01455EE5
:101760005F4F60EBCE010E94DD08CE010E94770B37
:101770008B899C8901969C8B8B8B81E001C080E0DA
:10178000DF91CF911F910895FC01828D8430C8F0C4
:10179000838D8683848D8783858D8087868D8187E1
:1017A0008581811107C096818481981719F08681FF
:1017B0008F3F39F4818992890196928B818B81E0E8
:1017C00083AF08950F931F93CF93DF93EC011BAD6D
:1017D000111134C02A813B812330310581F10E94EF
:1017E0005F0B67E1CE010E94270880FD28C060E6FC
:1017F000CE010E942708082F813248F0CE010E94B6
:10180000050B1BAE1A8ECE010E94210B18C040E4BE
:1018100067E0CE010E94E20A202FAE01455E5F4FD5
:1018200061E6CE010E948E080A8FCE010E94C40B91
:101830008BAD882319F0CE010E94210B1BAD812FA7
:10184000DF91CF911F910F9108951F93CF93DF9355
:10185000EC018D899E89DC01ED91FC910684F78570
:10186000E02D60E070E00995CE010E94C807182FB6
:10187000811102C010E044C061E0898D0E94D20F46
:1018800060E0898D0E940B1040E767E0CE010E9466
:10189000E20A4FE36CE1CE010E94E20A45E06DE10D
:1018A000CE010E94E20A6DE1CE010E942708853038
:1018B000A9F4CE010E94210BCE010E94020BCE01A1
:1018C0000E94050B62E0CE010E94080B43E050E04D
:1018D00061E070E0CE010E940F0B12C043E760E5AB
:1018E000CE010E94530845E06DE1CE010E94E20A5C
:1018F0006DE1CE010E942708853009F0BBCFD9CF1A
:10190000812FDF91CF911F910895603292E0790786
:101910003CF0613699E079072CF060E679E002C08E
:1019200060E272E06850710990E09B01220F232F62
:10193000221F330BFC01EE0FFF1FE80FF91FE556C6
:10194000FB4F2183660F6095628308951F920F926B
:101950000FB60F9211242F933F934F935F936F9382
:101960007F938F939F93AF93BF93EF93FF93809158
:1019700099048F5F809399042091990480919A042F
:1019800090E0FC01EE0FFF1FE80FF91FE556FB4F3B
:10199000818128130EC080919A0490E0FC01EE0F23
:1019A000FF1FE80FF91FE556FB4F82818093B200BD
:1019B00060C02091990480919A0490E0FC01EE0FA0
:1019C000FF1FE80FF91FE556FB4F8181821708F0D2
:1019D00050C080919A0490E0FC01EE0FFF1FE80FC9
:1019E000F91FE556FB4F808185FF0FC080919A0457
:1019F00090E0FC01EE0FFF1FE80FF91FE556FB4FCB
:101A0000808160E08F710E940B1080919A048F5F3B
:101A100080939A04109299041092B20080919A04D3
:101A2000882309F180919A048930E8F480919A041E
:101A300090E0FC01EE0FFF1FE80FF91FE556FB4F8A
:101A4000808185FF16C080919A0490E0FC01EE0F22
:101A5000FF1FE80FF91FE556FB4F808161E08F7192
:101A60000E940B1006C080919A04893010F01092E9
:101A70009A04FF91EF91BF91AF919F918F917F91C8
:101A80006F915F914F913F912F910F900FBE0F90EB
:101A90001F90189520919804283030F42F5F2093E0
:101AA0009804FC0120830895FC01108208950F938F
:101AB0001F93CF93DF93EC01062F80919704811140
:101AC0001FC011E06CED75E0812F0E94850C1F5F37
:101AD0001930C1F78EE380939C0410929A041092FF
:101AE0009904109270001092B00082E08093B100CF
:101AF0001092B20091E097BB90937000909397047E
:101B00008881882399F061E0802F0E94D20F28817C
:101B100030E0F901EE0FFF1FE20FF31FE556FB4F18
:101B20000F719081907E902B906290838881DF91DD
:101B3000CF911F910F9108950F931F93CF93DF9330
:101B4000EC01662359F00E94FA0E69837A838B8335
:101B50009C83DF91CF911F910F9108950E94FA0EFF
:101B600009811A812B813C81601B710B820B930BC5
:101B7000623371058105910530F763E070E080E024
:101B800090E00E94290FEACF60E00C949C0DFC01CC
:101B900013AA14AA15AA16AA1182128213821482F9
:101BA000411551056105710521F0CB01BA010C9475
:101BB000290F0895FB01BA01A901DC01D296FC931B
:101BC000EE93D19726E0CF010C944F111F93CF9342
:101BD000DF93EC01162F6AE973E089A99AA90E94A4
:101BE000A4124AE050E0612F89A99AA90E948113AA
:101BF00061EA73E089A99AA90E94A41262E370E0E5
:101C000080E090E0DF91CF911F910C94290F1F93FA
:101C1000CF93DF93EC01162F8D81882389F189A959
:101C20009AA9DC01ED91FC910480F581E02D0995E4
:101C3000892BA9F307C02637310519F1283531055D
:101C400009F41D8289A99AA9DC01ED91FC91048017
:101C5000F581E02D09951816190694F489A99AA919
:101C6000DC01ED91FC910680F781E02D09959C0146
:101C7000332723363105F9F6612FCE010E94E60D98
:101C800083E6DF91CF911F9108950F931F93CF9318
:101C9000DF931F92CDB7DEB78C01662349F081E058
:101CA000F801858360E0C80149830E94070E4981DD
:101CB000F80145830F90DF91CF911F910F91089507
:101CC000089508951F920F920FB60F9211242F932B
:101CD0003F934F935F936F937F938F939F93AF93B4
:101CE000BF93EF93FF93E0910401F09105010995F3
:101CF000FF91EF91BF91AF919F918F917F916F91E4
:101D00005F914F913F912F910F900FBE0F901F90B9
:101D100018951F920F920FB60F9211242F933F9395
:101D20004F935F936F937F938F939F93AF93BF93E3
:101D3000EF93FF93E0910601F09107010995FF9160
:101D4000EF91BF91AF919F918F917F916F915F9133
:101D50004F913F912F910F900FBE0F901F901895AC
:101D60001F920F920FB60F9211242F933F938F93D0
:101D70009F93AF93BF938091EE049091EF04A09155
:101D8000F004B091F1043091ED0423E0230F2D37DE
:101D900020F40196A11DB11D05C026E8230F02966F
:101DA000A11DB11D2093ED048093EE049093EF04E8
:101DB000A093F004B093F1048091F2049091F304A5
:101DC000A091F404B091F5040196A11DB11D80937A
:101DD000F2049093F304A093F404B093F504BF913C
:101DE000AF919F918F913F912F910F900FBE0F90C8
:101DF0001F9018952FB7F8946091EE047091EF043E
:101E00008091F0049091F1042FBF08953FB7F894AA
:101E10008091F2049091F304A091F404B091F50440
:101E200026B5A89B05C02F3F19F00196A11DB11D35
:101E30003FBF6627782F892F9A2F620F711D811D52
:101E4000911D42E0660F771F881F991F4A95D1F7B1
:101E500008958F929F92AF92BF92CF92DF92EF92AE
:101E6000FF926B017C010E94060F4B015C01C114C3
:101E7000D104E104F104F1F00E94600E0E94060F0B
:101E8000681979098A099B09683E734081059105A3
:101E900070F321E0C21AD108E108F10888EE880E3B
:101EA00083E0981EA11CB11CC114D104E104F1040B
:101EB00029F7DDCFFF90EF90DF90CF90BF90AF90EC
:101EC0009F908F9008958230910538F0880F991F68
:101ED000880F991F05970197F1F70895789484B5B5
:101EE000826084BD84B5816084BD85B5826085BD16
:101EF00085B5816085BDEEE6F0E0808181608083FC
:101F0000E1E8F0E0108280818260808380818160DE
:101F10008083E0E8F0E0808181608083E1EBF0E0A5
:101F2000808184608083E0EBF0E080818160808349
:101F3000EAE7F0E080818460808380818260808332
:101F40008081816080838081806880831092C1005D
:101F50000895833081F028F4813099F08230A1F027
:101F600008958730A9F08830B9F08430D1F4809199
:101F700080008F7D03C0809180008F7780938000E8
:101F8000089584B58F7702C084B58F7D84BD089590
:101F90008091B0008F7703C08091B0008F7D8093D7
:101FA000B0000895CF93DF9390E0FC01E458FE4F1A
:101FB0002491FC01E057FE4F8491882349F190E081
:101FC000880F991FFC01E854FE4FA591B4918255EA
:101FD0009E4FFC01C591D4919FB7611108C0F89440
:101FE0008C91209582238C93888182230AC0623051
:101FF00051F4F8948C91322F309583238C938881FF
:10200000822B888304C0F8948C91822B8C939FBF81
:10201000DF91CF9108950F931F93CF93DF931F927A
:10202000CDB7DEB7282F30E0F901E859FE4F849193
:10203000F901E458FE4F1491F901E057FE4F049165
:102040000023C9F0882321F069830E94A90F6981C8
:10205000E02FF0E0EE0FFF1FE255FE4FA591B49187
:102060009FB7F8948C91611103C01095812301C032
:10207000812B8C939FBF0F90DF91CF911F910F9178
:102080000895CF93DF93282F30E0F901E859FE4FF0
:102090008491F901E458FE4FD491F901E057FE4FC5
:1020A000C491CC2391F081110E94A90FEC2FF0E094
:1020B000EE0FFF1FEC55FE4FA591B4912C912D23EF
:1020C00081E090E021F480E002C080E090E0DF91C8
:1020D000CF9108950E94B013FC01818D228D90E074
:1020E000805C9F4F821B91098F7399270895FC0193
:1020F000918D828D981731F0828DE80FF11D858DBD
:1021000090E008958FEF9FEF0895FC01918D828DEF
:10211000981761F0828DDF01A80FB11D5D968C913B
:10212000928D9F5F9F73928F90E008958FEF9FEF46
:10213000089589E092E1892B49F080E090E0892BB5
:1021400029F00E94091281110C9400000895FC01ED
:10215000848DDF01A80FB11DA35ABF4F2C91848D30
:1021600090E001968F739927848FA689B7892C9365
:10217000A089B1898C9180648C93938D848D981300
:1021800006C00288F389E02D80818F7D80830895C9
:10219000CF93DF93EC01888D8823C9F0EA89FB890E
:1021A000808185FD05C0A889B9898C9186FD0FC005
:1021B0000FB607FCF5CF808185FFF2CFA889B989DA
:1021C0008C9185FFEDCFCE010E94A710E7CFDF9164
:1021D000CF910895CF92DF92FF920F931F93CF93E9
:1021E000DF931F92CDB7DEB76C0181E0D601589620
:1021F0008C9358975B969C915B975C968C915C97BF
:10220000981307C05096ED91FC915197808185FD00
:102210002EC0F601038D10E00F5F1F4F0F731127C3
:10222000F02EF601848DF81211C00FB607FCF9CF1D
:10223000D6015096ED91FC915197808185FFF1CFA9
:10224000C60169830E94A7106981EBCF838DE80FD7
:10225000F11DE35AFF4F6083D6015B960C935B97A9
:102260005296ED91FC915397808180620CC0D6010B
:102270005696ED91FC91579760835096ED91FC91A5
:10228000519780818064808381E090E00F90DF919E
:10229000CF911F910F91FF90DF90CF900895BF9243
:1022A000CF92DF92EF92FF92CF93DF93EC016A011E
:1022B0007B01B22EE889F98982E08083411581EEA5
:1022C000580761057105A1F060E079E08DE390E0C9
:1022D000A70196010E948813215031094109510933
:1022E0005695479537952795211580E1380798F041
:1022F000E889F989108260E874E88EE190E0A7012E
:1023000096010E94881321503109410951095695BF
:10231000479537952795EC85FD853083EE85FF85BC
:102320002083188EEC89FD89B082EA89FB8980813F
:1023300080618083EA89FB89808188608083EA8963
:10234000FB89808180688083EA89FB8980818F7D19
:102350008083DF91CF91FF90EF90DF90CF90BF907F
:1023600008951F920F920FB60F9211242F938F93FF
:102370009F93EF93FF93E0910605F091070580810D
:10238000E0910C05F0910D0582FD12C090818091C5
:102390000F058F5F8F7320911005821751F0E09128
:1023A0000F05F0E0EA50FB4F958F80930F0501C0B9
:1023B0008081FF91EF919F918F912F910F900FBE90
:1023C0000F901F9018951F920F920FB60F92112425
:1023D0002F933F934F935F936F937F938F939F932D
:1023E000AF93BF93EF93FF9386EF94E00E94A71003
:1023F000FF91EF91BF91AF919F918F917F916F91DD
:102400005F914F913F912F910F900FBE0F901F90B2
:10241000189586EF94E00E946C1021E0892B09F456
:1024200020E0822F08951092F9041092F80488EEAB
:1024300093E0A0E0B0E08093FA049093FB04A093B3
:10244000FC04B093FD0486EF93E09093F70480932F
:10245000F60485EC90E0909303058093020584ECEC
:1024600090E0909305058093040580EC90E09093B4
:1024700007058093060581EC90E090930905809311
:10248000080582EC90E090930B0580930A0586EC9A
:1024900090E090930D0580930C0510920F0510921B
:1024A00010051092110510921205089508950E94CA
:1024B0006E0F0E9456120E947901C9E9D0E10E9474
:1024C00094022097E1F30E949910F9CFCF92DF9206
:1024D000EF92FF920F931F93CF93DF937C016A01DA
:1024E000EB0100E010E00C151D0571F06991D701BA
:1024F000ED91FC910190F081E02DC7010995892BA8
:1025000019F00F5F1F4FEFCFC801DF91CF911F91DF
:102510000F91FF90EF90DF90CF90089561157105B6
:1025200081F0DB010D900020E9F7AD014150510928
:10253000461B570BDC01ED91FC910280F381E02DED
:10254000099480E090E008950C948E12DC01ED91E6
:10255000FC910190F081E02D099467EA73E00C94FE
:102560008E120F931F93CF93DF93EC010E948E1274
:102570008C01CE010E94AD12800F911FDF91CF918F
:102580001F910F9108958F929F92AF92BF92DF9209
:10259000EF92FF920F931F93CF93DF93CDB7DEB7E8
:1025A000A1970FB6F894DEBF0FBECDBF7C01F42F0C
:1025B000D52ECB0119A2223008F42AE08E010F5D3E
:1025C0001F4F822E912CA12CB12C6F2F7D2DA50198
:1025D00094010E948813F22FD32ECA0101501109D1
:1025E0006A3014F4E0E301C0E7E3E60FD801EC93AE
:1025F000232B242B252B49F7B801C7010E948E12EB
:10260000A1960FB6F894DEBF0FBECDBFDF91CF917C
:102610001F910F91FF90EF90DF90BF90AF909F9030
:102620008F900895CF92DF92EF92FF920F931F93B6
:10263000CF93DF93EC016A017B012115310579F419
:10264000E881F9810190F081E02D642FDF91CF9135
:102650001F910F91FF90EF90DF90CF9009942A3057
:102660003105E9F477FF1AC06DE20E94A6128C01D1
:1026700044275527BA014C195D096E097F092AE0E4
:10268000CE010E94C312800F911FDF91CF911F9145
:102690000F91FF90EF90DF90CF9008952AE0B7015F
:1026A000A601CE01DF91CF911F910F91FF90EF9086
:1026B000DF90CF900C94C3120F931F93CF93DF93AF
:1026C000EC019A01AB01662757FD6095762F0E94B9
:1026D00012138C01CE010E94AD12800F911FDF9169
:1026E000CF911F910F9108952115310541F4DC011F
:1026F000ED91FC910190F081E02D642F09940C94F0
:10270000C3129A01462F50E060E070E00C947413FD
:10271000A1E21A2EAA1BBB1BFD010DC0AA1FBB1FE5
:10272000EE1FFF1FA217B307E407F50720F0A21B57
:10273000B30BE40BF50B661F771F881F991F1A94C4
:1027400069F760957095809590959B01AC01BD01EE
:10275000CF010895EE0FFF1F0590F491E02D09942D
:1027600081E090E0F8940C94BE13FB01DC0102C000
:1027700001900D9241505040D8F70895F894FFCF42
:1027800001000000610E610E41726D20746F206EB9
:1027900065757472616C20706F736974696F6E0017
:1027A0004772616262657220746F206E6575747223
:1027B000616C20706F736974696F6E00477261623B
:1027C00062696E67004772616262657220746F2091
:1027D000706F736974696F6E200041726D20746F41
:1027E00020706F736974696F6E2000537465707325
:1027F000697A653A20004D6F746F72737065656415
:102800003A200061726D206F66667365743A20002D
:102810002020007475726E696E67206F6E6520727D
:102820006F756E643A200074657374696E67205228
:10283000504D3A200054656D706572617475726513
:1028400020666F7220446576696365203120697364
:102850003A2000696E6974206661696C6564007372
:1028600065744368616E6E656C206661696C656451
:10287000007365745246206661696C656400564D4C
:102880004450565F317C315F564D4450560D0A001E
:10289000526563656976696E67206D6573736167FC
:1028A000652E2E004D6573736167652072656365E3
:1028B000697665642E00204C656E6774683A200066
:1028C000204D6573736167653A2000417474656DCE
:1028D0007074696E6720636F6E6669726D6174698A
:1028E0006F6E2E2E004F4B53544F5000434F4E46A9
:1028F00049524D45440035207365636F6E64207402
:10290000696D656F75740053656E64696E67206DDF
:102910006573736167652E2E00417474656D702058
:10292000737461727465642E2E00417474656D70E9
:102930007420636F6E6669726D6174696F6E2E00CC
:102940004D65737361676520737563636573667541
:102950006C6C792073656E742E00000000007C069C
:102960006A106A106A106A10A206B406F906C20656
:102970008106840687068A068D067E0694069706DB
:102980009A069D06A006000000006A103F07400757
:102990006A106A1041074507490705000404000052
:1029A0000000590760076407780768074107450773
:1029B000490700000000C8076A106A106A106A1010
:1029C000A206B406F906C2068106840687068A06B0
:1029D0008D067E06940697069A069D06A0060D0EA5
:1029E000131516191A1C232526292A2C3234000007
:1029F0000000250CE20B930A980B910AA206380BF3
:102A0000F906C2068106840687068A068D067E06BA
:102A1000940697069A069D06E60A564D4450435F73
:102A2000005F564D4450430D0A004572726F723A72
:102A300020417474656D707420746F207365742008
:102A40006120726561642D6F6E6C792076617269A8
:102A500061626C65206F72206461746120747970AA
:102A600065206E6F7420737570706F727465640D7D
:102A70000A0000000000EA1066126C108510771042
:0E2A8000C8106E616E00696E66006F766600AB
:00000001FF
