:100000000C946E000C94D40A0C94FB0A0C94960089
:100010000C9496000C9496000C9496000C94960008
:100020000C9496000C9496000C9496000C94F20795
:100030000C9496000C9496000C9496000C949600E8
:100040000C94220B0C9496000C94180E0C944A0EEF
:100050000C9496000C9496000C9496000C949600C8
:100060000C9496000C949600C302C902D302E102DC
:10007000E302E902F3020103130315030000000881
:10008000000201000003040700000000000000005F
:10009000010204081020408001020408102001021F
:1000A00004081020040404040404040402020202EC
:1000B00002020303030303030000000023002600E1
:1000C000290000000000250028002B00000000008F
:1000D000240027002A00980047057A0E11241FBE2D
:1000E000CFEFD8E0DEBFCDBF12E0A0E0B1E0ECED95
:1000F000F0E202C005900D92A83CB107D9F724E0C8
:10010000A8ECB2E001C01D92AD30B207E1F710E0FB
:10011000CCEDD0E004C02297FE010E944610C63DFF
:10012000D107C9F70E94BE0E0C946C100C9400000D
:10013000EF92FF920F931F9326E233E04AE068E0CC
:1001400088EE92E00E94560886E0E82EF12C05E049
:1001500010E024E030E043E050E068EC70E08EEC2A
:1001600092E00E94F5011F910F91FF90EF9008958A
:1001700040ED57E060E070E080E393E00E94390AD0
:1001800020E835E240E050E060E773E080E393E090
:100190000E944C0A80E393E00E94360A6AE071E014
:1001A00080916103909162030E940B0F6AE070E0FE
:1001B00080E090E00E949B0B41E060E080E393E0F0
:1001C0000E94B70A26E040E855E260E070E080E770
:1001D00093E00E94B60D88EE92E00E94AE09811174
:1001E00006C06CE171E080E793E00E94180F61E0C7
:1001F00088EE92E00E949108811106C068E271E0E9
:1002000080E793E00E94180F43E050E061E070E067
:1002100088EE92E00E949808811106C06AE371E0BE
:1002200080E793E00C94180F0895CF92DF92EF923D
:10023000FF920F931F93CF93DF93CDB7DEB7AA97AB
:100240000FB6F894DEBF0FBECDBF0E946C0B0091BD
:10025000C8021091C9022091CA023091CB026B01F1
:100260007C01C01AD10AE20AF30A48EEC41643E040
:10027000D406E104F10408F45EC06093C8027093F0
:10028000C9028093CA029093CB0267E471E080E7D1
:1002900093E00E94180F8DE0E4E8F1E0DE015D9646
:1002A00001900D928A95E1F74DE0BE01635E7F4FAC
:1002B00088EE92E00E94210988EE92E00E94C10837
:1002C0008CE18AA7E091E802F091E9020088F189C7
:1002D000E02D64EF71E088EE92E00995882359F1F2
:1002E000AE01465D5F4FBE016F5F7F4F88EE92E0CB
:1002F0000E941C088823C9F06FE571E080E793E055
:100300000E940B0FBE016F5F7F4F80E793E00E945A
:10031000180F8091040190910501919581959109A3
:10032000909305018093040106C06BE671E080E7BD
:1003300093E00E94180F80E793E00E94EC0C8D324E
:10034000910559F080339105A1F08B9731F580919B
:10035000CC029091CD020A9607C08091CC02909178
:10036000CD020A9797FD05C09093CD028093CC02F1
:1003700004C01092CD021092CC0267E771E080E7D2
:1003800093E00E940B0F6091CC027091CD024AE085
:1003900050E080E793E00E94C30F4091CC0250915F
:1003A000CD021416150694F4662757FD6095762F36
:1003B0008EEC92E00E942B02609104017091050185
:1003C000660F771F8EEC92E00E943203AA960FB65A
:1003D000F894DEBF0FBECDBFDF91CF911F910F917B
:1003E000FF90EF90DF90CF900895EF92FF920F93E0
:1003F0001F93CF93DF93EC01842F1B861A861982FB
:1004000018821E8A1F8A188E198E7F836E834C87EE
:100410005D873F872E87198B088BFB8AEA8A61E00C
:100420000E94390C61E08E850E94390C61E0888958
:100430000E94390C61E08A890E94390C1D8A1C8A4D
:1004400084E090E099878887DF91CF911F910F9189
:10045000FF90EF900895CF92DF92EF92FF92CF93AB
:10046000DF93EC016A017B012E813F81442737FD38
:100470004095542F60E077E883E993E00E942510CF
:10048000CA01B901A70196010E9425102A833B8366
:100490004C835D83DF91CF91FF90EF90DF90CF9001
:1004A00008950F931F93CF93DF93EC018B01888501
:1004B00099850297F9F46130710571F02CF461159A
:1004C0007105C1F460E009C06230710559F0633014
:1004D000710581F460E007C061E08C850E94720CB8
:1004E00061E005C061E08C850E94720C60E08E8541
:1004F0000E94720C888599850497B9F50130110521
:10050000B1F04CF40115110581F561E08C850E9474
:10051000720C60E011C002301105B9F00330110512
:1005200021F561E08C850E94720C60E013C060E0F0
:100530008C850E94720C61E08E850E94720C61E0D5
:1005400088890E94720C60E00DC060E08C850E947A
:10055000720C61E08E850E94720C60E088890E94B6
:10056000720C61E08A890E94720C888599850597D2
:1005700009F073C00A30110508F06FC0F801EC5C97
:10058000FF4F0C94441060E08C850E94720C61E077
:1005900051C060E08C850E94720C61E08E850E94E3
:1005A000720C60E04BC060E08C850E94720C61E0D0
:1005B0008E850E94720C60E088890E94720C61E056
:1005C00041C060E001C061E08C850E94720C61E076
:1005D00005C061E08C850E94720C60E08E850E94EF
:1005E000720C60E009C061E08C850E94720C60E0D2
:1005F0008E850E94720C61E088890E94720C61E015
:100600000DC061E08C850E94720C60E08E850E94B6
:10061000720C61E088890E94720C60E08A890E94F5
:10062000720C60E013C061E001C060E08C850E9444
:10063000720C60E08E850E94720C61E088890E94D5
:10064000720C60E08A890E94720C61E08C89DF91F3
:10065000CF911F910F910C94720CDF91CF911F914C
:100660000F9108954F925F926F927F928F929F9217
:10067000AF92BF92CF92DF92EF92FF920F931F93B0
:10068000CF93DF93EC01CB0177FF04C08827992734
:10069000861B970B6C01161617062CF481E090E070
:1006A0009983888304C0672B11F01982188204E0B3
:1006B00010E08AE0E82EF12CC114D10409F44AC0FC
:1006C0000E94780B8E889F88A88CB98C2B013C01E6
:1006D000481859086A087B088A809B80AC80BD80D6
:1006E000481459046A047B0458F36E8B7F8B888FFF
:1006F000998F288139818A859B852130310559F46C
:1007000001969B878A872E813F818217930771F418
:100710001B861A860BC0892B21F48E819F819B87B3
:100720008A878A859B8501979B878A8781E0C81A7B
:10073000D108288539858A859B852530310511F4B6
:10074000B70101C0B8010E94EF0FBC01CE010E94A9
:100750005102B2CFDF91CF911F910F91FF90EF9097
:10076000DF90CF90BF90AF909F908F907F906F90D1
:100770005F904F900895CF93CFB7F8948091250361
:10078000811127C0EEEAF0E08491EAE9F0E094916B
:10079000E82FF0E0EE0FFF1FE453FF4FA591B49157
:1007A0008C91892321F461E08AE00E94720C61E05F
:1007B0008AE00E94390C8CB580618CBD8CB5806458
:1007C0008CBD61E08DE00E94390C61E08BE00E94FD
:1007D000390C809125038F5F80932503CFBFCF9184
:1007E00008959FB7F89480912503882319F08150CC
:1007F0008093250380912503811105C08CB58F7BE3
:100800008CBD109224039FBF089581E00895FC01E0
:1008100065830895FC0164830895FC01628708954F
:10082000FC0163870895FC01648708954095FC01ED
:1008300025854223462B45870895FC01868108952E
:10084000FC0187810895FC0180850895FC01818564
:10085000089580E00895CF93DF93EC01E881F9815A
:100860000280F381E02DCE010995811103C00E9421
:10087000D20AF4CFDF91CF910895CF93DF93EC01AB
:100880008A819B81039719F40E94D20AF9CF81E0F3
:10089000DF91CF9108958F929F92AF92BF92CF92A6
:1008A000DF92EF92FF92CF93DF93EC016B010E94F6
:1008B0006C0B4B015C01E12CF12C0E946C0B681954
:1008C00079098A099B096C157D058E059F0560F4E1
:1008D000E881F9810280F381E02DCE010995811133
:1008E00005C00E94D20AE9CF80E001C081E0DF911B
:1008F000CF91FF90EF90DF90CF90BF90AF909F90FF
:100900008F9008958F929F92AF92BF92CF92DF9275
:10091000EF92FF92CF93DF93EC016B010E946C0B7F
:100920004B015C01E12CF12C0E946C0B68197909D8
:100930008A099B096C157D058E059F0538F48A810F
:100940009B81039729F40E94D20AEECF80E001C078
:1009500081E0DF91CF91FF90EF90DF90CF90BF903B
:10096000AF909F908F900895FC0185E991E091836D
:100970008083138212828FEF848382878387148619
:100980001586108A1786128A118A148A138A089586
:1009900008950895FC01758364830895FC017783AD
:1009A00066830895FC01738362830895FC0181ECE2
:1009B00091E091838083738362835583448337837B
:1009C000268308956EBD00000DB407FEFDCF8EB5E1
:1009D00008958CB580688CBD08958CB58F778CBDDB
:1009E00008950C94F1032CB5982F93702C7F922BC3
:1009F0009CBD9DB582FB882780F99E7F982B9DBD6D
:100A00000895CF93FC01268137812115310579F0B6
:100A10002130310541F02230310539F023303105E4
:100A200031F49CE005C094E003C098E001C090E080
:100A30008CB5837F892B8CBD84819581019719F4B6
:100A40008CB5806202C08CB58F7D8CBD8281938114
:100A500001978430910528F4FC01EF52FE4FC081CC
:100A600001C0C1E08C2F0E94F3040E94BB038C2FB5
:100A7000CF910C94F304CF93DF93EC010E94D60442
:100A800089ED91E099838883DF91CF91089520E0EB
:100A900030E040E050E060E070E086E293E00C94EB
:100AA0003B05CF93DF93EC018D899E89DC01ED91AD
:100AB000FC910680F781E02D099561E08F890E9405
:100AC000390C61E08F890E94720C64E670E080E06E
:100AD00090E00E949B0B81E0DF91CF910895EF920F
:100AE000FF920F931F93CF93DF931F92CDB7DEB783
:100AF0007C018A0169830E94B4048DEE91E0F701C4
:100B000091838083168B058B6981678B0F90DF91B2
:100B1000CF911F910F91FF90EF9008950F931F9326
:100B2000CF93DF93EC01062F1FB7F89460E08F8915
:100B30000E94720C8D899E89DC01ED91FC910190DF
:100B4000F081E02D602F0995082F61E08F890E94C8
:100B5000720C1FBF802FDF91CF911F910F910895CD
:100B60000F931F93CF93DF93EC01062F1FB7F894D9
:100B700060E08F890E94720C8D899E89DC01ED9165
:100B8000FC910190F081E02D602F09958D899E895F
:100B9000DC01ED91FC910190F081E02D60E0099580
:100BA000082F61E08F890E94720C1FBF802FDF9198
:100BB000CF911F910F910895EF92FF920F931F9382
:100BC000CF93DF931F92CDB7DEB77C01162F0FB7FF
:100BD000F89460E0DC0157968C9149830E94720C76
:100BE000F70185899689DC01ED91FC910190F081F6
:100BF000E02D612F0995182FF70185899689DC0171
:100C0000ED91FC910190F081E02D4981642F0995CF
:100C100061E0F70187890E94720C0FBF812F0F904E
:100C2000DF91CF911F910F91FF90EF900895AF92B8
:100C3000BF92DF92EF92FF920F931F93CF93DF93B8
:100C400000D0CDB7DEB78C01D62EF22EEFB6F894D9
:100C500060E0DC0157968C9149835A830E94720CA4
:100C6000F80185899689DC01ED91FC910190F08174
:100C7000E02D6D2D0995D82E4981A42E5A81B52ECF
:100C8000F40EFA1479F0F80185899689DC01ED916A
:100C9000FC910190F081E02D60E00995F5018193D0
:100CA0005F01EFCF61E0D80157968C910E94720CE2
:100CB000EFBE8D2D0F900F90DF91CF911F910F916F
:100CC000FF90EF90DF90BF90AF900895AF92BF92EA
:100CD000DF92EF92FF920F931F93CF93DF9300D099
:100CE000CDB7DEB78C01D62EF22EEFB6F89460E0C9
:100CF000DC0157968C9149835A830E94720CF8014B
:100D000085899689DC01ED91FC910190F081E02DBF
:100D10006D2D0995D82E4981A42E5A81B52EF40E39
:100D2000FA1471F0F80185899689D5016D915D01FC
:100D3000DC01ED91FC910190F081E02D0995F0CF5F
:100D400061E0F80187890E94720CEFBE8D2D0F9033
:100D50000F90DF91CF911F910F91FF90EF90DF9057
:100D6000BF90AF900895CF93DF93EC018F890E94DD
:100D7000A80C21E0892B09F420E08A8D8227DF91DD
:100D8000CF910895FC01808D0C94720CFC01238D91
:100D90006227818D0C94720CCF93DF93EC018A81D2
:100DA0009B81029761F060E0CE010E94C60660E080
:100DB000CE010E94C20682E090E09B838A83DF918D
:100DC000CF910895862F86958695887098E0980F24
:100DD000891749F0E82FF0E0EB5EFD4F20816217A4
:100DE00019F08F5FF5CF80E008951F93CF93DF93C5
:100DF000EC010E94B306882319F09F8D9F5F9F8F9F
:100E00009E8D891771F098A1903518F42BE030E091
:100E100002C02DE130E098A1290F311D28A38E8F4B
:100E200003C088A18C5E88A388A1803A08F46EC0B4
:100E30008AA19BA1969587959BA38AA38F8D8530C8
:100E400028F08AA19BA198609BA38AA388A1805ABD
:100E500088A31F8E89A1882309F446C08CA18F5FC7
:100E60008CA38C3008F452C06AA17BA16F73CE01B1
:100E70000E94E206182F6AA17BA146E0769567954D
:100E80004A95E1F7CE010E94E20690E1199F900198
:100E90001124822BBE0167597F4FFB019081DE0137
:100EA000A859BF4F9923B1F0FB01908121E0290F90
:100EB0002083AE01490F511DFA0185A3FB019081EA
:100EC0008C91981778F019A281E08C8FCE010E9446
:100ED000CC0608C08C939C91973090F09C919434F0
:100EE00078F4E2CF1CA212C08AA19BA188339B4058
:100EF00069F481E089A31CA2C759DF4F188206C09C
:100F000019A28F8598890196988B8F87DF91CF9151
:100F10001F910895CF92DF92EF92FF920F931F934C
:100F2000CF93DF93EC018C0104591F4FF8018081AE
:100F300091E0980F9083811136C06E01FAE6CF0ED2
:100F4000D11CF6018081EF56FF4F9081891748F040
:100F5000CE010E94CC068B899C8901969C8B8B8B41
:100F600022C0FE01E80FF11DE359FF4F608170E0E0
:100F70007E01FBE6EF0EF11CF701808191E0980FF6
:100F8000908302C0759567958A95E2F76170CE01EE
:100F90000E94C206F7018081863028F01082F60197
:100FA00080818F5F8083F8018081883008F0108213
:100FB000DF91CF911F910F91FF90EF90DF90CF9035
:100FC0000895FC01228133812430310511F40C9401
:100FD000F506FC01228133812330310511F40C9494
:100FE0008A0708951F920F920FB60F9211242F9324
:100FF0003F934F935F936F937F938F939F93AF93A1
:10100000BF93EF93FF9380912E0390912F030E9443
:10101000E107FF91EF91BF91AF919F918F917F91E8
:101020006F915F914F913F912F910F900FBE0F9055
:101030001F9018958CE10895DF92EF92FF920F9325
:101040001F93CF93DF93EC017B018A01E881F98143
:101050000280F381E02D0995D82E8823F1F0E11468
:10106000F104C9F001151105B1F08A8D282F30E087
:1010700023503109F801408150E04217530714F022
:1010800084508083F801408150E0BE01615E7F4F53
:10109000C7010E9463101BAE1A8E8D2DDF91CF9178
:1010A0001F910F91FF90EF90DF9008951F93CF93C2
:1010B000DF93EC01162F642FA9010E946F0589E2CE
:1010C00092E0998388831BAE8CE0888F198FDF9123
:1010D000CF911F9108956F7160620C94DC05CF93DE
:1010E000DF93EC018A819B81019771F040E060E021
:1010F000CE010E946B0860E0898D0E94720C81E035
:1011000090E09B838A8301C080E0DF91CF910895B6
:101110006FEF0C948E0561EE0C948E0562EE0C94CC
:101120008E05462F4F7765E00E946B0881E0089599
:10113000440F551F46706230710511F4406204C0BF
:101140006130710509F44860416066E00E946B08F7
:1011500081E00895CF93DF93EC018A819B81029710
:1011600069F0488D60E0CE010E946B0860E0898DD7
:101170000E94720C82E090E09B838A83DF91CF9182
:1011800008951F93CF93DF93EC018A819B8103978E
:10119000D1F4CE010E948808182F807319F40E94A0
:1011A000D20AF7CF14FF03C0CE010E948B08CE01F4
:1011B0000E94AA0840E367E0CE010E946B0815FB7D
:1011C000882780F901C080E0DF91CF911F910895B9
:1011D000CF93DF93EC018A819B81049771F0488D56
:1011E000436060E0CE010E946B0861E0898D0E943F
:1011F000720C84E090E09B838A83DF91CF91089505
:10120000CF93DF93EC018A819B810397B9F060E073
:10121000898D0E94720C40E367E0CE010E946B084A
:10122000488D426060E0CE010E946B0861E0898DCC
:101230000E94720C83E090E09B838A83DF91CF91C0
:1012400008951F93CF93DF93EC01142F4D3100F5D8
:101250008A858B8F8B858C8F8C858D8F8D858E8FDE
:1012600050E0CE014F960E94631024E0210FAE01A2
:10127000455E5F4F60EBCE010E946606CE010E9484
:1012800000098B899C8901969C8B8B8B81E001C026
:1012900080E0DF91CF911F910895FC01828D843011
:1012A000C8F0838D8683848D8783858D8087868D26
:1012B00081878581811107C096818481981719F0F3
:1012C00086818F3F39F4818992890196928B818B37
:1012D00081E083AF08950F931F93CF93DF93EC01C9
:1012E0001BAD111134C02A813B812330310581F1BE
:1012F0000E94E80867E1CE010E94B00580FD28C089
:1013000060E6CE010E94B005082F813248F0CE0180
:101310000E948E081BAE1A8ECE010E94AA0818C029
:1013200040E467E0CE010E946B08202FAE01455ECD
:101330005F4F61E6CE010E9417060A8FCE010E9420
:101340004D098BAD882319F0CE010E94AA081BAD70
:10135000812FDF91CF911F910F9108951F93CF930C
:10136000DF93EC018D899E89DC01ED91FC9106846F
:10137000F785E02D60E070E00995CE010E945105EF
:10138000182F811102C010E044C061E0898D0E94D5
:10139000390C60E0898D0E94720C40E767E0CE0155
:1013A0000E946B084FE36CE1CE010E946B0845E0A0
:1013B0006DE1CE010E946B086DE1CE010E94B00587
:1013C0008530A9F4CE010E94AA08CE010E948B08A4
:1013D000CE010E948E0862E0CE010E94910843E097
:1013E00050E061E070E0CE010E94980812C043E72F
:1013F00060E5CE010E94DC0545E06DE1CE010E9472
:101400006B086DE1CE010E94B005853009F0BBCFBD
:10141000D9CF812FDF91CF911F9108950F931F9303
:10142000CF93DF93EC01662359F00E946C0B698324
:101430007A838B839C83DF91CF911F910F910895C5
:101440000E946C0B09811A812B813C81601B710BFE
:10145000820B930B623371058105910530F763E0D0
:1014600070E080E090E00E949B0BEACF60E00C947B
:101470000E0AFC0113AA14AA15AA16AA1182128236
:1014800013821482411551056105710521F0CB01CC
:10149000BA010C949B0B0895FB01BA01A901DC0170
:1014A000D296FC93EE93D19726E0CF010C94B60D23
:1014B0001F93CF93DF93EC01162F61E572E089A9AA
:1014C0009AA90E940B0F4AE050E0612F89A99AA9BE
:1014D0000E94E80F68E572E089A99AA90E940B0FA3
:1014E00062E370E080E090E0DF91CF911F910C9477
:1014F0009B0B1F93CF93DF93EC01162F8D818823D5
:1015000089F189A99AA9DC01ED91FC910480F5810A
:10151000E02D0995892BA9F307C02637310519F16C
:101520002835310509F41D8289A99AA9DC01ED91BC
:10153000FC910480F581E02D09951816190694F4A4
:1015400089A99AA9DC01ED91FC910680F781E02D33
:1015500009959C01332723363105F9F6612FCE0119
:101560000E94580A83E6DF91CF911F9108950F934F
:101570001F93CF93DF931F92CDB7DEB78C01662305
:1015800049F081E0F801858360E0C80149830E9449
:10159000790A4981F80145830F90DF91CF911F911E
:1015A0000F910895089508951F920F920FB60F920C
:1015B00011242F933F934F935F936F937F938F9358
:1015C0009F93AF93BF93EF93FF93E0910601F09148
:1015D00007010995FF91EF91BF91AF919F918F9175
:1015E0007F916F915F914F913F912F910F900FBE1F
:1015F0000F901F9018951F920F920FB60F92112403
:101600002F933F934F935F936F937F938F939F930A
:10161000AF93BF93EF93FF93E0910801F09109011D
:101620000995FF91EF91BF91AF919F918F917F911C
:101630006F915F914F913F912F910F900FBE0F903F
:101640001F9018951F920F920FB60F9211242F938F
:101650003F938F939F93AF93BF9380916803909133
:101660006903A0916A03B0916B033091670323E093
:10167000230F2D3720F40196A11DB11D05C026E8CA
:10168000230F0296A11DB11D209367038093680369
:1016900090936903A0936A03B0936B0380916C03EA
:1016A00090916D03A0916E03B0916F030196A11DFF
:1016B000B11D80936C0390936D03A0936E03B09360
:1016C0006F03BF91AF919F918F913F912F910F9099
:1016D0000FBE0F901F9018952FB7F8946091680374
:1016E0007091690380916A0390916B032FBF0895F5
:1016F0003FB7F89480916C0390916D03A0916E03B5
:10170000B0916F0326B5A89B05C02F3F19F0019635
:10171000A11DB11D3FBF6627782F892F9A2F620F19
:10172000711D811D911D42E0660F771F881F991F53
:101730004A95D1F708958F929F92AF92BF92CF9220
:10174000DF92EF92FF926B017C010E94780B4B01BC
:101750005C01C114D104E104F104F1F00E94D20A49
:101760000E94780B681979098A099B09683E7340C1
:101770008105910570F321E0C21AD108E108F10852
:1017800088EE880E83E0981EA11CB11CC114D10400
:10179000E104F10429F7DDCFFF90EF90DF90CF90C7
:1017A000BF90AF909F908F900895789484B5826099
:1017B00084BD84B5816084BD85B5826085BD85B5F5
:1017C000816085BDEEE6F0E0808181608083E1E8A4
:1017D000F0E01082808182608083808181608083DC
:1017E000E0E8F0E0808181608083E1EBF0E08081DF
:1017F00084608083E0EBF0E0808181608083EAE7B1
:10180000F0E0808184608083808182608083808139
:10181000816080838081806880831092C1000895F8
:10182000833081F028F4813099F08230A1F008955E
:101830008730A9F08830B9F08430D1F480918000ED
:101840008F7D03C0809180008F7780938000089502
:1018500084B58F7702C084B58F7D84BD0895809153
:10186000B0008F7703C08091B0008F7D8093B0006F
:101870000895CF93DF9390E0FC01E057FF4F249150
:10188000FC01EC55FF4F8491882349F190E0880FCB
:10189000991FFC01E453FF4FA591B4918E539F4FC4
:1018A000FC01C591D4919FB7611108C0F8948C9147
:1018B000209582238C93888182230AC0623051F460
:1018C000F8948C91322F309583238C938881822BCE
:1018D000888304C0F8948C91822B8C939FBFDF91F6
:1018E000CF9108950F931F93CF93DF931F92CDB79E
:1018F000DEB7282F30E0F901E458FF4F8491F90159
:10190000E057FF4F1491F901EC55FF4F049100236C
:10191000C9F0882321F069830E94100C6981E02FAF
:10192000F0E0EE0FFF1FEE53FF4FA591B4919FB76C
:10193000F8948C91611103C01095812301C0812B13
:101940008C939FBF0F90DF91CF911F910F910895BE
:10195000CF93DF93282F30E0F901E458FF4F8491B3
:10196000F901E057FF4FD491F901EC55FF4FC491B5
:10197000CC2391F081110E94100CEC2FF0E0EE0FBF
:10198000FF1FE854FF4FA591B4912C912D2381E0C6
:1019900090E021F480E002C080E090E0DF91CF9100
:1019A00008950E945E10FC01818D228D90E0805C84
:1019B0009F4F821B91098F7399270895FC01918D88
:1019C000828D981731F0828DE80FF11D858D90E0A2
:1019D00008958FEF9FEF0895FC01918D828D9817E8
:1019E00061F0828DDF01A80FB11D5D968C91928D03
:1019F0009F5F9F73928F90E008958FEF9FEF089500
:101A000080E79EE0892B49F080E090E0892B29F067
:101A10000E94700E81110C9400000895FC01848DC9
:101A2000DF01A80FB11DA35ABF4F2C91848D90E008
:101A300001968F739927848FA689B7892C93A089E3
:101A4000B1898C9180648C93938D848D981306C09A
:101A50000288F389E02D80818F7D80830895CF9364
:101A6000DF93EC01888D8823C9F0EA89FB898081A6
:101A700085FD05C0A889B9898C9186FD0FC00FB678
:101A800007FCF5CF808185FFF2CFA889B9898C91B9
:101A900085FFEDCFCE010E940E0DE7CFDF91CF91F4
:101AA0000895CF92DF92FF920F931F93CF93DF930E
:101AB0001F92CDB7DEB76C0181E0D60158968C93AA
:101AC00058975B969C915B975C968C915C9798136A
:101AD00007C05096ED91FC915197808185FD2EC0F5
:101AE000F601038D10E00F5F1F4F0F731127F02ECB
:101AF000F601848DF81211C00FB607FCF9CFD6019C
:101B00005096ED91FC915197808185FFF1CFC601F0
:101B100069830E940E0D6981EBCF838DE80FF11D63
:101B2000E35AFF4F6083D6015B960C935B97529606
:101B3000ED91FC915397808180620CC0D60156963E
:101B4000ED91FC91579760835096ED91FC915197E0
:101B500080818064808381E090E00F90DF91CF915D
:101B60001F910F91FF90DF90CF900895BF92CF9279
:101B7000DF92EF92FF92CF93DF93EC016A017B013A
:101B8000B22EE889F98982E08083411581EE5807F9
:101B900061057105A1F060E079E08DE390E0A701B7
:101BA00096010E94031021503109410951095695AF
:101BB000479537952795211580E1380798F0E889F2
:101BC000F989108260E874E88EE190E0A70196013F
:101BD0000E9403102150310941095109569547953A
:101BE00037952795EC85FD853083EE85FF8520832D
:101BF000188EEC89FD89B082EA89FB898081806139
:101C00008083EA89FB89808188608083EA89FB89F7
:101C1000808180688083EA89FB8980818F7D8083D1
:101C2000DF91CF91FF90EF90DF90CF90BF9008951C
:101C30001F920F920FB60F9211242F938F939F93A1
:101C4000EF93FF93E0918003F09181038081E09115
:101C50008603F091870382FD12C0908180918903F1
:101C60008F5F8F7320918A03821751F0E09189036F
:101C7000F0E0E059FC4F958F8093890301C080818B
:101C8000FF91EF919F918F912F910F900FBE0F9029
:101C90001F9018951F920F920FB60F9211242F9339
:101CA0003F934F935F936F937F938F939F93AF93E4
:101CB000BF93EF93FF9380E793E00E940E0DFF9197
:101CC000EF91BF91AF919F918F917F916F915F91B4
:101CD0004F913F912F910F900FBE0F901F9018952D
:101CE00080E793E00E94D30C21E0892B09F420E0E7
:101CF000822F0895109273031092720388EE93E07E
:101D0000A0E0B0E08093740390937503A0937603F2
:101D1000B09377038DEA92E0909371038093700300
:101D200085EC90E090937D0380937C0384EC90E0BD
:101D300090937F0380937E0380EC90E090938103E7
:101D40008093800381EC90E09093830380938203DF
:101D500082EC90E0909385038093840386EC90E07E
:101D600090938703809386031092890310928A03CD
:101D700010928B0310928C03089508950E94D50B46
:101D80000E94BD0E0E94B800C0E0DDE00E94150177
:101D90002097E1F30E94000DF9CFCF92DF92EF92EE
:101DA000FF920F931F93CF93DF937C016A01EB01A6
:101DB00000E010E00C151D0571F06991D701ED915F
:101DC000FC910190F081E02DC7010995892B19F054
:101DD0000F5F1F4FEFCFC801DF91CF911F910F9180
:101DE000FF90EF90DF90CF9008956115710581F01D
:101DF000DB010D900020E9F7AD0141505109461B70
:101E0000570BDC01ED91FC910280F381E02D0994E8
:101E100080E090E008950C94F50EDC01ED91FC91CA
:101E20000190F081E02D09946EE572E00C94F50EBE
:101E30000F931F93CF93DF93EC010E94F50E8C015B
:101E4000CE010E94140F800F911FDF91CF911F913F
:101E50000F9108958F929F92AF92BF92DF92EF926F
:101E6000FF920F931F93CF93DF93CDB7DEB7A19768
:101E70000FB6F894DEBF0FBECDBF7C01F42FD52E78
:101E8000CB0119A2223008F42AE08E010F5D1F4F0A
:101E9000822E912CA12CB12C6F2F7D2DA5019401A8
:101EA0000E940310F22FD32ECA01015011096A308B
:101EB00014F4E0E301C0E7E3E60FD801EC93232B31
:101EC000242B252B49F7B801C7010E94F50EA196D6
:101ED0000FB6F894DEBF0FBECDBFDF91CF911F913B
:101EE0000F91FF90EF90DF90BF90AF909F908F90F9
:101EF0000895CF92DF92EF92FF920F931F93CF93AB
:101F0000DF93EC016A017B012115310579F4E88149
:101F1000F9810190F081E02D642FDF91CF911F9125
:101F20000F91FF90EF90DF90CF9009942A30310508
:101F3000E9F477FF1AC06DE20E940D0F8C0144276F
:101F40005527BA014C195D096E097F092AE0CE01B7
:101F50000E942A0F800F911FDF91CF911F910F9147
:101F6000FF90EF90DF90CF9008952AE0B701A6018F
:101F7000CE01DF91CF911F910F91FF90EF90DF90F5
:101F8000CF900C942A0F0F931F93CF93DF93EC0104
:101F90009A01AB01662757FD6095762F0E94790F55
:101FA0008C01CE010E94140F800F911FDF91CF9101
:101FB0001F910F9108952115310541F4DC01ED9138
:101FC000FC910190F081E02D642F09940C942A0F6C
:101FD0009A01462F50E060E070E00C94DB0F97FB15
:101FE000072E16F4009407D077FD09D00E944A10FE
:101FF00007FC05D03EF4909581959F4F089570950C
:1020000061957F4F0895A1E21A2EAA1BBB1BFD010B
:102010000DC0AA1FBB1FEE1FFF1FA217B307E407C7
:10202000F50720F0A21BB30BE40BF50B661F771F1F
:10203000881F991F1A9469F76095709580959095FF
:102040009B01AC01BD01CF010895052E97FB1EF445
:1020500000940E943C1057FD07D00E94031007FC1B
:1020600003D04EF40C943C1050954095309521953A
:102070003F4F4F4F5F4F08959095809570956195B4
:102080007F4F8F4F9F4F0895EE0FFF1F0590F491E4
:10209000E02D0994AA1BBB1B51E107C0AA1FBB1F5F
:1020A000A617B70710F0A61BB70B881F991F5A95E4
:1020B000A9F780959095BC01CD01089581E090E04D
:1020C000F8940C946C10FB01DC0102C001900D929D
:0C20D00041505040D8F70895F894FFCF1D
:1020DC00010000000100D30AD30A564D4450565F4C
:1020EC00317C315F564D4450560D0A00696E69744F
:1020FC00206661696C6564007365744368616E6E1B
:10210C00656C206661696C65640073657452462069
:10211C006661696C65640053656E64696E672074F2
:10212C006F206E726632345F73657276657200670B
:10213C006F74207265706C793A200072656376203A
:10214C006661696C6564004D6F746F727370656560
:10215C00643A200048656C6C6F20576F726C642178
:10216C0000000000000504D10CD10CD10CD10C2BBB
:10217C00043D0482044B040A040D041004130416D9
:10218C000407041D04200423042604290400000071
:10219C0000D10CC804C904D10CD10CCA04CE04D291
:1021AC00040500040400000000E204E904ED04014D
:1021BC0005F104CA04CE04D204000000005105D17C
:1021CC000CD10CD10CD10C2B043D0482044B040A11
:1021DC00040D0410041304160407041D0420042326
:1021EC0004260429040D0E131516191A1C23252672
:1021FC00292A2C323400000000AE096B091C08217E
:10220C00091A082B04C10882044B040A040D04109B
:10221C00041304160407041D042004230426046F6D
:10222C0008564D4450435F005F564D4450430D0AD1
:10223C00004572726F723A20417474656D7074202F
:10224C00746F20736574206120726561642D6F6EEC
:10225C006C79207661726961626C65206F722064A2
:10226C006174612074797065206E6F742073757061
:10227C00706F727465640D0A0000000000510DCD82
:10228C000ED30CEC0CDE0C2F0D6E616E00696E66BD
:08229C00006F7666002E0000C1
:00000001FF
