:100000000C94E4000C944C0E0C94730E0C940C01A4
:100010000C940C010C940C010C940C010C940C012C
:100020000C940C010C94900C0C940C010C94530A3D
:100030000C940C010C940C010C940C010C940C010C
:100040000C949A0E0C940C010C949B110C94CD11F1
:100050000C940C010C940C010C940C010C940C01EC
:100060000C940C010C940C01005EBCE2613FDD833A
:10007000C29C7E20A3FD1F419DC3217FFCA2401E88
:100080005F01E3BD3E6082DC237D9FC1421CFEA078
:10009000E1BF5D0380DE3C62BEE0025CDF81633D68
:1000A0007C22C09E1D43A1FF4618FAA427799BC558
:1000B00084DA3866E5BB5907DB856739BAE4065848
:1000C0001947A5FB7826C49A653BD987045AB8E638
:1000D000A7F91B45C6987A24F8A6441A99C7257B28
:1000E0003A6486D85B05E7B98CD2306EEDB3510F18
:1000F0004E10F2AC2F7193CD114FADF3702ECC9208
:10010000D38D6F31B2EC0E50AFF1134DCE90722CF7
:100110006D33D18F0C52B0EE326C8ED0530DEFB1E7
:10012000F0AE4C1291CF2D73CA947628ABF51749D7
:100130000856B4EA6937D58B5709EBB536688AD4C7
:1001400095CB2977F4AA4816E9B7550B88D6346AB7
:100150002B7597C94A14F6A8742AC896154BA9F7A7
:10016000B6E80A54D7896B35000000080002010088
:100170000003040700000000000000000102040862
:100180001020408001020408102001020408102001
:10019000040404040404040402020202020203032D
:1001A00003030303000000002300260029000000D1
:1001B0000000250028002B0000000000240027007C
:1001C0002A001E01A807FD1111241FBECFEFD8E0A1
:1001D000DEBFCDBF14E0A0E0B1E0E2E8F6E202C08D
:1001E00005900D92A633B107D9F725E0A6E3B4E058
:1001F00001C01D92AB3BB207E1F711E0C8ECD1E0C2
:1002000004C02297FE010E942D13C23CD107C9F7FA
:100210000E9441120C943F130C9400000895282F63
:10022000DB01FC018E2F821B841730F491918D919C
:100230009817C1F380E0089581E00895EF92FF924E
:100240000F931F936EE085EA94E00E949F0565EA94
:1002500074E082E994E00E942A038FE894E00E940F
:10026000340D8CE894E00E94340D87E0E82EF12CE8
:1002700006E010E024E030E042E050E068EC70E09E
:1002800082E794E00E94A90225EB34E04AE068E0AE
:1002900086E394E01F910F91FF90EF900C94B70AC2
:1002A00086E394E00E940F0C811106C063ED71E0BB
:1002B0008EE195E00E94941261E086E394E00E9452
:1002C000F20A811106C06FED71E08EE195E00E94A7
:1002D000941243E050E061E070E086E394E00E9415
:1002E000F90A811106C061EF71E08EE195E00E948C
:1002F000941208954F925F926F927F929F92AF9265
:10030000BF92CF92DF92EF92FF920F931F93CF9302
:10031000DF931F92CDB7DEB78C015B010E94E40E24
:100320006B017C016EEF71E08EE195E00E9494120A
:1003300086E394E00E94CC0B811113C089E8C816B3
:1003400083E1D806E104F10498F30E94E40E6858B2
:10035000734181099109C616D706E806F90640F7E8
:100360003FC0A501B80186E394E00E947D0A982E63
:10037000882309F472C062E172E08EE195E00E9488
:100380008E1260E070E08EE195E00E9494122601EA
:100390003701E8E84E0EE3E15E1E611C711C65E268
:1003A00072E08EE195E00E949412F5014081B8015F
:1003B00086E394E00E94820B64E670E080E090E0C7
:1003C0000E94130F0E94E40E46165706680679062F
:1003D00078F40E94E40E6C157D058E059F0540F0B3
:1003E00066E572E08EE195E00E949412912C35C092
:1003F00086E394E00E94CC0B882389F2AE014F5F24
:100400005F4F60E070E086E394E00E947D0A8823FD
:1004100031F28981873019F647E06BE372E080E0C2
:1004200090E00E940F01982E882309F4B8CF62E46F
:1004300072E08EE195E00E94941212E34AE06CE4CF
:1004400072E086E394E00E94820B6AE070E080E054
:1004500090E00E94130F115089F7892D0F90DF91C2
:10046000CF911F910F91FF90EF90DF90CF90BF90B1
:10047000AF909F907F906F905F904F900895CF9333
:10048000DF93CDB7DEB7C150D1400FB6F894DEBFD1
:100490000FBECDBF40ED57E060E070E08EED94E020
:1004A0000E94B10D20E835E240E050E06EE175E0D9
:1004B0008EED94E00E94C40D8EED94E00E94AE0D8E
:1004C00067E672E080910F05909110050E948E12F0
:1004D0006AE070E080E090E00E94130F41E060E08D
:1004E0008EED94E00E942F0E26E040E855E260E099
:1004F00070E08EE195E00E9439110E94500163E0A6
:1005000070E08FE894E00E94410D65E070E08CE8B7
:1005100094E00E94410D82E994E00E940B04BE0128
:100520006F5F7E4FCE0101960E947A018823B9F356
:10053000BE016F5F7F4F8EE195E00E949412CF5F06
:10054000DE4F0FB6F894DEBF0FBECDBFDF91CF9167
:100550000895EF92FF920F931F93CF93DF93EC01D7
:10056000842F1B861A86198218821E8A1F8A188E6B
:10057000198E7F836E834C875D873F872E87198B0B
:10058000088BFB8AEA8A61E00E94BC0F61E08E85DD
:100590000E94BC0F61E088890E94BC0F61E08A89DB
:1005A0000E94BC0F1D8A1C8A84E090E0998788878E
:1005B000DF91CF911F910F91FF90EF900895CF930E
:1005C000CFB7F8948091B404811127C0EAE9F1E033
:1005D0008491E6E8F1E09491E82FF0E0EE0FFF1F40
:1005E000E854FE4FA591B4918C91892321F461E0E8
:1005F0008AE00E94F50F61E08AE00E94BC0F8CB592
:1006000080618CBD8CB580648CBD61E08DE00E9402
:10061000BC0F61E08BE00E94BC0F8091B4048F5F3F
:100620008093B404CFBFCF9108959FB7F894809181
:10063000B404882319F081508093B4048091B404E9
:10064000811105C08CB58F7B8CBD1092B3049FBF08
:1006500008950895FC0189E293E0928B818B768363
:1006600065831482108289E0818381E082838383A1
:100670000895CF93DF93EB0167E0CE010E945A0605
:1006800091E02F81821390E0892FDF91CF9108951F
:10069000CF92DF92EF92FF920F931F93CF93DF934E
:1006A00000D0CDB7DEB76C01F42EE52EFC018581BC
:1006B000968169837A830E946A0469817A8188239A
:1006C00011F1F601858196810E94650540E06EEB8F
:1006D000F601858196810E9407050F2D1E2D89E068
:1006E000F82EF601858196810E944905F8018193D3
:1006F0008F01FA94B1F7F601858196810E946A0410
:1007000091E0813009F090E0892F0F900F90DF91F8
:10071000CF911F910F91FF90EF90DF90CF900895B0
:10072000CF93DF93EA010E944803882351F068E0E9
:10073000CE010E945A0691E02885821390E0892F0D
:1007400001C080E0DF91CF910895EF92FF921F9357
:10075000CF93DF9300D0CDB7DEB77C01FC0185815C
:10076000968169837A830E946A0469817A81F7019C
:10077000858196810E94650540E064EBF7018581E3
:1007800096810E940705F701858196810E94DC040D
:10079000182FF701858196810E946A0481E011116A
:1007A00080E00F900F90DF91CF911F91FF90EF901D
:1007B0000895CF93DF93CDB7DEB729970FB6F8949E
:1007C000DEBF0FBECDBFFB0120812031D1F0AE01D5
:1007D0004F5F5F4F0E949003882379F08D818F33A4
:1007E00051F020F48F3149F489E00CC08F3539F095
:1007F0008F3739F002C08AE005C080E003C08BE08B
:1008000001C08CE029960FB6F894DEBF0FBECDBFB5
:10081000DF91CF910895EF92FF920F931F93CF93A3
:10082000DF93CDB7DEB728970FB6F894DEBF0FBEC3
:10083000CDBF8C01FC01858196810E948D05F80158
:100840001482FF24F394BE016F5F7F4FF80185810E
:1008500096810E94C205882381F1BE016F5F7F4FA0
:10086000C8010E943903882371F3F8018081811146
:1008700008C0BE016F5F7F4FC8010E94A5038111B0
:1008800019C0F801E180BE016F5F7F4FC8010E946F
:10089000D9038E1518F4F801818106C0BE016F5F7F
:1008A0007F4FC8010E94D903F801818384818F5F43
:1008B0008483C9CFF801F082E4CF28960FB6F8946C
:1008C000DEBF0FBECDBFDF91CF911F910F91FF9083
:1008D000EF900895FF920F931F93CF93DF93FC0146
:1008E0000081C181D281F8948981F02EF0948F210A
:1008F000898378941DE7115029F182E090E00E94ED
:100900004D0F88818023B9F3F8948A818F218A83DF
:100910008981802B8983789480EE91E00E944D0F2D
:10092000F89489818F21898386E490E00E944D0F9D
:100930008881802311E009F010E078948AE991E041
:100940000E944D0F812FDF91CF911F910F91FF904A
:1009500008951F93CF93DF93FC011081C181D28151
:10096000912F909560FF12C0F8948A8189238A8321
:100970008981812B89838AE090E00E944D0F8A81D2
:10098000812B8A83789487E390E011C0F8948A8160
:1009900089238A838981812B898381E490E00E9465
:1009A0004D0F8A81812B8A83789485E090E0DF91D6
:1009B000CF911F910C944D0F0F931F93CF93DF9303
:1009C000FC011081C181D281F8948981812B8983B6
:1009D0008A81012F009580238A8383E090E00E9422
:1009E0004D0F8981802389838AE090E00E944D0F1A
:1009F000C881789485E390E00E944D0F1C2381E02C
:100A000009F480E0DF91CF911F910F910895CF926B
:100A1000DF92EF92FF920F931F93CF93DF931F927A
:100A2000CDB7DEB76C01E62E08E010E0FF24F394AA
:100A300061E09F2D9E2109F460E0C60149830E9478
:100A4000A904FF0C0150110949810115110581F715
:100A5000411115C0F894D6011196ED91FC911297B1
:100A600091818C918095892381831196ED91FC91E0
:100A7000129792818C9180958923828378940F902C
:100A8000DF91CF911F910F91FF90EF90DF90CF906A
:100A90000895EF92FF920F931F93CF93DF938C01F2
:100AA000C8E0D0E0F12CEE24E394C8010E94DC04FD
:100AB0008111FE28EE0C2197C1F78F2DDF91CF9188
:100AC0001F910F91FF90EF900895CF92DF92FF92C8
:100AD0000F931F93CF93DF931F92CDB7DEB78C0197
:100AE000F62E40E065E579830E940705CF2C7981D9
:100AF000D72E88E0F82EF60161916F0140E0C80121
:100B00000E940705FA94B9F70F90DF91CF911F91DA
:100B10000F91FF90DF90CF900895FC01138615860A
:100B2000148627E030E0DF01A20FB31F13961C925A
:100B30002115310519F021503109F5CF08951F9382
:100B4000CF93DF93EC01162F60E0812F0E94BC0F42
:100B5000612F70E0FB01E458FE4FE491E883FB0154
:100B6000E057FE4FE491F0E0EE0FFF1FEC55FE4F13
:100B7000859194919A838983CE01DF91CF911F91C2
:100B80000C948D05AF92BF92CF92DF92EF92FF92BD
:100B90000F931F93CF93DF931F92CDB7DEB75C0106
:100BA000E62ED72EFC01858581115DC0C5010E940E
:100BB0006A04811105C0F5011386158614866EC07E
:100BC00040E060EFC5010E94070501E0F12CC12C57
:100BD00011E0C5010E94DC04682FC50169830E94F1
:100BE000DC046981613019F48130B9F433C02F2DF0
:100BF00030E068131BC0F5018385181730F4E20F4D
:100C0000F31F8381802349F402C0181731F060E09C
:100C1000193058F4F501148708C0F501EF0DF11DE6
:100C20008381802B838361E009C0C12EF501E20F2F
:100C3000F31F8381902F909589238383C5010E94A0
:100C4000A9041F5F000F11F4F39401E0F7E0FF1512
:100C500008F0BFCF113438F0F501C386C11018C0B9
:100C600081E0858715C0F50113861586148680E01E
:100C7000EE2DFD2D20E030E0D501A20FB31F13961D
:100C80009C9191932F5F3F4F28303105A9F706C003
:100C9000F5018381882339F381E0EACF0F90DF915A
:100CA000CF911F910F91FF90EF90DF90CF90BF9069
:100CB000AF900895DC0180E0615038F0ED91E827B5
:100CC000F0E0E859FF4F8491F7CF089581E008954F
:100CD000FC0165830895FC0164830895FC0162872B
:100CE0000895FC0163870895FC0164870895409589
:100CF000FC0125854223462B45870895FC0186810A
:100D00000895FC0187810895FC0180850895FC0108
:100D10008185089580E00895CF93DF93EC01E88109
:100D2000F9810280F381E02DCE010995811103C084
:100D30000E944A0EF4CFDF91CF910895CF93DF93B5
:100D4000EC018A819B81039719F40E944A0EF9CF26
:100D500081E0DF91CF9108958F929F92AF92BF92E1
:100D6000CF92DF92EF92FF92CF93DF93EC016B0172
:100D70000E94E40E4B015C01E12CF12C0E94E40E78
:100D8000681979098A099B096C157D058E059F05EF
:100D900060F4E881F9810280F381E02DCE010995AC
:100DA000811105C00E944A0EE9CF80E001C081E0B8
:100DB000DF91CF91FF90EF90DF90CF90BF90AF90F9
:100DC0009F908F9008958F929F92AF92BF92CF92F3
:100DD000DF92EF92FF92CF93DF93EC016B010E94C1
:100DE000E40E4B015C01E12CF12C0E94E40E681929
:100DF00079098A099B096C157D058E059F0538F4D4
:100E00008A819B81039729F40E944A0EEECF80E0ED
:100E100001C081E0DF91CF91FF90EF90DF90CF9004
:100E2000BF90AF909F908F900895FC0185E093E074
:100E300091838083138212828FEF848382878387DA
:100E400014861586108A1786128A118A148A138AC4
:100E5000089508950895FC01758364830895FC0145
:100E6000778366830895FC01738362830895FC0190
:100E700081E393E09183808373836283558344830A
:100E80003783268308956EBD00000DB407FEFDCFA5
:100E90008EB508958CB580688CBD08958CB58F771C
:100EA0008CBD08950C9415032CB5982F93702C7F4E
:100EB000922B9CBD9DB582FB882780F99E7F982B45
:100EC0009DBD0895CF93FC01268137812115310501
:100ED00079F02130310541F02230310539F02330ED
:100EE000310531F49CE005C094E003C098E001C0F6
:100EF00090E08CB5837F892B8CBD8481958101978F
:100F000019F48CB5806202C08CB58F7D8CBD828156
:100F1000938101978430910528F4FC01EF5BFC4F2D
:100F2000C08101C0C1E08C2F0E9454070E94DF02E3
:100F30008C2FCF910C945407CF93DF93EC010E9438
:100F4000370789E493E099838883DF91CF910895EF
:100F500020E030E040E050E060E070E085EB94E0BD
:100F60000C949C07CF93DF93EC018D899E89DC0163
:100F7000ED91FC910680F781E02D099561E08F8964
:100F80000E94BC0F61E08F890E94F50F64E670E05B
:100F900080E090E00E94130F81E0DF91CF910895EF
:100FA000EF92FF920F931F93CF93DF931F92CDB7D2
:100FB000DEB77C018A0169830E9415078DE593E005
:100FC000F70191838083168B058B6981678B0F9066
:100FD000DF91CF911F910F91FF90EF9008950F93A4
:100FE0001F93CF93DF93EC01062F1FB7F89460E0B7
:100FF0008F890E94F50F8D899E89DC01ED91FC910E
:101000000190F081E02D602F0995082F61E08F8914
:101010000E94F50F1FBF802FDF91CF911F910F917D
:1010200008950F931F93CF93DF93EC01062F1FB703
:10103000F89460E08F890E94F50F8D899E89DC010C
:10104000ED91FC910190F081E02D602F09958D8943
:101050009E89DC01ED91FC910190F081E02D60E032
:101060000995082F61E08F890E94F50F1FBF802F1F
:10107000DF91CF911F910F910895EF92FF920F93FF
:101080001F93CF93DF931F92CDB7DEB77C01162F4E
:101090000FB7F89460E0DC0157968C9149830E9469
:1010A000F50FF70185899689DC01ED91FC9101909E
:1010B000F081E02D612F0995182FF7018589968918
:1010C000DC01ED91FC910190F081E02D4981642FCC
:1010D000099561E0F70187890E94F50F0FBF812F05
:1010E0000F90DF91CF911F910F91FF90EF90089596
:1010F000AF92BF92DF92EF92FF920F931F93CF9325
:10110000DF9300D0CDB7DEB78C01D62EF22EEFB62E
:10111000F89460E0DC0157968C9149835A830E94D1
:10112000F50FF80185899689DC01ED91FC9101901C
:10113000F081E02D6D2D0995D82E4981A42E5A817C
:10114000B52EF40EFA1479F0F80185899689DC0140
:10115000ED91FC910190F081E02D60E00995F501A1
:1011600081935F01EFCF61E0D80157968C910E9487
:10117000F50FEFBE8D2D0F900F90DF91CF911F9146
:101180000F91FF90EF90DF90BF90AF900895AF92D6
:10119000BF92DF92EF92FF920F931F93CF93DF9353
:1011A00000D0CDB7DEB78C01D62EF22EEFB6F89474
:1011B00060E0DC0157968C9149835A830E94F50FB9
:1011C000F80185899689DC01ED91FC910190F0810F
:1011D000E02D6D2D0995D82E4981A42E5A81B52E6A
:1011E000F40EFA1471F0F80185899689D5016D9194
:1011F0005D01DC01ED91FC910190F081E02D0995FC
:10120000F0CF61E0F80187890E94F50FEFBE8D2DC8
:101210000F900F90DF91CF911F910F91FF90EF9062
:10122000DF90BF90AF900895CF93DF93EC018F894B
:101230000E942B1021E0892B09F420E08A8D82275F
:10124000DF91CF910895FC01808D0C94F50FFC0186
:10125000238D6227818D0C94F50FCF93DF93EC01E2
:101260008A819B81029761F060E0CE010E9427098C
:1012700060E0CE010E94230982E090E09B838A8394
:10128000DF91CF910895862F86958695887098E096
:10129000980F891749F0E82FF0E0EB57FC4F2081B9
:1012A000621719F08F5FF5CF80E008951F93CF93F9
:1012B000DF93EC010E941409882319F09F8D9F5F32
:1012C0009F8F9E8D891771F098A1903518F42BE0AF
:1012D00030E002C02DE130E098A1290F311D28A394
:1012E0008E8F03C088A18C5E88A388A1803A08F401
:1012F0006EC08AA19BA1969587959BA38AA38F8D8B
:10130000853028F08AA19BA198609BA38AA388A11D
:10131000805A88A31F8E89A1882309F446C08CA116
:101320008F5F8CA38C3008F452C06AA17BA16F73CD
:10133000CE010E944309182F6AA17BA146E0769551
:1013400067954A95E1F7CE010E94430990E1199F04
:1013500090011124822BBE0167597F4FFB019081C0
:10136000DE01A859BF4F9923B1F0FB01908121E024
:10137000290F2083AE01490F511DFA0185A3FB01FE
:1013800090818C91981778F019A281E08C8FCE0112
:101390000E942D0908C08C939C91973090F09C91ED
:1013A000943478F4E2CF1CA212C08AA19BA18833A6
:1013B0009B4069F481E089A31CA2C759DF4F1882C2
:1013C00006C019A28F8598890196988B8F87DF9127
:1013D000CF911F910895CF92DF92EF92FF920F93DA
:1013E0001F93CF93DF93EC018C0104591F4FF80139
:1013F000808191E0980F9083811136C06E01FAE6EA
:10140000CF0ED11CF6018081EF56FF4F90818917D6
:1014100048F0CE010E942D098B899C8901969C8BF6
:101420008B8B22C0FE01E80FF11DE359FF4F608155
:1014300070E07E01FBE6EF0EF11CF701808191E088
:10144000980F908302C0759567958A95E2F7617051
:10145000CE010E942309F7018081863028F0108296
:10146000F60180818F5F8083F8018081883008F0E9
:101470001082DF91CF911F910F91FF90EF90DF903D
:10148000CF900895FC01228133812430310511F47D
:101490000C945609FC01228133812330310511F46B
:1014A0000C94EB0908951F920F920FB60F9211241E
:1014B0002F933F934F935F936F937F938F939F935C
:1014C000AF93BF93EF93FF938091BD049091BE04BF
:1014D0000E94420AFF91EF91BF91AF919F918F912E
:1014E0007F916F915F914F913F912F910F900FBE20
:1014F0000F901F9018958CE10895DF92EF92FF9264
:101500000F931F93CF93DF93EC017B018A01E88156
:10151000F9810280F381E02D0995D82E8823F1F01E
:10152000E114F104C9F001151105B1F08A8D282FDD
:1015300030E023503109F801408150E04217530751
:1015400014F084508083F801408150E0BE01615E58
:101550007F4FC7010E9436131BAE1A8E8D2DDF916F
:10156000CF911F910F91FF90EF90DF9008951F93FF
:10157000CF93DF93EC01162F642FA9010E94D007AF
:1015800089E993E0998388831BAE8CE0888F198F5B
:10159000DF91CF911F9108956F7160620C943D08A7
:1015A000CF93DF93EC018A819B81019771F040E03A
:1015B00060E0CE010E94CC0A60E0898D0E94F50FA8
:1015C00081E090E09B838A8301C080E0DF91CF912E
:1015D00008956FEF0C94EF0761EE0C94EF0762EE45
:1015E0000C94EF07462F4F7765E00E94CC0A81E00C
:1015F0000895440F551F46706230710511F4406222
:1016000004C06130710509F44860416066E00E94E1
:10161000CC0A81E00895CF93DF93EC018A819B810E
:10162000029769F0488D60E0CE010E94CC0A60E02C
:10163000898D0E94F50F82E090E09B838A83DF9181
:10164000CF9108951F93CF93DF93EC018A819B8103
:101650000397D1F4CE010E94E90A182F807319F480
:101660000E944A0EF7CF14FF03C0CE010E94EC0A7D
:10167000CE010E940B0B40E367E0CE010E94CC0A32
:1016800015FB882780F901C080E0DF91CF911F9181
:101690000895CF93DF93EC018A819B81049771F0C9
:1016A000488D436060E0CE010E94CC0A61E0898DE4
:1016B0000E94F50F84E090E09B838A83DF91CF91B5
:1016C0000895CF93DF93EC018A819B810397B9F052
:1016D00060E0898D0E94F50F40E367E0CE010E9433
:1016E000CC0A488D426060E0CE010E94CC0A61E0E5
:1016F000898D0E94F50F83E090E09B838A83DF91C0
:10170000CF9108951F93CF93DF93EC01142F4D31A8
:1017100000F58A858B8F8B858C8F8C858D8F8D8541
:101720008E8F50E0CE014F960E94361324E0210F99
:10173000AE01455E5F4F60EBCE010E94C708CE014F
:101740000E94610B8B899C8901969C8B8B8B81E01D
:1017500001C080E0DF91CF911F910895FC01828D3F
:101760008430C8F0838D8683848D8783858D8087C0
:10177000868D81878581811107C096818481981724
:1017800019F086818F3F39F4818992890196928B75
:10179000818B81E083AF08950F931F93CF93DF93E5
:1017A000EC011BAD111134C02A813B81233031057E
:1017B00081F10E94490B67E1CE010E94110880FD72
:1017C00028C060E6CE010E941108082F813248F03F
:1017D000CE010E94EF0A1BAE1A8ECE010E940B0BA7
:1017E00018C040E467E0CE010E94CC0A202FAE0171
:1017F000455E5F4F61E6CE010E9478080A8FCE01F8
:101800000E94AE0B8BAD882319F0CE010E940B0B0A
:101810001BAD812FDF91CF911F910F9108951F93E1
:10182000CF93DF93EC018D899E89DC01ED91FC91D2
:101830000684F785E02D60E070E00995CE010E94F6
:10184000B207182F811102C010E044C061E0898DF9
:101850000E94BC0F60E0898D0E94F50F40E767E0B1
:10186000CE010E94CC0A4FE36CE1CE010E94CC0A6B
:1018700045E06DE1CE010E94CC0A6DE1CE010E94EF
:1018800011088530A9F4CE010E940B0BCE010E94F5
:10189000EC0ACE010E94EF0A62E0CE010E94F20A39
:1018A00043E050E061E070E0CE010E94F90A12C00E
:1018B00043E760E5CE010E943D0845E06DE1CE01C1
:1018C0000E94CC0A6DE1CE010E941108853009F01A
:1018D000BBCFD9CF812FDF91CF911F910895603277
:1018E00092E079073CF0613699E079072CF060E6E8
:1018F00079E002C060E272E06850710990E09B01FB
:10190000220F232F221F330BFC01EE0FFF1FE80FC6
:10191000F91FED53FB4F2183660F60956283089595
:101920001F920F920FB60F9211242F933F934F9354
:101930005F936F937F938F939F93AF93BF93EF9337
:10194000FF938091C1048F5F8093C1042091C104F3
:101950008091C20490E0FC01EE0FFF1FE80FF91F19
:10196000ED53FB4F818128130EC08091C20490E09B
:10197000FC01EE0FFF1FE80FF91FED53FB4F8281B3
:101980008093B20060C02091C1048091C20490E0B5
:10199000FC01EE0FFF1FE80FF91FED53FB4F818194
:1019A000821708F050C08091C20490E0FC01EE0F55
:1019B000FF1FE80FF91FED53FB4F808185FF0FC01C
:1019C0008091C20490E0FC01EE0FFF1FE80FF91FA9
:1019D000ED53FB4F808160E08F710E94F50F809185
:1019E000C2048F5F8093C2041092C1041092B200AF
:1019F0008091C204882309F18091C2048930E8F4FF
:101A00008091C20490E0FC01EE0FFF1FE80FF91F68
:101A1000ED53FB4F808185FF16C08091C20490E09A
:101A2000FC01EE0FFF1FE80FF91FED53FB4F808104
:101A300061E08F710E94F50F06C08091C204893069
:101A400010F01092C204FF91EF91BF91AF919F915E
:101A50008F917F916F915F914F913F912F910F9057
:101A60000FBE0F901F9018952091C004283030F4BD
:101A70002F5F2093C004FC0120830895FC01108295
:101A800008950F931F93CF93DF93EC01062F80915E
:101A9000BF0481111FC011E06CED75E0812F0E9421
:101AA0006F0C1F5F1930C1F78EE38093C40410924E
:101AB000C2041092C104109270001092B00082E033
:101AC0008093B1001092B20091E097BB90937000A8
:101AD0009093BF048881882399F061E0802F0E9451
:101AE000BC0F288130E0F901EE0FFF1FE20FF31F5A
:101AF000ED53FB4F0F719081907E902B90629083FD
:101B00008881DF91CF911F910F9108950F931F93BB
:101B1000CF93DF93EC01662359F00E94E40E6983B2
:101B20007A838B839C83DF91CF911F910F910895CE
:101B30000E94E40E09811A812B813C81601B710B8C
:101B4000820B930B623371058105910530F763E0D9
:101B500070E080E090E00E94130FEACF60E00C9408
:101B6000860DFC0113AA14AA15AA16AA11821282C4
:101B700013821482411551056105710521F0CB01D5
:101B8000BA010C94130F0895FB01BA01A901DC01FD
:101B9000D296FC93EE93D19726E0CF010C943911A5
:101BA0001F93CF93DF93EC01162F61EC73E089A9AB
:101BB0009AA90E948E124AE050E0612F89A99AA941
:101BC0000E94021368EC73E089A99AA90E948E1200
:101BD00062E370E080E090E0DF91CF911F910C9480
:101BE000130F1F93CF93DF93EC01162F8D81882362
:101BF00089F189A99AA9DC01ED91FC910480F58114
:101C0000E02D0995892BA9F307C02637310519F175
:101C10002835310509F41D8289A99AA9DC01ED91C5
:101C2000FC910480F581E02D09951816190694F4AD
:101C300089A99AA9DC01ED91FC910680F781E02D3C
:101C400009959C01332723363105F9F6612FCE0122
:101C50000E94D00D83E6DF91CF911F9108950F93DD
:101C60001F93CF93DF931F92CDB7DEB78C0166230E
:101C700049F081E0F801858360E0C80149830E9452
:101C8000F10D4981F80145830F90DF91CF911F91AC
:101C90000F910895089508951F920F920FB60F9215
:101CA00011242F933F934F935F936F937F938F9361
:101CB0009F93AF93BF93EF93FF93E0910401F09153
:101CC00005010995FF91EF91BF91AF919F918F9180
:101CD0007F916F915F914F913F912F910F900FBE28
:101CE0000F901F9018951F920F920FB60F9211240C
:101CF0002F933F934F935F936F937F938F939F9314
:101D0000AF93BF93EF93FF93E0910601F09107012A
:101D10000995FF91EF91BF91AF919F918F917F9125
:101D20006F915F914F913F912F910F900FBE0F9048
:101D30001F9018951F920F920FB60F9211242F9398
:101D40003F938F939F93AF93BF938091160590918C
:101D50001705A0911805B09119053091150523E0DC
:101D6000230F2D3720F40196A11DB11D05C026E8D3
:101D7000230F0296A11DB11D209315058093160512
:101D800090931705A0931805B093190580911A0533
:101D900090911B05A0911C05B0911D050196A11DF8
:101DA000B11D80931A0590931B05A0931C05B09359
:101DB0001D05BF91AF919F918F913F912F910F90F2
:101DC0000FBE0F901F9018952FB7F89460911605CD
:101DD0007091170580911805909119052FBF0895EE
:101DE0003FB7F89480911A0590911B05A0911C05AE
:101DF000B0911D0526B5A89B05C02F3F19F001968F
:101E0000A11DB11D3FBF6627782F892F9A2F620F22
:101E1000711D811D911D42E0660F771F881F991F5C
:101E20004A95D1F708958F929F92AF92BF92CF9229
:101E3000DF92EF92FF926B017C010E94F00E4B014A
:101E40005C01C114D104E104F104F1F00E944A0ED6
:101E50000E94F00E681979098A099B09683E73404F
:101E60008105910570F321E0C21AD108E108F1085B
:101E700088EE880E83E0981EA11CB11CC114D10409
:101E8000E104F10429F7DDCFFF90EF90DF90CF90D0
:101E9000BF90AF909F908F9008958230910538F059
:101EA000880F991F880F991F05970197F1F70895DB
:101EB000789484B5826084BD84B5816084BD85B525
:101EC000826085BD85B5816085BDEEE6F0E08081EC
:101ED00081608083E1E8F0E010828081826080830D
:101EE000808181608083E0E8F0E080818160808390
:101EF000E1EBF0E0808184608083E0EBF0E08081C2
:101F000081608083EAE7F0E0808184608083808163
:101F1000826080838081816080838081806880830B
:101F20001092C1000895833081F028F4813099F037
:101F30008230A1F008958730A9F08830B9F084305C
:101F4000D1F4809180008F7D03C0809180008F77D5
:101F500080938000089584B58F7702C084B58F7D0B
:101F600084BD08958091B0008F7703C08091B00048
:101F70008F7D8093B0000895CF93DF9390E0FC01B4
:101F8000E458FE4F2491FC01E057FE4F84918823D2
:101F900049F190E0880F991FFC01E854FE4FA5918C
:101FA000B49182559E4FFC01C591D4919FB76111A8
:101FB00008C0F8948C91209582238C938881822389
:101FC0000AC0623051F4F8948C91322F30958323FB
:101FD0008C938881822B888304C0F8948C91822B07
:101FE0008C939FBFDF91CF9108950F931F93CF9351
:101FF000DF931F92CDB7DEB7282F30E0F901E85903
:10200000FE4F8491F901E458FE4F1491F901E05715
:10201000FE4F04910023C9F0882321F069830E94B8
:10202000930F6981E02FF0E0EE0FFF1FE255FE4FA6
:10203000A591B4919FB7F8948C91611103C010954C
:10204000812301C0812B8C939FBF0F90DF91CF9193
:102050001F910F910895CF93DF93282F30E0F9015E
:10206000E859FE4F8491F901E458FE4FD491F901EB
:10207000E057FE4FC491CC2391F081110E94930F41
:10208000EC2FF0E0EE0FFF1FEC55FE4FA591B49141
:102090002C912D2381E090E021F480E002C080E0CB
:1020A00090E0DF91CF9108950E943113FC01818D62
:1020B000228D90E0805C9F4F821B91098F7399273E
:1020C0000895FC01918D828D981731F0828DE80F73
:1020D000F11D858D90E008958FEF9FEF0895FC012D
:1020E000918D828D981761F0828DDF01A80FB11D4F
:1020F0005D968C91928D9F5F9F73928F90E0089573
:102100008FEF9FEF089583EF91E1892B49F080E0F5
:1021100090E0892B29F00E94F31181110C940000AA
:102120000895FC01848DDF01A80FB11DA35ABF4F94
:102130002C91848D90E001968F739927848FA689C6
:10214000B7892C93A089B1898C9180648C93938DED
:10215000848D981306C00288F389E02D80818F7DDD
:1021600080830895CF93DF93EC01888D8823C9F095
:10217000EA89FB89808185FD05C0A889B9898C9190
:1021800086FD0FC00FB607FCF5CF808185FFF2CF2B
:10219000A889B9898C9185FFEDCFCE010E9491105D
:1021A000E7CFDF91CF910895CF92DF92FF920F9307
:1021B0001F93CF93DF931F92CDB7DEB76C0181E001
:1021C000D60158968C9358975B969C915B975C963A
:1021D0008C915C97981307C05096ED91FC915197A4
:1021E000808185FD2EC0F601038D10E00F5F1F4F2B
:1021F0000F731127F02EF601848DF81211C00FB65F
:1022000007FCF9CFD6015096ED91FC915197808152
:1022100085FFF1CFC60169830E9491106981EBCFE0
:10222000838DE80FF11DE35AFF4F6083D6015B9663
:102230000C935B975296ED91FC915397808180624D
:102240000CC0D6015696ED91FC915797608350963D
:10225000ED91FC91519780818064808381E090E0D2
:102260000F90DF91CF911F910F91FF90DF90CF9052
:102270000895BF92CF92DF92EF92FF92CF93DF93B8
:10228000EC016A017B01B22EE889F98982E0808342
:10229000411581EE580761057105A1F060E079E014
:1022A0008DE390E0A70196010E94091321503109A6
:1022B000410951095695479537952795211580E194
:1022C000380798F0E889F989108260E874E88EE1AF
:1022D00090E0A70196010E9409132150310941099C
:1022E00051095695479537952795EC85FD8530839F
:1022F000EE85FF852083188EEC89FD89B082EA89FE
:10230000FB89808180618083EA89FB898081886084
:102310008083EA89FB89808180688083EA89FB89E0
:1023200080818F7D8083DF91CF91FF90EF90DF9050
:10233000CF90BF9008951F920F920FB60F92112465
:102340002F938F939F93EF93FF93E0912E05F0913E
:102350002F058081E0913405F091350582FD12C092
:102360009081809137058F5F8F7320913805821798
:1023700051F0E0913705F0E0E25EFA4F958F8093DF
:10238000370501C08081FF91EF919F918F912F912F
:102390000F900FBE0F901F9018951F920F920FB6BF
:1023A0000F9211242F933F934F935F936F937F93DB
:1023B0008F939F93AF93BF93EF93FF938EE195E03D
:1023C0000E949110FF91EF91BF91AF919F918F91DA
:1023D0007F916F915F914F913F912F910F900FBE21
:1023E0000F901F9018958EE195E00E94561021E005
:1023F000892B09F420E0822F089510922105109274
:10240000200588EE93E0A0E0B0E080932205909351
:102410002305A0932405B09325058DE194E09093C6
:102420001F0580931E0585EC90E090932B0580930B
:102430002A0584EC90E090932D0580932C0580EC88
:1024400090E090932F0580932E0581EC90E090937F
:1024500031058093300582EC90E0909333058093B2
:10246000320586EC90E09093350580933405109208
:102470003705109238051092390510923A050895E3
:1024800008950E94580F0E9440120E943F02C3E824
:10249000D0E10E940E012097E1F30E948310F9CF52
:1024A000CF92DF92EF92FF920F931F93CF93DF9320
:1024B0007C016A01EB0100E010E00C151D0571F0D4
:1024C0006991D701ED91FC910190F081E02DC70158
:1024D0000995892B19F00F5F1F4FEFCFC801DF91CE
:1024E000CF911F910F91FF90EF90DF90CF900895C3
:1024F0006115710581F0DB010D900020E9F7AD0158
:1025000041505109461B570BDC01ED91FC910280B3
:10251000F381E02D099480E090E008950C94781206
:102520006EEC73E00C9478120F931F93CF93DF93AC
:10253000EC010E9478128C01CE010E949012800F53
:10254000911FDF91CF911F910F9108958F929F92CC
:10255000AF92BF92DF92EF92FF920F931F93CF93B0
:10256000DF93CDB7DEB7A1970FB6F894DEBF0FBEED
:10257000CDBF7C01F42FD52ECB0119A2223008F457
:102580002AE08E010F5D1F4F822E912CA12CB12CC1
:102590006F2F7D2DA50194010E940913F22FD32ED8
:1025A000CA01015011096A3014F4E0E301C0E7E305
:1025B000E60FD801EC93232B242B252B49F7B801E8
:1025C000C7010E947812A1960FB6F894DEBF0FBE25
:1025D000CDBFDF91CF911F910F91FF90EF90DF90D2
:1025E000BF90AF909F908F9008952115310541F4D1
:1025F000DC01ED91FC910190F081E02D642F0994B4
:102600000C94A6129A01462F50E060E070E00C9402
:10261000F512A1E21A2EAA1BBB1BFD010DC0AA1FB9
:10262000BB1FEE1FFF1FA217B307E407F50720F03B
:10263000A21BB30BE40BF50B661F771F881F991FB6
:102640001A9469F760957095809590959B01AC01FF
:10265000BD01CF010895EE0FFF1F0590F491E02D0D
:10266000099481E090E0F8940C943F13FB01DC01A5
:1026700002C001900D9241505040D8F70895F8944F
:02268000FFCF8A
:10268200010000004B0E4B0E41726D20746F206EE4
:1026920065757472616C20706F736974696F6E0016
:1026A2004772616262657220746F206E6575747222
:1026B200616C20706F736974696F6E00477261623A
:1026C20062696E67004772616262657220746F2090
:1026D200706F736974696F6E200041726D20746F40
:1026E20020706F736974696F6E2000537465707324
:1026F200697A653A20004D6F746F72737065656414
:102702003A200061726D206F66667365743A20002C
:102712002020007475726E696E67206F6E6520727C
:102722006F756E643A200074657374696E67205227
:10273200504D3A200054656D706572617475726512
:1027420020666F7220446576696365203120697363
:102752003A2000696E6974206661696C6564007371
:1027620065744368616E6E656C206661696C656450
:10277200007365745246206661696C656400526537
:1027820063656976696E67206D6573736167652E2F
:102792002E004D65737361676520726563656976A6
:1027A20065643A2000417474656D7074696E6720C7
:1027B200746F20636F6E6669726D004F4B53544F96
:1027C2005000436F6E6669726D656400434F4E46FA
:1027D20049524D45440035207365636F6E64207421
:1027E200696D656F757400564D4450565F317C318A
:1027F2005F564D4450560D0A0053656E64696E670C
:10280200206D6573736167652E2E00417474656D6A
:10281200707420737461727465642E2E006D65731A
:10282200736167652073656E7400526563656976CE
:10283200656420726573706F6E73653A200041742F
:1028420074656D7074696E6720746F20636F6E6655
:1028520069726D2E2E2E004D65737361676520734C
:10286200756363657366756C6C792073656E74004D
:1028720031207365636F6E642074696D656F757462
:102882000000000000660654105410541054108CBE
:10289200069E06E306AC066B066E067106740677A4
:1028A2000668067E068106840687068A0600000000
:1028B20000541029072A07541054102B072F0733EE
:1028C20007050004040000000043074A074E0762A0
:1028D2000752072B072F07330700000000B20754E7
:1028E200105410541054108C069E06E306AC066B6E
:1028F200066E0671067406770668067E06810684F1
:102902000687068A060D0E131516191A1C2325268C
:10291200292A2C3234000000000F0CCC0B7D0A82D5
:102922000B7B0A8C06220BE306AC066B066E067165
:10293200067406770668067E06810684068706D038
:102942000A564D4450435F005F564D4450430D0AB2
:10295200004572726F723A20417474656D70742012
:10296200746F20736574206120726561642D6F6ECF
:102972006C79207661726961626C65206F72206485
:102982006174612074797065206E6F742073757044
:10299200706F727465640D0A0000000000D410505C
:1029A2001256106F106110B2106E616E00696E6681
:0629B200006F76660000D4
:00000001FF
