:100000000C946E000C9496000C9496000C94960040
:100010000C9496000C9496000C9496000C94960008
:100020000C9496000C94A2080C9496000C949600E4
:100030000C9496000C9496000C9496000C949600E8
:100040000C940A0A0C9496000C94E00C0C94120D7B
:100050000C9496000C9496000C9496000C949600C8
:100060000C9496000C949600C202C902D002D702EA
:10007000DE02F502E502F502EC02650369036D0399
:100080007103750379037D0300000008000201007D
:100090000003040700000000000000000102040843
:1000A00010204080010204081020010204081020E2
:1000B000040404040404040402020202020203030E
:1000C0000303030300000000250028002B000000AC
:1000D0000000240027002A000901420D11241FBE40
:1000E000CFEFD8E0DEBFCDBF11E0A0E0B1E0ECE2A1
:1000F000F2E202C005900D92AE39B107D9F722E0C5
:10010000AEE9B1E001C01D92AC3DB207E1F710E0ED
:10011000CCEDD0E004C02297FE010E94EE10C83D55
:10012000D107C9F70E94860D0C9414110C9400009D
:1001300040ED57E060E070E08FEF91E00E947109C0
:1001400020E835E240E050E06FE372E08FEF91E0AD
:100150000E9484098FEF91E00E946E096AE071E0CD
:1001600080913002909131020E94D30D6AE070E0DC
:1001700080E090E00E94830A41E060E08FEF91E030
:100180000E94EF0926E040E855E260E070E08FE36E
:1001900092E00E947E0C40E05CE36CE176E48EE944
:1001A00091E00E94FF0740E050E06AE774E48EE9C6
:1001B00091E00C949A07CF92DF92EF92FF92CF9347
:1001C000DF93EC010E94540A6B017C01209106012F
:1001D00030910701409108015091090168E97AE3E3
:1001E00080E090E00E94AB10DE010E94FD10C60E80
:1001F000D71EE81EF91E0E94540A6C157D058E0557
:100200009F05C8F3DF91CF91FF90EF90DF90CF90E3
:100210000895CF92EF920F93C12C87E0E82E06E06D
:1002200024E042E064E08EE991E00E942E070F9105
:10023000EF90CF900895CF92DF92EF92FF92CF93FD
:10024000DF93EA01409104015091050151954195D8
:10025000510950930501409304019C01429FC00144
:10026000439F900D529F900D11246150710902C05F
:10027000880F991F6A95E2F7BC01882777FD809562
:10028000982F0E943D0FAB01BC018EE991E00E94C6
:1002900023080E94540A6B017C01209106013091D1
:1002A0000701409108015091090168E97AE380E073
:1002B00090E00E94AB10DE010E94FD10C60ED71E1A
:1002C000E81EF91E0E94540A6C157D058E059F05D7
:1002D00028F48EE991E00E94DD04F4CF8EE991E0EC
:1002E000DF91CF91FF90EF90DF90CF900C948D0431
:1002F00080EA90E0A0E0B0E08093060190930701CF
:10030000A0930801B093090142E050E062E070E080
:1003100084EC90E00E941B0142E050E062E070E05B
:100320008AEB90E00E941B0142E050E062E070E046
:100330008BE990E00E941B0142E050E062E070E037
:100340008EE690E00E941B0142E050E061E070E028
:1003500080ED90E00E941B0142E050E062E070E01E
:1003600085EA90E00E941B0142E050E062E070E00C
:1003700080ED90E00E941B0144E050E063E070E0FB
:1003800083E890E00E941B018EE090E00C94DB007B
:100390008EE690E0A0E0B0E0809306019093070124
:1003A000A0930801B093090143E050E062E070E0DF
:1003B00083E890E00E941B0141E050E062E070E0C1
:1003C00083E890E00E941B0144E050E062E070E0AE
:1003D00083E990E00E941B0144E050E062E070E09D
:1003E00083E890E00E941B0144E050E062E070E08E
:1003F0008EEA90E00E941B0145E050E062E070E070
:1004000085EA90E00E941B0183E090E00E94DB00FF
:1004100043E050E062E070E083E890E00E941B015E
:1004200041E050E062E070E083E890E00E941B0150
:1004300044E050E062E070E083E990E00E941B013C
:1004400044E050E062E070E083E890E00E941B012D
:1004500044E050E062E070E084EC90E00E941B0118
:1004600045E050E062E070E08EEA90E00E941B01FF
:1004700083E090E00E94DB0043E050E062E070E047
:1004800083E890E00E941B0141E050E062E070E0F0
:1004900083E890E00E941B0144E050E063E070E0DC
:1004A00083E890E00E941B0144E050E063E070E0CC
:1004B0008EE690E00E941B0143E050E062E070E0B5
:1004C0008EEA90E00E941B0141E050E062E070E0A3
:1004D0008EEA90E00E941B0144E050E062E070E090
:1004E00085EA90E00E941B0144E050E062E070E089
:1004F00083E990E00E941B0143E050E063E070E07C
:1005000084E790E00E941B0141E050E063E070E06E
:1005100084E790E00E941B0144E050E063E070E05B
:100520008EE690E00E941B0144E050E062E070E043
:100530008EEA90E00E941B0144E050E062E070E02F
:1005400084EC90E00E941B0146E050E062E070E025
:100550008EEA90E00E941B0182E190E00C94DB00A7
:100560000E9478010C94C8010F931F93DC0112962E
:100570000C9110E009301105C0F5F801EC5CFF4F5B
:100580000C94EC10DC01ED91FC910084F185E02DE0
:1005900029C0DC01ED91FC910284F385E02D22C09D
:1005A000DC01ED91FC910484F585E02D1BC0DC019C
:1005B000ED91FC910684F785E02D14C0DC01ED91EE
:1005C000FC910088F189E02D0DC0DC01ED91FC91DA
:1005D0000288F389E02D06C0DC01ED91FC910488CE
:1005E000F589E02D1F910F9109941F910F910895A6
:1005F000CF93DF93EC01CB01BA0126E030E040E07D
:1006000050E00E94CD10623071058105910559F1CD
:100610008CF46115710581059105F1F0613071056A
:1006200081059105C1F5E881F9810480F581E02D0E
:1006300065E02DC0643071058105910511F1D4F09C
:10064000653071058105910531F5E881F9810480F6
:10065000F581E02D66E01BC0E881F9810480F58119
:10066000E02D64E014C0E881F9810480F581E02D7B
:1006700061E00DC0E881F9810480F581E02D63E03F
:1006800006C0E881F9810480F581E02D62E0CE01A9
:10069000DF91CF910994DF91CF910895CF93DF93AC
:1006A000477055276627772741505109DC01CD91C6
:1006B000DC914730510528F4435C5F4FFA010C94FC
:1006C000EC10EC81FD8161E01BC0EC81FD8165E0F7
:1006D00017C0EC81FD8164E013C0EC81FD8166E010
:1006E0000FC0EC81FD8162E00BC0EC81FD816AE00E
:1006F00007C0EC81FD8168E003C0EC81FD8169E009
:10070000DF91CF910994AF92BF92DF92EF92FF9267
:100710000F931F93CF93DF931F92CDB7DEB78C015A
:10072000FC018281843041F0883031F0833031F037
:10073000863021F022E003C024E001C023E0A12C98
:10074000B12CE62EF12CDD24D394F801EA0DFB1D2B
:10075000C7010A2C02C0959587950A94E2F7678134
:1007600080FD6D25838129830E94650BFFEFAF1A01
:10077000BF0A2981A21648F30F90DF91CF911F91F4
:100780000F91FF90EF90DF90BF90AF9008950F937F
:100790001F93CF93DF93EC01E881F9810480F58109
:1007A000E02D8C010D5B1F4FD8018C91882311F037
:1007B00062E001C060E0CE010995E881F981048022
:1007C000F581E02DD8018C91882311F063E001C000
:1007D00061E0CE0109958BA59CA50E94BD0AE88128
:1007E000F9810480F581E02DD8018C91882311F0E6
:1007F00062E001C060E0CE01DF91CF911F910F91C7
:100800000994CF93DF93EC0120E030E0A9016B89DC
:100810007C898D899E890E94ED0F18161CF4EFA526
:10082000F8A902C0E9A9FAA9DF91CF910994437010
:10083000552766277727DC01ED91FC910480F5812F
:10084000E02D423051056105710571F043305105CD
:100850006105710559F0413051056105710511F0CF
:1008600062E005C063E003C061E001C060E009949C
:10087000CF93DF93EC01CB01BA0123E030E040E0FD
:1008800050E00E94CD10613071058105910581F025
:10089000623071058105910591F0672B682B692BFA
:1008A000C1F4E881F9810480F581E02D64E00DC098
:1008B000E881F9810480F581E02D61E006C0E881DE
:1008C000F9810480F581E02D62E0CE01DF91CF91C6
:1008D0000994DF91CF9108954370552766277727B4
:1008E000DC01ED91FC910480F581E02D4230510551
:1008F0006105710571F0433051056105710559F0CD
:10090000413051056105710511F065E005C066E0F3
:1009100003C06AE001C069E00994CF93DF93EC0162
:100920008A818823A1F0E881F9810480F581E02D96
:1009300060E0CE0109958EA58F3F49F061E00E94ED
:100940002C0B6DA58EA5DF91CF910C94650BDF91DB
:10095000CF910895CF93DF93EC018A81882351F1E1
:1009600061E08B810E942C0B61E08C810E942C0B3A
:100970008A81843011F0883039F461E08D810E94E1
:100980002C0B61E08E8106C0833011F0863021F49B
:1009900061E08D810E942C0B8EA58F3F59F061E0A4
:1009A0000E942C0B6DA581E068278EA5DF91CF9169
:1009B0000C94650BDF91CF910895CF92DF92EF9267
:1009C000FF920F931F93CF93DF93EC014BA15CA198
:1009D0006DA17EA1452B462B472B09F44DC00E94EB
:1009E000600A6B017C010FA118A529A53AA54BA1AE
:1009F0005CA16DA17EA1400F511F621F731F4017A4
:100A000051076207730730F0C416D506E606F706ED
:100A100058F405C0C416D506E606F70668F1C016F8
:100A2000D106E206F30640F5FE01ED5BFF4F808143
:100A30004B855C856D857E85882329F04F5F5F4FF0
:100A40006F4F7F4F04C041505109610971094B87B5
:100A50005C876D877E87E881F9814B855C856D8534
:100A60007E850680F781E02DCE010995CFA2D8A61C
:100A7000E9A6FAA681E001C080E0DF91CF911F9145
:100A80000F91FF90EF90DF90CF9008952F923F92BB
:100A90004F925F926F927F928F929F92AF92BF928E
:100AA000CF92DF92EF92FF920F931F93CF93DF933A
:100AB00000D000D0CDB7DEB71C01FC018784908840
:100AC000A188B28883859485A585B685881A990AF8
:100AD000AA0ABB0A63897489858996899B01AC013E
:100AE0000E94F10F6B017C01F101638D748D858D86
:100AF000968D9B01AC010E943A0E9B01AC01C7018F
:100B0000B6010E94A20E0E940A0F81149104A10452
:100B1000B104A1F462307105810591050CF07CC02F
:100B2000F10113A214A215A216A2138A148A158A1F
:100B3000168A13AA14AA15AA16AA03C1F10103A9B9
:100B400014A925A936A9ED5BFF4F181419041A043E
:100B50001B04FCF410161106120613064CF468155B
:100B600079058A059B054CF52081211155C025C0CA
:100B7000011511052105310509F44EC068157905E7
:100B80008A059B050CF048C08081882309F444C085
:100B900037C01016110612061306F4F400271127A9
:100BA0009801081919092A093B096017710782077A
:100BB00093071CF42081222379F19B01AC01882743
:100BC0009927DC01821B930BA40BB50BF10183ABBE
:100BD00094ABA5ABB6AB20C00115110521053105BD
:100BE000D9F0CC24DD247601C818D908EA08FB081E
:100BF0006C157D058E059F057CF4808181110CC0EC
:100C000030952095109501951F4F2F4F3F4FF101C3
:100C100003AB14AB25AB36ABF101C3A8D4A8E5A850
:100C2000F6A881010D5B1F4FC114D104E104F1044A
:100C300091F487A990ADA1ADB2AD83AF94AFA5AF4C
:100C4000B6AF81E0181419041A041B040CF080E0FC
:100C5000F801808340C0F10183AC94ACA5ACB6AC84
:100C6000A5019401C501B4010E943A0E2B013C017B
:100C7000C701B6010E943D0F20E030E040E850E49B
:100C80000E94F10F20E030E040E85FE30E943A0E5E
:100C90009B01AC01C301B2010E94A20E9B01AC01F9
:100CA000C501B4010E94390E2B013C01F101FF96F0
:100CB00080809180A280B3809401A5010E94ED0FF5
:100CC000181614F442015301C401D501F10183AF98
:100CD00094AFA5AFB6AFFFEFCF1ADF0AEF0AFF0A56
:100CE000F101C3AAD4AAE5AAF6AA23AD34AD45AD55
:100CF00056ADCA01B90129833A834B835C830E94B4
:100D00000F0FF10163A374A385A396A329813A81F0
:100D10004B815C8160E074E284E799E40E94A20E5A
:100D2000F101638B748B858B968BF80120812111E7
:100D300008C0DC01CB01B058F101838B948BA58BEB
:100D4000B68B0F900F900F900F90DF91CF911F9166
:100D50000F91FF90EF90DF90CF90BF90AF909F905A
:100D60008F907F906F905F904F903F902F9008955D
:100D70004F925F926F927F928F929F92AF92BF92AB
:100D8000CF92DF92EF92FF92CF93DF93EC016A0153
:100D90007B018B8C9C8CAD8CBE8C9A01AB01C50108
:100DA000B4010E949E0E882309F449C06BA97CA956
:100DB0008DA99EA90E943D0F2B013C01A701960120
:100DC000C501B4010E94A20E9B01AC01C301B20196
:100DD0000E94F10F0E940A0F6BAB7CAB8DAB9EABF8
:100DE000A701960160E070E080E090E40E94A20E0E
:100DF0000E94581026E53EE04DE25FE30E94F10FAD
:100E000020E034E244E759E40E94F10F6FAB78AF81
:100E100089AF9AAFCB8EDC8EED8EFE8ECE01DF9148
:100E2000CF91FF90EF90DF90CF90BF90AF909F90C9
:100E30008F907F906F905F904F900C944605DF915C
:100E4000CF91FF90EF90DF90CF90BF90AF909F90A9
:100E50008F907F906F905F904F9008958F929F92A8
:100E6000AF92BF92CF92EF920F93CF93DF93EC01AB
:100E700080E291E0998388836A831B861C861D86A5
:100E80001E861F86188A198A1A8A1B8A1C8A1D8A3E
:100E90001E8A812C912C80E8A82E8FE3B82E8F8A91
:100EA000988EA98EBA8E1B8E1C8E1D8E1E8E8F8ED6
:100EB00098A2A9A2BAA21BA21CA21DA21EA281E0F6
:100EC00090E09CA78BA78FEF8EA71FA218A619A64C
:100ED0001AA64B832C830D83EE821BAA1CAA1DAA83
:100EE0001EAA1FAA18AE19AE1AAE1BAE1CAE1DAEBE
:100EF0001EAEFE01FF9680829182A282B38234965A
:100F000010821F82188619861A86CC2019F0CE010D
:100F10000E94AA0440E050E060E87FE3CE01DF9148
:100F2000CF910F91EF90CF90BF90AF909F908F9007
:100F30000C94B806CF92DF92EF92FF920F931F931B
:100F4000CF93DF93EC016A017B019A01AB016F89BA
:100F5000788D898D9A8D0E949E0E882309F446C053
:100F6000CF8AD88EE98EFA8E8E01015C1F4FA701C1
:100F7000960160E074E284E799E40E94A20EF80111
:100F800060837183828393838BA99CA9ADA9BEA939
:100F9000181619061A061B064CF56B897C898D8973
:100FA0009E899B01AC010E94F10F6B017C016B8D4E
:100FB0007C8D8D8D9E8D9B01AC010E943A0E9B0114
:100FC000AC01C701B6010E94A20E0E940A0F6BABD2
:100FD0007CAB8DAB9EABCE01DF91CF911F910F917A
:100FE000FF90EF90DF90CF900C944605DF91CF916A
:100FF0001F910F91FF90EF90DF90CF900895CF92C7
:10100000DF92EF92FF92CF93DF93EC016A017B01B5
:1010100020E030E0A901C701B6010E949E0E88239E
:1010200059F0B701A601CE01DF91CF91FF90EF906B
:10103000DF90CF900C94B806DF91CF91FF90EF90A6
:10104000DF90CF9008956F927F928F929F92AF9290
:10105000BF92CF92DF92EF92FF920F931F93CF93A5
:10106000DF93EC013A018B012B893C894D895E8924
:10107000B301C8010E949E0E882309F454C0CF8892
:10108000D88CE98CFA8C46015701B7FAB094B7F8BE
:10109000B094A5019401B301C8010E949E0E87FD82
:1010A0000BC0A7019601B301C8010E94ED0F1816ED
:1010B0002CF43601870102C03401850120E030E0C4
:1010C000A901B301C8010E949E0E811105C01BA297
:1010D0001CA21DA21EA221C09301A80160E074E21F
:1010E00084E799E40E94A20E9F770E940F0F6BA3E2
:1010F0007CA38DA39EA37E0183E4E80EF11CDD2476
:10110000D39420E030E0A901B301C8010E94ED0FA3
:1011100018160CF0D12CF701D082C301D8018B8BAB
:101120009C8BAD8BBE8BDF91CF911F910F91FF9068
:10113000EF90DF90CF90BF90AF909F908F907F9077
:101140006F9008951F920F920FB60F9211242F9354
:101150003F934F935F936F937F938F939F93AF933F
:10116000BF93EF93FF938091E2018F5F8093E20141
:101170002091E2018091E30190E0FC01EE0FFF1F5E
:10118000E80FF91FEC51FE4F818128130EC08091AA
:10119000E30190E0FC01EE0FFF1FE80FF91FEC5197
:1011A000FE4F82818093B20060C02091E201809165
:1011B000E30190E0FC01EE0FFF1FE80FF91FEC5177
:1011C000FE4F8181821708F050C08091E30190E0CA
:1011D000FC01EE0FFF1FE80FF91FEC51FE4F80815D
:1011E00085FF0FC08091E30190E0FC01EE0FFF1F2F
:1011F000E80FF91FEC51FE4F808160E08F710E9473
:10120000650B8091E3018F5F8093E3011092E2010F
:101210001092B2008091E301882309F18091E301EB
:101220008930E8F48091E30190E0FC01EE0FFF1FAC
:10123000E80FF91FEC51FE4F808185FF16C08091A9
:10124000E30190E0FC01EE0FFF1FE80FF91FEC51E6
:10125000FE4F808161E08F710E94650B06C0809116
:10126000E301893010F01092E301FF91EF91BF91FB
:10127000AF919F918F917F916F915F914F913F912E
:101280002F910F900FBE0F901F9018950F931F93E3
:10129000CF93DF93EC01662359F00E94540A6983CF
:1012A0007A838B839C83DF91CF911F910F91089557
:1012B0000E94540A09811A812B813C81601B710BA9
:1012C000820B930B623371058105910530F763E062
:1012D00070E080E090E00E94830AEACF60E00C9426
:1012E0004609FC0113AA14AA15AA16AA1182128291
:1012F00013821482411551056105710521F0CB015E
:10130000BA010C94830A0895FB01BA01A901DC011A
:10131000D296FC93EE93D19726E0CF010C947E0CED
:101320001F93CF93DF93EC01162F66E371E089A939
:101330009AA90E94D30D4AE050E0612F89A99AA989
:101340000E94310E6DE371E089A99AA90E94D30D24
:1013500062E370E080E090E0DF91CF911F910C9408
:10136000830A1F93CF93DF93EC01162F8D8188237F
:1013700089F189A99AA9DC01ED91FC910480F5819C
:10138000E02D0995892BA9F307C02637310519F1FE
:101390002835310509F41D8289A99AA9DC01ED914E
:1013A000FC910480F581E02D09951816190694F436
:1013B00089A99AA9DC01ED91FC910680F781E02DC5
:1013C00009959C01332723363105F9F6612FCE01AB
:1013D0000E94900983E6DF91CF911F9108950F93AA
:1013E0001F93CF93DF931F92CDB7DEB78C01662397
:1013F00049F081E0F801858360E0C80149830E94DB
:10140000B1094981F80145830F90DF91CF911F9178
:101410000F9108951F920F920FB60F9211242F93E0
:101420003F938F939F93AF93BF9380913702909197
:101430003802A0913902B0913A023091360223E08D
:10144000230F2D3720F40196A11DB11D05C026E8FC
:10145000230F0296A11DB11D2093360280933702FF
:1014600090933802A0933902B0933A0280913B02E4
:1014700090913C02A0913D02B0913E020196A11DC7
:10148000B11D80933B0290933C02A0933D02B09328
:101490003E02BF91AF919F918F913F912F910F90FD
:1014A0000FBE0F901F9018952FB7F89460913702D8
:1014B000709138028091390290913A022FBF0895BD
:1014C0003FB7F89480913B0290913C02A0913D027D
:1014D000B0913E0226B5A89B05C02F3F19F001969A
:1014E000A11DB11D3FBF6627782F892F9A2F620F4C
:1014F000711D811D911D42E0660F771F881F991F86
:101500004A95D1F708958F929F92AF92BF92CF9252
:10151000DF92EF92FF926B017C010E94600A4B0107
:101520005C01C114D104E104F104F1F00E94380E11
:101530000E94600A681979098A099B09683E73400C
:101540008105910570F321E0C21AD108E108F10884
:1015500088EE880E83E0981EA11CB11CC114D10432
:10156000E104F10429F7DDCFFF90EF90DF90CF90F9
:10157000BF90AF909F908F9008958230910538F082
:10158000880F991F880F991F05970197F1F7089504
:10159000789484B5826084BD84B5816084BD85B54E
:1015A000826085BD85B5816085BDEEE6F0E0808115
:1015B00081608083E1E8F0E0108280818260808336
:1015C000808181608083E0E8F0E0808181608083B9
:1015D000E1EBF0E0808184608083E0EBF0E08081EB
:1015E00081608083EAE7F0E080818460808380818D
:1015F0008260808380818160808380818068808335
:101600001092C1000895833081F028F4813099F060
:101610008230A1F008958730A9F08830B9F0843085
:10162000D1F4809180008F7D03C0809180008F77FE
:1016300080938000089584B58F7702C084B58F7D34
:1016400084BD08958091B0008F7703C08091B00071
:101650008F7D8093B0000895CF93DF9390E0FC01DD
:10166000E456FF4F2491FC01E055FF4F84918823FD
:1016700049F190E0880F991FFC01E253FF4FA591BB
:10168000B4918C539F4FFC01C591D4919FB76111C8
:1016900008C0F8948C91209582238C9388818223B2
:1016A0000AC0623051F4F8948C91322F3095832324
:1016B0008C938881822B888304C0F8948C91822B30
:1016C0008C939FBFDF91CF9108950F931F93CF937A
:1016D000DF931F92CDB7DEB7282F30E0F901E8572E
:1016E000FF4F8491F901E456FF4F1491F901E05541
:1016F000FF4F04910023C9F0882321F069830E94E1
:10170000030B6981E02FF0E0EE0FFF1FEC53FF4F5A
:10171000A591B4919FB7F8948C91611103C0109575
:10172000812301C0812B8C939FBF0F90DF91CF91BC
:101730001F910F910895FC01818D228D90E0805CB6
:101740009F4F821B91098F7399270895FC01918DFA
:10175000828D981731F0828DE80FF11D858D90E014
:1017600008958FEF9FEF0895FC01918D828D98175A
:1017700061F0828DDF01A80FB11D5D968C91928D75
:101780009F5F9F73928F90E008958FEF9FEF089572
:1017900088E39DE0892B49F080E090E0892B29F0D7
:1017A0000E94380D81110C9400000895FC01848D75
:1017B000DF01A80FB11DA35ABF4F2C91848D90E07B
:1017C00001968F739927848FA689B7892C93A08956
:1017D000B1898C9180648C93938D848D981306C00D
:1017E0000288F389E02D80818F7D80830895CF93D7
:1017F000DF93EC01888D8823C9F0EA89FB89808119
:1018000085FD05C0A889B9898C9186FD0FC00FB6EA
:1018100007FCF5CF808185FFF2CFA889B9898C912B
:1018200085FFEDCFCE010E94D60BE7CFDF91CF91A0
:101830000895CF92DF92FF920F931F93CF93DF9380
:101840001F92CDB7DEB76C0181E0D60158968C931C
:1018500058975B969C915B975C968C915C979813DC
:1018600007C05096ED91FC915197808185FD2EC067
:10187000F601038D10E00F5F1F4F0F731127F02E3D
:10188000F601848DF81211C00FB607FCF9CFD6010E
:101890005096ED91FC915197808185FFF1CFC60163
:1018A00069830E94D60B6981EBCF838DE80FF11D10
:1018B000E35AFF4F6083D6015B960C935B97529679
:1018C000ED91FC915397808180620CC0D6015696B1
:1018D000ED91FC91579760835096ED91FC91519753
:1018E00080818064808381E090E00F90DF91CF91D0
:1018F0001F910F91FF90DF90CF900895BF92CF92EC
:10190000DF92EF92FF92CF93DF93EC016A017B01AC
:10191000B22EE889F98982E08083411581EE58076B
:1019200061057105A1F060E079E08DE390E0A70129
:1019300096010E94AB102150310941095109569579
:10194000479537952795211580E1380798F0E88964
:10195000F989108260E874E88EE190E0A7019601B1
:101960000E94AB1021503109410951095695479504
:1019700037952795EC85FD853083EE85FF8520839F
:10198000188EEC89FD89B082EA89FB8980818061AB
:101990008083EA89FB89808188608083EA89FB896A
:1019A000808180688083EA89FB8980818F7D808344
:1019B000DF91CF91FF90EF90DF90CF90BF9008958F
:1019C0001F920F920FB60F9211242F938F939F9314
:1019D000EF93FF93E0914F02F09150028081E091EC
:1019E0005502F091560282FD12C0908180915802FA
:1019F0008F5F8F7320915902821751F0E091580246
:101A0000F0E0E15CFD4F958F8093580201C080812A
:101A1000FF91EF919F918F912F910F900FBE0F909B
:101A20001F9018951F920F920FB60F9211242F93AB
:101A30003F934F935F936F937F938F939F93AF9356
:101A4000BF93EF93FF938FE392E00E94D60BFF9139
:101A5000EF91BF91AF919F918F917F916F915F9126
:101A60004F913F912F910F900FBE0F901F9018959F
:101A70008FE392E00E949B0B21E0892B09F420E088
:101A8000822F0895109242021092410288EE93E054
:101A9000A0E0B0E08093430290934402A0934502FB
:101AA000B093460282E991E09093400280933F0216
:101AB00085EC90E090934C0280934B0284EC90E094
:101AC00090934E0280934D0280EC90E090935002F0
:101AD00080934F0281EC90E09093520280935102E8
:101AE00082EC90E0909354028093530286EC90E055
:101AF0009093560280935502109258021092590208
:101B000010925A0210925B02089508950E94C80A2A
:101B10000E94850D0E949800C8ECDBE00E94B00294
:101B20002097E1F30E94C80BF9CFCF92DF92EF929A
:101B3000FF920F931F93CF93DF937C016A01EB0118
:101B400000E010E00C151D0571F06991D701ED91D1
:101B5000FC910190F081E02DC7010995892B19F0C6
:101B60000F5F1F4FEFCFC801DF91CF911F910F91F2
:101B7000FF90EF90DF90CF9008956115710581F08F
:101B8000DB010D900020E9F7AD0141505109461BE2
:101B9000570BDC01ED91FC910280F381E02D09945B
:101BA00080E090E008950C94BD0D8F929F92AF92CB
:101BB000BF92DF92EF92FF920F931F93CF93DF9329
:101BC000CDB7DEB7A1970FB6F894DEBF0FBECDBF7D
:101BD0007C01F42FD52ECB0119A2223008F42AE083
:101BE0008E010F5D1F4F822E912CA12CB12C6F2FD7
:101BF0007D2DA50194010E94AB10F22FD32ECA01B6
:101C0000015011096A3014F4E0E301C0E7E3E60F84
:101C1000D801EC93232B242B252B49F7B801C701BE
:101C20000E94BD0DA1960FB6F894DEBF0FBECDBFCA
:101C3000DF91CF911F910F91FF90EF90DF90BF90B8
:101C4000AF909F908F9008952115310541F4DC01EC
:101C5000ED91FC910190F081E02D642F09940C949A
:101C6000D50D9A01462F50E060E070E00C94240EF0
:101C700008955058BB27AA270ED075C166D130F001
:101C80006BD120F031F49F3F11F41EF45BC10EF4D0
:101C9000E095E7FB51C1E92F77D180F3BA176207CE
:101CA00073078407950718F071F49EF58FC10EF441
:101CB000E0950B2EBA2FA02D0B01B90190010C015C
:101CC000CA01A0011124FF27591B99F0593F50F474
:101CD000503E68F11A16F040A22F232F342F4427CC
:101CE000585FF3CF469537952795A795F0405395C4
:101CF000C9F77EF41F16BA0B620B730B840BBAF094
:101D00009150A1F0FF0FBB1F661F771F881FC2F7FE
:101D10000EC0BA0F621F731F841F48F48795779512
:101D20006795B795F7959E3F08F0B3CF9395880FC9
:101D300008F09927EE0F979587950895D9D008F464
:101D400081E008950CD00FC107D140F0FED030F0F3
:101D500021F45F3F19F0F0C0511139C1F3C014D123
:101D600098F39923C9F35523B1F3951B550BBB2762
:101D7000AA2762177307840738F09F5F5F4F220F0F
:101D8000331F441FAA1FA9F333D00E2E3AF0E0E808
:101D900030D091505040E695001CCAF729D0FE2F54
:101DA00027D0660F771F881FBB1F261737074807E6
:101DB000AB07B0E809F0BB0B802DBF01FF2793589C
:101DC0005F4F2AF09E3F510568F0B6C000C15F3FEB
:101DD000ECF3983EDCF3869577956795B795F79584
:101DE0009F5FC9F7880F911D9695879597F908957C
:101DF000E1E0660F771F881FBB1F62177307840718
:101E0000BA0720F0621B730B840BBA0BEE1F88F726
:101E1000E095089504D06894B111D9C00895BCD05C
:101E200088F09F5790F0B92F9927B751A0F0D1F0C3
:101E3000660F771F881F991F1AF0BA95C9F712C04D
:101E4000B13081F0C3D0B1E00895C0C0672F782FC2
:101E50008827B85F39F0B93FCCF3869577956795B9
:101E6000B395D9F73EF490958095709561957F4F25
:101E70008F4F9F4F0895E89409C097FB3EF49095CB
:101E80008095709561957F4F8F4F9F4F9923A9F053
:101E9000F92F96E9BB279395F695879577956795E2
:101EA000B795F111F8CFFAF4BB0F11F460FF1BC026
:101EB0006F5F7F4F8F4F9F4F16C0882311F096E9B9
:101EC00011C0772321F09EE8872F762F05C0662367
:101ED00071F096E8862F70E060E02AF09A95660F20
:101EE000771F881FDAF7880F9695879597F90895D9
:101EF000990F0008550FAA0BE0E8FEEF161617061B
:101F0000E807F907C0F012161306E407F50798F082
:101F1000621B730B840B950B39F40A2661F0232B9B
:101F2000242B252B21F408950A2609F4A140A69517
:101F30008FEF811D811D089597F99F6780E870E0FC
:101F400060E008959FEF80EC089500240A9416162F
:101F5000170618060906089500240A941216130697
:101F6000140605060895092E0394000C11F4882325
:101F700052F0BB0F40F4BF2B11F460FF04C06F5F41
:101F80007F4F8F4F9F4F089557FD9058440F551F17
:101F900059F05F3F71F04795880F97FB991F61F0EB
:101FA0009F3F79F087950895121613061406551F62
:101FB000F2CF4695F1DF08C0161617061806991FCE
:101FC000F1CF86957105610508940895E894BB27C3
:101FD00066277727CB0197F908958ADF08F48FEFFA
:101FE00008950BD0C0CFB1DF28F0B6DF18F09523ED
:101FF00009F0A2CFA7CF1124EACFC6DFA0F3959FA7
:10200000D1F3950F50E0551F629FF001729FBB27DF
:10201000F00DB11D639FAA27F00DB11DAA1F649F8B
:102020006627B00DA11D661F829F2227B00DA11D3E
:10203000621F739FB00DA11D621F839FA00D611DC4
:10204000221F749F3327A00D611D231F849F600DE5
:10205000211D822F762F6A2F11249F5750408AF01E
:10206000E1F088234AF0EE0FFF1FBB1F661F771FAA
:10207000881F91505040A9F79E3F510570F05CCFEA
:10208000A6CF5F3FECF3983EDCF386957795679596
:10209000B795F795E7959F5FC1F7FE2B880F911DC8
:1020A0009695879597F9089511F40EF44BCF3EC09D
:1020B00073DFD0F39923D9F3CEF39F57550B87FFE6
:1020C00043D00024A0E640EA9001805856959795A9
:1020D00028F4805C660F771F881F20F026173707CB
:1020E000480730F4621B730B840B202931294A2BDB
:1020F000A69517940794202531254A2758F7660F8F
:10210000771F881F20F026173707480730F4620B27
:10211000730B840B200D311D411DA09581F7B90172
:10212000842F9158880F9695879508959F3F31F099
:10213000915020F4879577956795B795880F911DF5
:102140009695879597F9089591505040660F771F9F
:10215000881FD2F70895A1E21A2EAA1BBB1BFD010E
:102160000DC0AA1FBB1FEE1FFF1FA217B307E40776
:10217000F50720F0A21BB30BE40BF50B661F771FCE
:10218000881F991F1A9469F76095709580959095AE
:102190009B01AC01BD01CF010895052E97FB1EF4F4
:1021A00000940E94E41057FD07D00E94AB1007FC7A
:1021B00003D04EF40C94E410509540953095219541
:1021C0003F4F4F4F5F4F0895909580957095619563
:1021D0007F4F8F4F9F4F0895EE0FFF1F0590F49193
:1021E000E02D09940E940511A59F900DB49F900DBC
:1021F000A49F800D911D11240895B7FF0C94F21037
:102200000E94F210821B930B0895A29FB001B39F0E
:10221000C001A39F700D811D1124911DB29F700DEF
:0C222000811D1124911D0895F894FFCF3A
:10222C00010000000100A0000000564D4450565F14
:10223C00317C315F564D4450560D0A0000000000B1
:10224C008D04AA048303B4020104C70317043804E1
:10225C006C04F8024E03564D4450435F005F564DDC
:10226C004450430D0A004572726F723A20417474E7
:10227C00656D707420746F207365742061207265B5
:10228C0061642D6F6E6C79207661726961626C6528
:10229C00206F7220646174612074797065206E6F98
:1022AC007420737570706F727465640D0A00000091
:0E22BC000000190C950D9B0BB40BA60BF70B35
:00000001FF
